{
	"contracts/FundMe.sol": {
		"FundMe": {
			"abi": [
				{
					"inputs": [],
					"stateMutability": "nonpayable",
					"type": "constructor"
				},
				{
					"inputs": [
						{
							"internalType": "address",
							"name": "funder",
							"type": "address"
						}
					],
					"name": "addressToAmountFunded",
					"outputs": [
						{
							"internalType": "uint256",
							"name": "",
							"type": "uint256"
						}
					],
					"stateMutability": "view",
					"type": "function"
				},
				{
					"inputs": [],
					"name": "btcUsd",
					"outputs": [
						{
							"internalType": "address",
							"name": "",
							"type": "address"
						}
					],
					"stateMutability": "view",
					"type": "function"
				},
				{
					"inputs": [],
					"name": "ethUsd",
					"outputs": [
						{
							"internalType": "address",
							"name": "",
							"type": "address"
						}
					],
					"stateMutability": "view",
					"type": "function"
				},
				{
					"inputs": [],
					"name": "fund",
					"outputs": [],
					"stateMutability": "payable",
					"type": "function"
				},
				{
					"inputs": [
						{
							"internalType": "uint256",
							"name": "",
							"type": "uint256"
						}
					],
					"name": "funders",
					"outputs": [
						{
							"internalType": "address",
							"name": "",
							"type": "address"
						}
					],
					"stateMutability": "view",
					"type": "function"
				},
				{
					"inputs": [
						{
							"internalType": "int256",
							"name": "ethAmount",
							"type": "int256"
						}
					],
					"name": "getConversionRate",
					"outputs": [
						{
							"internalType": "int256",
							"name": "",
							"type": "int256"
						}
					],
					"stateMutability": "view",
					"type": "function"
				},
				{
					"inputs": [],
					"name": "getPrice",
					"outputs": [
						{
							"internalType": "int256",
							"name": "",
							"type": "int256"
						}
					],
					"stateMutability": "view",
					"type": "function"
				},
				{
					"inputs": [],
					"name": "minBal",
					"outputs": [
						{
							"internalType": "int256",
							"name": "",
							"type": "int256"
						}
					],
					"stateMutability": "view",
					"type": "function"
				},
				{
					"inputs": [],
					"name": "owner",
					"outputs": [
						{
							"internalType": "address",
							"name": "",
							"type": "address"
						}
					],
					"stateMutability": "view",
					"type": "function"
				},
				{
					"inputs": [],
					"name": "withdraw",
					"outputs": [],
					"stateMutability": "nonpayable",
					"type": "function"
				}
			],
			"devdoc": {
				"kind": "dev",
				"methods": {},
				"version": 1
			},
			"evm": {
				"assembly": "    /* \"contracts/FundMe.sol\":183:2655  contract FundMe {... */\n  mstore(0x40, 0x80)\n    /* \"contracts/FundMe.sol\":230:272  0x694AA1769357215DE4FAC081bf1f309aDC325306 */\n  0x694aa1769357215de4fac081bf1f309adc325306\n    /* \"contracts/FundMe.sol\":206:272  address public ethUsd = 0x694AA1769357215DE4FAC081bf1f309aDC325306 */\n  0x00\n  exp(0x0100, 0x00)\n  dup2\n  sload\n  dup2\n  0xffffffffffffffffffffffffffffffffffffffff\n  mul\n  not\n  and\n  swap1\n  dup4\n  0xffffffffffffffffffffffffffffffffffffffff\n  and\n  mul\n  or\n  swap1\n  sstore\n  pop\n    /* \"contracts/FundMe.sol\":303:345  0x1b44F3514812d835EB1BDB0acB33d3fA3351Ee43 */\n  0x1b44f3514812d835eb1bdb0acb33d3fa3351ee43\n    /* \"contracts/FundMe.sol\":279:345  address public btcUsd = 0x1b44F3514812d835EB1BDB0acB33d3fA3351Ee43 */\n  0x01\n  exp(0x0100, 0x00)\n  dup2\n  sload\n  dup2\n  0xffffffffffffffffffffffffffffffffffffffff\n  mul\n  not\n  and\n  swap1\n  dup4\n  0xffffffffffffffffffffffffffffffffffffffff\n  and\n  mul\n  or\n  swap1\n  sstore\n  pop\n    /* \"contracts/FundMe.sol\":376:380  2e15 */\n  0x071afd498d0000\n    /* \"contracts/FundMe.sol\":352:380  int256 public  minBal = 2e15 */\n  0x02\n  sstore\n    /* \"contracts/FundMe.sol\":1418:1515  constructor() {... */\n  callvalue\n  dup1\n  iszero\n  tag_1\n  jumpi\n  revert(0x00, 0x00)\ntag_1:\n  pop\n    /* \"contracts/FundMe.sol\":1490:1496  ethUsd */\n  0x00\n  0x00\n  swap1\n  sload\n  swap1\n  0x0100\n  exp\n  swap1\n  div\n  0xffffffffffffffffffffffffffffffffffffffff\n  and\n    /* \"contracts/FundMe.sol\":1443:1451  dataFeed */\n  0x06\n  0x00\n    /* \"contracts/FundMe.sol\":1443:1507  dataFeed = AggregatorV3Interface(... */\n  0x0100\n  exp\n  dup2\n  sload\n  dup2\n  0xffffffffffffffffffffffffffffffffffffffff\n  mul\n  not\n  and\n  swap1\n  dup4\n  0xffffffffffffffffffffffffffffffffffffffff\n  and\n  mul\n  or\n  swap1\n  sstore\n  pop\n    /* \"contracts/FundMe.sol\":183:2655  contract FundMe {... */\n  dataSize(sub_0)\n  dup1\n  dataOffset(sub_0)\n  0x00\n  codecopy\n  0x00\n  return\nstop\n\nsub_0: assembly {\n        /* \"contracts/FundMe.sol\":183:2655  contract FundMe {... */\n      mstore(0x40, 0x80)\n      jumpi(tag_1, lt(calldatasize, 0x04))\n      shr(0xe0, calldataload(0x00))\n      dup1\n      0x8da5cb5b\n      gt\n      tag_12\n      jumpi\n      dup1\n      0x8da5cb5b\n      eq\n      tag_7\n      jumpi\n      dup1\n      0x91b7655f\n      eq\n      tag_8\n      jumpi\n      dup1\n      0x98d5fdca\n      eq\n      tag_9\n      jumpi\n      dup1\n      0xb60d4288\n      eq\n      tag_10\n      jumpi\n      dup1\n      0xdc0d3dff\n      eq\n      tag_11\n      jumpi\n      jump(tag_1)\n    tag_12:\n      dup1\n      0x325df6e2\n      eq\n      tag_2\n      jumpi\n      dup1\n      0x3ccfd60b\n      eq\n      tag_3\n      jumpi\n      dup1\n      0x3e47d6f3\n      eq\n      tag_4\n      jumpi\n      dup1\n      0x5669a1b9\n      eq\n      tag_5\n      jumpi\n      dup1\n      0x5a960216\n      eq\n      tag_6\n      jumpi\n    tag_1:\n      revert(0x00, 0x00)\n        /* \"contracts/FundMe.sol\":1899:2113  function getConversionRate(int256 ethAmount) public view returns (int256) {... */\n    tag_2:\n      callvalue\n      dup1\n      iszero\n      tag_13\n      jumpi\n      revert(0x00, 0x00)\n    tag_13:\n      pop\n      tag_14\n      0x04\n      dup1\n      calldatasize\n      sub\n      dup2\n      add\n      swap1\n      tag_15\n      swap2\n      swap1\n      tag_16\n      jump\t// in\n    tag_15:\n      tag_17\n      jump\t// in\n    tag_14:\n      mload(0x40)\n      tag_18\n      swap2\n      swap1\n      tag_19\n      jump\t// in\n    tag_18:\n      mload(0x40)\n      dup1\n      swap2\n      sub\n      swap1\n      return\n        /* \"contracts/FundMe.sol\":2121:2538  function withdraw() onlyOwner public {... */\n    tag_3:\n      callvalue\n      dup1\n      iszero\n      tag_20\n      jumpi\n      revert(0x00, 0x00)\n    tag_20:\n      pop\n      tag_21\n      tag_22\n      jump\t// in\n    tag_21:\n      stop\n        /* \"contracts/FundMe.sol\":451:514  mapping(address funder => uint256) public addressToAmountFunded */\n    tag_4:\n      callvalue\n      dup1\n      iszero\n      tag_23\n      jumpi\n      revert(0x00, 0x00)\n    tag_23:\n      pop\n      tag_24\n      0x04\n      dup1\n      calldatasize\n      sub\n      dup2\n      add\n      swap1\n      tag_25\n      swap2\n      swap1\n      tag_26\n      jump\t// in\n    tag_25:\n      tag_27\n      jump\t// in\n    tag_24:\n      mload(0x40)\n      tag_28\n      swap2\n      swap1\n      tag_29\n      jump\t// in\n    tag_28:\n      mload(0x40)\n      dup1\n      swap2\n      sub\n      swap1\n      return\n        /* \"contracts/FundMe.sol\":279:345  address public btcUsd = 0x1b44F3514812d835EB1BDB0acB33d3fA3351Ee43 */\n    tag_5:\n      callvalue\n      dup1\n      iszero\n      tag_30\n      jumpi\n      revert(0x00, 0x00)\n    tag_30:\n      pop\n      tag_31\n      tag_32\n      jump\t// in\n    tag_31:\n      mload(0x40)\n      tag_33\n      swap2\n      swap1\n      tag_34\n      jump\t// in\n    tag_33:\n      mload(0x40)\n      dup1\n      swap2\n      sub\n      swap1\n      return\n        /* \"contracts/FundMe.sol\":206:272  address public ethUsd = 0x694AA1769357215DE4FAC081bf1f309aDC325306 */\n    tag_6:\n      callvalue\n      dup1\n      iszero\n      tag_35\n      jumpi\n      revert(0x00, 0x00)\n    tag_35:\n      pop\n      tag_36\n      tag_37\n      jump\t// in\n    tag_36:\n      mload(0x40)\n      tag_38\n      swap2\n      swap1\n      tag_34\n      jump\t// in\n    tag_38:\n      mload(0x40)\n      dup1\n      swap2\n      sub\n      swap1\n      return\n        /* \"contracts/FundMe.sol\":418:438  address public owner */\n    tag_7:\n      callvalue\n      dup1\n      iszero\n      tag_39\n      jumpi\n      revert(0x00, 0x00)\n    tag_39:\n      pop\n      tag_40\n      tag_41\n      jump\t// in\n    tag_40:\n      mload(0x40)\n      tag_42\n      swap2\n      swap1\n      tag_34\n      jump\t// in\n    tag_42:\n      mload(0x40)\n      dup1\n      swap2\n      sub\n      swap1\n      return\n        /* \"contracts/FundMe.sol\":352:380  int256 public  minBal = 2e15 */\n    tag_8:\n      callvalue\n      dup1\n      iszero\n      tag_43\n      jumpi\n      revert(0x00, 0x00)\n    tag_43:\n      pop\n      tag_44\n      tag_45\n      jump\t// in\n    tag_44:\n      mload(0x40)\n      tag_46\n      swap2\n      swap1\n      tag_19\n      jump\t// in\n    tag_46:\n      mload(0x40)\n      dup1\n      swap2\n      sub\n      swap1\n      return\n        /* \"contracts/FundMe.sol\":1558:1891  function getPrice() public view returns (int) {... */\n    tag_9:\n      callvalue\n      dup1\n      iszero\n      tag_47\n      jumpi\n      revert(0x00, 0x00)\n    tag_47:\n      pop\n      tag_48\n      tag_49\n      jump\t// in\n    tag_48:\n      mload(0x40)\n      tag_50\n      swap2\n      swap1\n      tag_19\n      jump\t// in\n    tag_50:\n      mload(0x40)\n      dup1\n      swap2\n      sub\n      swap1\n      return\n        /* \"contracts/FundMe.sol\":521:851  function fund() public payable {... */\n    tag_10:\n      tag_51\n      tag_52\n      jump\t// in\n    tag_51:\n      stop\n        /* \"contracts/FundMe.sol\":387:411  address[] public funders */\n    tag_11:\n      callvalue\n      dup1\n      iszero\n      tag_53\n      jumpi\n      revert(0x00, 0x00)\n    tag_53:\n      pop\n      tag_54\n      0x04\n      dup1\n      calldatasize\n      sub\n      dup2\n      add\n      swap1\n      tag_55\n      swap2\n      swap1\n      tag_56\n      jump\t// in\n    tag_55:\n      tag_57\n      jump\t// in\n    tag_54:\n      mload(0x40)\n      tag_58\n      swap2\n      swap1\n      tag_34\n      jump\t// in\n    tag_58:\n      mload(0x40)\n      dup1\n      swap2\n      sub\n      swap1\n      return\n        /* \"contracts/FundMe.sol\":1899:2113  function getConversionRate(int256 ethAmount) public view returns (int256) {... */\n    tag_17:\n        /* \"contracts/FundMe.sol\":1965:1971  int256 */\n      0x00\n        /* \"contracts/FundMe.sol\":1984:1999  int256 ethPrice */\n      0x00\n        /* \"contracts/FundMe.sol\":2002:2012  getPrice() */\n      tag_60\n        /* \"contracts/FundMe.sol\":2002:2010  getPrice */\n      tag_49\n        /* \"contracts/FundMe.sol\":2002:2012  getPrice() */\n      jump\t// in\n    tag_60:\n        /* \"contracts/FundMe.sol\":1984:2012  int256 ethPrice = getPrice() */\n      swap1\n      pop\n        /* \"contracts/FundMe.sol\":2023:2041  int ethAmountInUsd */\n      0x00\n        /* \"contracts/FundMe.sol\":2069:2073  1e18 */\n      0x0de0b6b3a7640000\n        /* \"contracts/FundMe.sol\":2056:2065  ethAmount */\n      dup5\n        /* \"contracts/FundMe.sol\":2045:2053  ethPrice */\n      dup4\n        /* \"contracts/FundMe.sol\":2045:2065  ethPrice * ethAmount */\n      tag_61\n      swap2\n      swap1\n      tag_62\n      jump\t// in\n    tag_61:\n        /* \"contracts/FundMe.sol\":2044:2073  (ethPrice * ethAmount) / 1e18 */\n      tag_63\n      swap2\n      swap1\n      tag_64\n      jump\t// in\n    tag_63:\n        /* \"contracts/FundMe.sol\":2023:2073  int ethAmountInUsd = (ethPrice * ethAmount) / 1e18 */\n      swap1\n      pop\n        /* \"contracts/FundMe.sol\":2091:2105  ethAmountInUsd */\n      dup1\n        /* \"contracts/FundMe.sol\":2084:2105  return ethAmountInUsd */\n      swap3\n      pop\n      pop\n      pop\n        /* \"contracts/FundMe.sol\":1899:2113  function getConversionRate(int256 ethAmount) public view returns (int256) {... */\n      swap2\n      swap1\n      pop\n      jump\t// out\n        /* \"contracts/FundMe.sol\":2121:2538  function withdraw() onlyOwner public {... */\n    tag_22:\n        /* \"contracts/FundMe.sol\":2599:2604  owner */\n      0x04\n      0x00\n      swap1\n      sload\n      swap1\n      0x0100\n      exp\n      swap1\n      div\n      0xffffffffffffffffffffffffffffffffffffffff\n      and\n        /* \"contracts/FundMe.sol\":2585:2604  msg.sender == owner */\n      0xffffffffffffffffffffffffffffffffffffffff\n      and\n        /* \"contracts/FundMe.sol\":2585:2595  msg.sender */\n      caller\n        /* \"contracts/FundMe.sol\":2585:2604  msg.sender == owner */\n      0xffffffffffffffffffffffffffffffffffffffff\n      and\n      eq\n        /* \"contracts/FundMe.sol\":2577:2632  require(msg.sender == owner, \"Sender is not the owner\") */\n      tag_66\n      jumpi\n      mload(0x40)\n      0x08c379a000000000000000000000000000000000000000000000000000000000\n      dup2\n      mstore\n      0x04\n      add\n      tag_67\n      swap1\n      tag_68\n      jump\t// in\n    tag_67:\n      mload(0x40)\n      dup1\n      swap2\n      sub\n      swap1\n      revert\n    tag_66:\n        /* \"contracts/FundMe.sol\":2173:2192  uint256 funderIndex */\n      0x00\n        /* \"contracts/FundMe.sol\":2195:2196  0 */\n      0x00\n        /* \"contracts/FundMe.sol\":2173:2196  uint256 funderIndex = 0 */\n      swap1\n      pop\n        /* \"contracts/FundMe.sol\":2169:2354  for(uint256 funderIndex = 0; funderIndex < funders.length; funderIndex++){... */\n    tag_70:\n        /* \"contracts/FundMe.sol\":2212:2219  funders */\n      0x03\n        /* \"contracts/FundMe.sol\":2212:2226  funders.length */\n      dup1\n      sload\n      swap1\n      pop\n        /* \"contracts/FundMe.sol\":2198:2209  funderIndex */\n      dup2\n        /* \"contracts/FundMe.sol\":2198:2226  funderIndex < funders.length */\n      lt\n        /* \"contracts/FundMe.sol\":2169:2354  for(uint256 funderIndex = 0; funderIndex < funders.length; funderIndex++){... */\n      iszero\n      tag_71\n      jumpi\n        /* \"contracts/FundMe.sol\":2257:2271  address funder */\n      0x00\n        /* \"contracts/FundMe.sol\":2274:2281  funders */\n      0x03\n        /* \"contracts/FundMe.sol\":2282:2293  funderIndex */\n      dup3\n        /* \"contracts/FundMe.sol\":2274:2294  funders[funderIndex] */\n      dup2\n      sload\n      dup2\n      lt\n      tag_73\n      jumpi\n      tag_74\n      tag_75\n      jump\t// in\n    tag_74:\n    tag_73:\n      swap1\n      0x00\n      mstore\n      keccak256(0x00, 0x20)\n      add\n      0x00\n      swap1\n      sload\n      swap1\n      0x0100\n      exp\n      swap1\n      div\n      0xffffffffffffffffffffffffffffffffffffffff\n      and\n        /* \"contracts/FundMe.sol\":2257:2294  address funder = funders[funderIndex] */\n      swap1\n      pop\n        /* \"contracts/FundMe.sol\":2341:2342  0 */\n      0x00\n        /* \"contracts/FundMe.sol\":2309:2330  addressToAmountFunded */\n      0x05\n        /* \"contracts/FundMe.sol\":2309:2338  addressToAmountFunded[funder] */\n      0x00\n        /* \"contracts/FundMe.sol\":2331:2337  funder */\n      dup4\n        /* \"contracts/FundMe.sol\":2309:2338  addressToAmountFunded[funder] */\n      0xffffffffffffffffffffffffffffffffffffffff\n      and\n      0xffffffffffffffffffffffffffffffffffffffff\n      and\n      dup2\n      mstore\n      0x20\n      add\n      swap1\n      dup2\n      mstore\n      0x20\n      add\n      0x00\n      keccak256\n        /* \"contracts/FundMe.sol\":2309:2342  addressToAmountFunded[funder] = 0 */\n      dup2\n      swap1\n      sstore\n      pop\n        /* \"contracts/FundMe.sol\":2242:2354  {... */\n      pop\n        /* \"contracts/FundMe.sol\":2228:2241  funderIndex++ */\n      dup1\n      dup1\n      0x01\n      add\n      swap2\n      pop\n      pop\n        /* \"contracts/FundMe.sol\":2169:2354  for(uint256 funderIndex = 0; funderIndex < funders.length; funderIndex++){... */\n      jump(tag_70)\n    tag_71:\n      pop\n        /* \"contracts/FundMe.sol\":2390:2391  0 */\n      0x00\n        /* \"contracts/FundMe.sol\":2376:2392  new address[](0) */\n      0xffffffffffffffff\n      dup2\n      gt\n      iszero\n      tag_77\n      jumpi\n      tag_78\n      tag_79\n      jump\t// in\n    tag_78:\n    tag_77:\n      mload(0x40)\n      swap1\n      dup1\n      dup3\n      mstore\n      dup1\n      0x20\n      mul\n      0x20\n      add\n      dup3\n      add\n      0x40\n      mstore\n      dup1\n      iszero\n      tag_80\n      jumpi\n      dup2\n      0x20\n      add\n      0x20\n      dup3\n      mul\n      dup1\n      calldatasize\n      dup4\n      calldatacopy\n      dup1\n      dup3\n      add\n      swap2\n      pop\n      pop\n      swap1\n      pop\n    tag_80:\n      pop\n        /* \"contracts/FundMe.sol\":2366:2373  funders */\n      0x03\n        /* \"contracts/FundMe.sol\":2366:2392  funders = new address[](0) */\n      swap1\n      dup1\n      mload\n      swap1\n      0x20\n      add\n      swap1\n      tag_81\n      swap3\n      swap2\n      swap1\n      tag_82\n      jump\t// in\n    tag_81:\n      pop\n        /* \"contracts/FundMe.sol\":2404:2420  bool callSuccess */\n      0x00\n        /* \"contracts/FundMe.sol\":2434:2444  msg.sender */\n      caller\n        /* \"contracts/FundMe.sol\":2426:2450  payable(msg.sender).call */\n      0xffffffffffffffffffffffffffffffffffffffff\n      and\n        /* \"contracts/FundMe.sol\":2458:2479  address(this).balance */\n      selfbalance\n        /* \"contracts/FundMe.sol\":2426:2484  payable(msg.sender).call{value: address(this).balance}(\"\") */\n      mload(0x40)\n      tag_83\n      swap1\n      tag_84\n      jump\t// in\n    tag_83:\n      0x00\n      mload(0x40)\n      dup1\n      dup4\n      sub\n      dup2\n      dup6\n      dup8\n      gas\n      call\n      swap3\n      pop\n      pop\n      pop\n      returndatasize\n      dup1\n      0x00\n      dup2\n      eq\n      tag_87\n      jumpi\n      mload(0x40)\n      swap2\n      pop\n      and(add(returndatasize, 0x3f), not(0x1f))\n      dup3\n      add\n      0x40\n      mstore\n      returndatasize\n      dup3\n      mstore\n      returndatasize\n      0x00\n      0x20\n      dup5\n      add\n      returndatacopy\n      jump(tag_86)\n    tag_87:\n      0x60\n      swap2\n      pop\n    tag_86:\n      pop\n        /* \"contracts/FundMe.sol\":2403:2484  (bool callSuccess, ) = payable(msg.sender).call{value: address(this).balance}(\"\") */\n      pop\n      swap1\n      pop\n        /* \"contracts/FundMe.sol\":2503:2514  callSuccess */\n      dup1\n        /* \"contracts/FundMe.sol\":2495:2530  require(callSuccess, \"Call failed\") */\n      tag_88\n      jumpi\n      mload(0x40)\n      0x08c379a000000000000000000000000000000000000000000000000000000000\n      dup2\n      mstore\n      0x04\n      add\n      tag_89\n      swap1\n      tag_90\n      jump\t// in\n    tag_89:\n      mload(0x40)\n      dup1\n      swap2\n      sub\n      swap1\n      revert\n    tag_88:\n        /* \"contracts/FundMe.sol\":2158:2538  {... */\n      pop\n        /* \"contracts/FundMe.sol\":2121:2538  function withdraw() onlyOwner public {... */\n      jump\t// out\n        /* \"contracts/FundMe.sol\":451:514  mapping(address funder => uint256) public addressToAmountFunded */\n    tag_27:\n      mstore(0x20, 0x05)\n      dup1\n      0x00\n      mstore\n      keccak256(0x00, 0x40)\n      0x00\n      swap2\n      pop\n      swap1\n      pop\n      sload\n      dup2\n      jump\t// out\n        /* \"contracts/FundMe.sol\":279:345  address public btcUsd = 0x1b44F3514812d835EB1BDB0acB33d3fA3351Ee43 */\n    tag_32:\n      0x01\n      0x00\n      swap1\n      sload\n      swap1\n      0x0100\n      exp\n      swap1\n      div\n      0xffffffffffffffffffffffffffffffffffffffff\n      and\n      dup2\n      jump\t// out\n        /* \"contracts/FundMe.sol\":206:272  address public ethUsd = 0x694AA1769357215DE4FAC081bf1f309aDC325306 */\n    tag_37:\n      0x00\n      0x00\n      swap1\n      sload\n      swap1\n      0x0100\n      exp\n      swap1\n      div\n      0xffffffffffffffffffffffffffffffffffffffff\n      and\n      dup2\n      jump\t// out\n        /* \"contracts/FundMe.sol\":418:438  address public owner */\n    tag_41:\n      0x04\n      0x00\n      swap1\n      sload\n      swap1\n      0x0100\n      exp\n      swap1\n      div\n      0xffffffffffffffffffffffffffffffffffffffff\n      and\n      dup2\n      jump\t// out\n        /* \"contracts/FundMe.sol\":352:380  int256 public  minBal = 2e15 */\n    tag_45:\n      sload(0x02)\n      dup2\n      jump\t// out\n        /* \"contracts/FundMe.sol\":1558:1891  function getPrice() public view returns (int) {... */\n    tag_49:\n        /* \"contracts/FundMe.sol\":1599:1602  int */\n      0x00\n        /* \"contracts/FundMe.sol\":1693:1706  int256 answer */\n      0x00\n        /* \"contracts/FundMe.sol\":1833:1841  dataFeed */\n      0x06\n      0x00\n      swap1\n      sload\n      swap1\n      0x0100\n      exp\n      swap1\n      div\n      0xffffffffffffffffffffffffffffffffffffffff\n      and\n        /* \"contracts/FundMe.sol\":1833:1857  dataFeed.latestRoundData */\n      0xffffffffffffffffffffffffffffffffffffffff\n      and\n      0xfeaf968c\n        /* \"contracts/FundMe.sol\":1833:1859  dataFeed.latestRoundData() */\n      mload(0x40)\n      dup2\n      0xffffffff\n      and\n      0xe0\n      shl\n      dup2\n      mstore\n      0x04\n      add\n      0xa0\n      mload(0x40)\n      dup1\n      dup4\n      sub\n      dup2\n      dup7\n      gas\n      staticcall\n      iszero\n      dup1\n      iszero\n      tag_93\n      jumpi\n      returndatacopy(0x00, 0x00, returndatasize)\n      revert(0x00, returndatasize)\n    tag_93:\n      pop\n      pop\n      pop\n      pop\n      mload(0x40)\n      returndatasize\n      not(0x1f)\n      0x1f\n      dup3\n      add\n      and\n      dup3\n      add\n      dup1\n      0x40\n      mstore\n      pop\n      dup2\n      add\n      swap1\n      tag_94\n      swap2\n      swap1\n      tag_95\n      jump\t// in\n    tag_94:\n        /* \"contracts/FundMe.sol\":1643:1859  (... */\n      pop\n      pop\n      pop\n      swap2\n      pop\n      pop\n        /* \"contracts/FundMe.sol\":1877:1883  answer */\n      dup1\n        /* \"contracts/FundMe.sol\":1870:1883  return answer */\n      swap2\n      pop\n      pop\n        /* \"contracts/FundMe.sol\":1558:1891  function getPrice() public view returns (int) {... */\n      swap1\n      jump\t// out\n        /* \"contracts/FundMe.sol\":521:851  function fund() public payable {... */\n    tag_52:\n        /* \"contracts/FundMe.sol\":689:695  minBal */\n      sload(0x02)\n        /* \"contracts/FundMe.sol\":650:686  getConversionRate(int256(msg.value)) */\n      tag_97\n        /* \"contracts/FundMe.sol\":675:684  msg.value */\n      callvalue\n        /* \"contracts/FundMe.sol\":650:667  getConversionRate */\n      tag_17\n        /* \"contracts/FundMe.sol\":650:686  getConversionRate(int256(msg.value)) */\n      jump\t// in\n    tag_97:\n        /* \"contracts/FundMe.sol\":650:695  getConversionRate(int256(msg.value)) > minBal */\n      sgt\n        /* \"contracts/FundMe.sol\":642:716  require(getConversionRate(int256(msg.value)) > minBal, \"Not enough Money\") */\n      tag_98\n      jumpi\n      mload(0x40)\n      0x08c379a000000000000000000000000000000000000000000000000000000000\n      dup2\n      mstore\n      0x04\n      add\n      tag_99\n      swap1\n      tag_100\n      jump\t// in\n    tag_99:\n      mload(0x40)\n      dup1\n      swap2\n      sub\n      swap1\n      revert\n    tag_98:\n        /* \"contracts/FundMe.sol\":727:734  funders */\n      0x03\n        /* \"contracts/FundMe.sol\":740:750  msg.sender */\n      caller\n        /* \"contracts/FundMe.sol\":727:751  funders.push(msg.sender) */\n      swap1\n      dup1\n      0x01\n      dup2\n      sload\n      add\n      dup1\n      dup3\n      sstore\n      dup1\n      swap2\n      pop\n      pop\n      0x01\n      swap1\n      sub\n      swap1\n      0x00\n      mstore\n      keccak256(0x00, 0x20)\n      add\n      0x00\n      swap1\n      swap2\n      swap1\n      swap2\n      swap1\n      swap2\n      0x0100\n      exp\n      dup2\n      sload\n      dup2\n      0xffffffffffffffffffffffffffffffffffffffff\n      mul\n      not\n      and\n      swap1\n      dup4\n      0xffffffffffffffffffffffffffffffffffffffff\n      and\n      mul\n      or\n      swap1\n      sstore\n      pop\n        /* \"contracts/FundMe.sol\":834:843  msg.value */\n      callvalue\n        /* \"contracts/FundMe.sol\":798:819  addressToAmountFunded */\n      0x05\n        /* \"contracts/FundMe.sol\":798:831  addressToAmountFunded[msg.sender] */\n      0x00\n        /* \"contracts/FundMe.sol\":820:830  msg.sender */\n      caller\n        /* \"contracts/FundMe.sol\":798:831  addressToAmountFunded[msg.sender] */\n      0xffffffffffffffffffffffffffffffffffffffff\n      and\n      0xffffffffffffffffffffffffffffffffffffffff\n      and\n      dup2\n      mstore\n      0x20\n      add\n      swap1\n      dup2\n      mstore\n      0x20\n      add\n      0x00\n      keccak256\n      sload\n        /* \"contracts/FundMe.sol\":798:843  addressToAmountFunded[msg.sender] + msg.value */\n      tag_102\n      swap2\n      swap1\n      tag_103\n      jump\t// in\n    tag_102:\n        /* \"contracts/FundMe.sol\":762:783  addressToAmountFunded */\n      0x05\n        /* \"contracts/FundMe.sol\":762:795  addressToAmountFunded[msg.sender] */\n      0x00\n        /* \"contracts/FundMe.sol\":784:794  msg.sender */\n      caller\n        /* \"contracts/FundMe.sol\":762:795  addressToAmountFunded[msg.sender] */\n      0xffffffffffffffffffffffffffffffffffffffff\n      and\n      0xffffffffffffffffffffffffffffffffffffffff\n      and\n      dup2\n      mstore\n      0x20\n      add\n      swap1\n      dup2\n      mstore\n      0x20\n      add\n      0x00\n      keccak256\n        /* \"contracts/FundMe.sol\":762:843  addressToAmountFunded[msg.sender] = addressToAmountFunded[msg.sender] + msg.value */\n      dup2\n      swap1\n      sstore\n      pop\n        /* \"contracts/FundMe.sol\":521:851  function fund() public payable {... */\n      jump\t// out\n        /* \"contracts/FundMe.sol\":387:411  address[] public funders */\n    tag_57:\n      0x03\n      dup2\n      dup2\n      sload\n      dup2\n      lt\n      tag_104\n      jumpi\n      0x00\n      dup1\n      revert\n    tag_104:\n      swap1\n      0x00\n      mstore\n      keccak256(0x00, 0x20)\n      add\n      0x00\n      swap2\n      pop\n      sload\n      swap1\n      0x0100\n      exp\n      swap1\n      div\n      0xffffffffffffffffffffffffffffffffffffffff\n      and\n      dup2\n      jump\t// out\n    tag_82:\n      dup3\n      dup1\n      sload\n      dup3\n      dup3\n      sstore\n      swap1\n      0x00\n      mstore\n      keccak256(0x00, 0x20)\n      swap1\n      dup2\n      add\n      swap3\n      dup3\n      iszero\n      tag_106\n      jumpi\n      swap2\n      0x20\n      mul\n      dup3\n      add\n    tag_107:\n      dup3\n      dup2\n      gt\n      iszero\n      tag_108\n      jumpi\n      dup3\n      mload\n      dup3\n      exp(0x0100, 0x00)\n      dup2\n      sload\n      dup2\n      0xffffffffffffffffffffffffffffffffffffffff\n      mul\n      not\n      and\n      swap1\n      dup4\n      0xffffffffffffffffffffffffffffffffffffffff\n      and\n      mul\n      or\n      swap1\n      sstore\n      pop\n      swap2\n      0x20\n      add\n      swap2\n      swap1\n      0x01\n      add\n      swap1\n      jump(tag_107)\n    tag_108:\n    tag_106:\n      pop\n      swap1\n      pop\n      tag_109\n      swap2\n      swap1\n      tag_110\n      jump\t// in\n    tag_109:\n      pop\n      swap1\n      jump\t// out\n    tag_110:\n    tag_111:\n      dup1\n      dup3\n      gt\n      iszero\n      tag_112\n      jumpi\n      0x00\n      dup2\n      0x00\n      swap1\n      sstore\n      pop\n      0x01\n      add\n      jump(tag_111)\n    tag_112:\n      pop\n      swap1\n      jump\t// out\n        /* \"#utility.yul\":88:205   */\n    tag_114:\n        /* \"#utility.yul\":197:198   */\n      0x00\n        /* \"#utility.yul\":194:195   */\n      0x00\n        /* \"#utility.yul\":187:199   */\n      revert\n        /* \"#utility.yul\":334:410   */\n    tag_116:\n        /* \"#utility.yul\":370:377   */\n      0x00\n        /* \"#utility.yul\":399:404   */\n      dup2\n        /* \"#utility.yul\":388:404   */\n      swap1\n      pop\n        /* \"#utility.yul\":334:410   */\n      swap2\n      swap1\n      pop\n      jump\t// out\n        /* \"#utility.yul\":416:536   */\n    tag_117:\n        /* \"#utility.yul\":488:511   */\n      tag_152\n        /* \"#utility.yul\":505:510   */\n      dup2\n        /* \"#utility.yul\":488:511   */\n      tag_116\n      jump\t// in\n    tag_152:\n        /* \"#utility.yul\":481:486   */\n      dup2\n        /* \"#utility.yul\":478:512   */\n      eq\n        /* \"#utility.yul\":468:530   */\n      tag_153\n      jumpi\n        /* \"#utility.yul\":526:527   */\n      0x00\n        /* \"#utility.yul\":523:524   */\n      0x00\n        /* \"#utility.yul\":516:528   */\n      revert\n        /* \"#utility.yul\":468:530   */\n    tag_153:\n        /* \"#utility.yul\":416:536   */\n      pop\n      jump\t// out\n        /* \"#utility.yul\":542:679   */\n    tag_118:\n        /* \"#utility.yul\":587:592   */\n      0x00\n        /* \"#utility.yul\":625:631   */\n      dup2\n        /* \"#utility.yul\":612:632   */\n      calldataload\n        /* \"#utility.yul\":603:632   */\n      swap1\n      pop\n        /* \"#utility.yul\":641:673   */\n      tag_155\n        /* \"#utility.yul\":667:672   */\n      dup2\n        /* \"#utility.yul\":641:673   */\n      tag_117\n      jump\t// in\n    tag_155:\n        /* \"#utility.yul\":542:679   */\n      swap3\n      swap2\n      pop\n      pop\n      jump\t// out\n        /* \"#utility.yul\":685:1012   */\n    tag_16:\n        /* \"#utility.yul\":743:749   */\n      0x00\n        /* \"#utility.yul\":792:794   */\n      0x20\n        /* \"#utility.yul\":780:789   */\n      dup3\n        /* \"#utility.yul\":771:778   */\n      dup5\n        /* \"#utility.yul\":767:790   */\n      sub\n        /* \"#utility.yul\":763:795   */\n      slt\n        /* \"#utility.yul\":760:879   */\n      iszero\n      tag_157\n      jumpi\n        /* \"#utility.yul\":798:877   */\n      tag_158\n      tag_114\n      jump\t// in\n    tag_158:\n        /* \"#utility.yul\":760:879   */\n    tag_157:\n        /* \"#utility.yul\":918:919   */\n      0x00\n        /* \"#utility.yul\":943:995   */\n      tag_159\n        /* \"#utility.yul\":987:994   */\n      dup5\n        /* \"#utility.yul\":978:984   */\n      dup3\n        /* \"#utility.yul\":967:976   */\n      dup6\n        /* \"#utility.yul\":963:985   */\n      add\n        /* \"#utility.yul\":943:995   */\n      tag_118\n      jump\t// in\n    tag_159:\n        /* \"#utility.yul\":933:995   */\n      swap2\n      pop\n        /* \"#utility.yul\":889:1005   */\n      pop\n        /* \"#utility.yul\":685:1012   */\n      swap3\n      swap2\n      pop\n      pop\n      jump\t// out\n        /* \"#utility.yul\":1018:1133   */\n    tag_119:\n        /* \"#utility.yul\":1103:1126   */\n      tag_161\n        /* \"#utility.yul\":1120:1125   */\n      dup2\n        /* \"#utility.yul\":1103:1126   */\n      tag_116\n      jump\t// in\n    tag_161:\n        /* \"#utility.yul\":1098:1101   */\n      dup3\n        /* \"#utility.yul\":1091:1127   */\n      mstore\n        /* \"#utility.yul\":1018:1133   */\n      pop\n      pop\n      jump\t// out\n        /* \"#utility.yul\":1139:1357   */\n    tag_19:\n        /* \"#utility.yul\":1230:1234   */\n      0x00\n        /* \"#utility.yul\":1268:1270   */\n      0x20\n        /* \"#utility.yul\":1257:1266   */\n      dup3\n        /* \"#utility.yul\":1253:1271   */\n      add\n        /* \"#utility.yul\":1245:1271   */\n      swap1\n      pop\n        /* \"#utility.yul\":1281:1350   */\n      tag_163\n        /* \"#utility.yul\":1347:1348   */\n      0x00\n        /* \"#utility.yul\":1336:1345   */\n      dup4\n        /* \"#utility.yul\":1332:1349   */\n      add\n        /* \"#utility.yul\":1323:1329   */\n      dup5\n        /* \"#utility.yul\":1281:1350   */\n      tag_119\n      jump\t// in\n    tag_163:\n        /* \"#utility.yul\":1139:1357   */\n      swap3\n      swap2\n      pop\n      pop\n      jump\t// out\n        /* \"#utility.yul\":1363:1489   */\n    tag_120:\n        /* \"#utility.yul\":1400:1407   */\n      0x00\n        /* \"#utility.yul\":1440:1482   */\n      0xffffffffffffffffffffffffffffffffffffffff\n        /* \"#utility.yul\":1433:1438   */\n      dup3\n        /* \"#utility.yul\":1429:1483   */\n      and\n        /* \"#utility.yul\":1418:1483   */\n      swap1\n      pop\n        /* \"#utility.yul\":1363:1489   */\n      swap2\n      swap1\n      pop\n      jump\t// out\n        /* \"#utility.yul\":1495:1591   */\n    tag_121:\n        /* \"#utility.yul\":1532:1539   */\n      0x00\n        /* \"#utility.yul\":1561:1585   */\n      tag_166\n        /* \"#utility.yul\":1579:1584   */\n      dup3\n        /* \"#utility.yul\":1561:1585   */\n      tag_120\n      jump\t// in\n    tag_166:\n        /* \"#utility.yul\":1550:1585   */\n      swap1\n      pop\n        /* \"#utility.yul\":1495:1591   */\n      swap2\n      swap1\n      pop\n      jump\t// out\n        /* \"#utility.yul\":1597:1719   */\n    tag_122:\n        /* \"#utility.yul\":1670:1694   */\n      tag_168\n        /* \"#utility.yul\":1688:1693   */\n      dup2\n        /* \"#utility.yul\":1670:1694   */\n      tag_121\n      jump\t// in\n    tag_168:\n        /* \"#utility.yul\":1663:1668   */\n      dup2\n        /* \"#utility.yul\":1660:1695   */\n      eq\n        /* \"#utility.yul\":1650:1713   */\n      tag_169\n      jumpi\n        /* \"#utility.yul\":1709:1710   */\n      0x00\n        /* \"#utility.yul\":1706:1707   */\n      0x00\n        /* \"#utility.yul\":1699:1711   */\n      revert\n        /* \"#utility.yul\":1650:1713   */\n    tag_169:\n        /* \"#utility.yul\":1597:1719   */\n      pop\n      jump\t// out\n        /* \"#utility.yul\":1725:1864   */\n    tag_123:\n        /* \"#utility.yul\":1771:1776   */\n      0x00\n        /* \"#utility.yul\":1809:1815   */\n      dup2\n        /* \"#utility.yul\":1796:1816   */\n      calldataload\n        /* \"#utility.yul\":1787:1816   */\n      swap1\n      pop\n        /* \"#utility.yul\":1825:1858   */\n      tag_171\n        /* \"#utility.yul\":1852:1857   */\n      dup2\n        /* \"#utility.yul\":1825:1858   */\n      tag_122\n      jump\t// in\n    tag_171:\n        /* \"#utility.yul\":1725:1864   */\n      swap3\n      swap2\n      pop\n      pop\n      jump\t// out\n        /* \"#utility.yul\":1870:2199   */\n    tag_26:\n        /* \"#utility.yul\":1929:1935   */\n      0x00\n        /* \"#utility.yul\":1978:1980   */\n      0x20\n        /* \"#utility.yul\":1966:1975   */\n      dup3\n        /* \"#utility.yul\":1957:1964   */\n      dup5\n        /* \"#utility.yul\":1953:1976   */\n      sub\n        /* \"#utility.yul\":1949:1981   */\n      slt\n        /* \"#utility.yul\":1946:2065   */\n      iszero\n      tag_173\n      jumpi\n        /* \"#utility.yul\":1984:2063   */\n      tag_174\n      tag_114\n      jump\t// in\n    tag_174:\n        /* \"#utility.yul\":1946:2065   */\n    tag_173:\n        /* \"#utility.yul\":2104:2105   */\n      0x00\n        /* \"#utility.yul\":2129:2182   */\n      tag_175\n        /* \"#utility.yul\":2174:2181   */\n      dup5\n        /* \"#utility.yul\":2165:2171   */\n      dup3\n        /* \"#utility.yul\":2154:2163   */\n      dup6\n        /* \"#utility.yul\":2150:2172   */\n      add\n        /* \"#utility.yul\":2129:2182   */\n      tag_123\n      jump\t// in\n    tag_175:\n        /* \"#utility.yul\":2119:2182   */\n      swap2\n      pop\n        /* \"#utility.yul\":2075:2192   */\n      pop\n        /* \"#utility.yul\":1870:2199   */\n      swap3\n      swap2\n      pop\n      pop\n      jump\t// out\n        /* \"#utility.yul\":2205:2282   */\n    tag_124:\n        /* \"#utility.yul\":2242:2249   */\n      0x00\n        /* \"#utility.yul\":2271:2276   */\n      dup2\n        /* \"#utility.yul\":2260:2276   */\n      swap1\n      pop\n        /* \"#utility.yul\":2205:2282   */\n      swap2\n      swap1\n      pop\n      jump\t// out\n        /* \"#utility.yul\":2288:2406   */\n    tag_125:\n        /* \"#utility.yul\":2375:2399   */\n      tag_178\n        /* \"#utility.yul\":2393:2398   */\n      dup2\n        /* \"#utility.yul\":2375:2399   */\n      tag_124\n      jump\t// in\n    tag_178:\n        /* \"#utility.yul\":2370:2373   */\n      dup3\n        /* \"#utility.yul\":2363:2400   */\n      mstore\n        /* \"#utility.yul\":2288:2406   */\n      pop\n      pop\n      jump\t// out\n        /* \"#utility.yul\":2412:2634   */\n    tag_29:\n        /* \"#utility.yul\":2505:2509   */\n      0x00\n        /* \"#utility.yul\":2543:2545   */\n      0x20\n        /* \"#utility.yul\":2532:2541   */\n      dup3\n        /* \"#utility.yul\":2528:2546   */\n      add\n        /* \"#utility.yul\":2520:2546   */\n      swap1\n      pop\n        /* \"#utility.yul\":2556:2627   */\n      tag_180\n        /* \"#utility.yul\":2624:2625   */\n      0x00\n        /* \"#utility.yul\":2613:2622   */\n      dup4\n        /* \"#utility.yul\":2609:2626   */\n      add\n        /* \"#utility.yul\":2600:2606   */\n      dup5\n        /* \"#utility.yul\":2556:2627   */\n      tag_125\n      jump\t// in\n    tag_180:\n        /* \"#utility.yul\":2412:2634   */\n      swap3\n      swap2\n      pop\n      pop\n      jump\t// out\n        /* \"#utility.yul\":2640:2758   */\n    tag_126:\n        /* \"#utility.yul\":2727:2751   */\n      tag_182\n        /* \"#utility.yul\":2745:2750   */\n      dup2\n        /* \"#utility.yul\":2727:2751   */\n      tag_121\n      jump\t// in\n    tag_182:\n        /* \"#utility.yul\":2722:2725   */\n      dup3\n        /* \"#utility.yul\":2715:2752   */\n      mstore\n        /* \"#utility.yul\":2640:2758   */\n      pop\n      pop\n      jump\t// out\n        /* \"#utility.yul\":2764:2986   */\n    tag_34:\n        /* \"#utility.yul\":2857:2861   */\n      0x00\n        /* \"#utility.yul\":2895:2897   */\n      0x20\n        /* \"#utility.yul\":2884:2893   */\n      dup3\n        /* \"#utility.yul\":2880:2898   */\n      add\n        /* \"#utility.yul\":2872:2898   */\n      swap1\n      pop\n        /* \"#utility.yul\":2908:2979   */\n      tag_184\n        /* \"#utility.yul\":2976:2977   */\n      0x00\n        /* \"#utility.yul\":2965:2974   */\n      dup4\n        /* \"#utility.yul\":2961:2978   */\n      add\n        /* \"#utility.yul\":2952:2958   */\n      dup5\n        /* \"#utility.yul\":2908:2979   */\n      tag_126\n      jump\t// in\n    tag_184:\n        /* \"#utility.yul\":2764:2986   */\n      swap3\n      swap2\n      pop\n      pop\n      jump\t// out\n        /* \"#utility.yul\":2992:3114   */\n    tag_127:\n        /* \"#utility.yul\":3065:3089   */\n      tag_186\n        /* \"#utility.yul\":3083:3088   */\n      dup2\n        /* \"#utility.yul\":3065:3089   */\n      tag_124\n      jump\t// in\n    tag_186:\n        /* \"#utility.yul\":3058:3063   */\n      dup2\n        /* \"#utility.yul\":3055:3090   */\n      eq\n        /* \"#utility.yul\":3045:3108   */\n      tag_187\n      jumpi\n        /* \"#utility.yul\":3104:3105   */\n      0x00\n        /* \"#utility.yul\":3101:3102   */\n      0x00\n        /* \"#utility.yul\":3094:3106   */\n      revert\n        /* \"#utility.yul\":3045:3108   */\n    tag_187:\n        /* \"#utility.yul\":2992:3114   */\n      pop\n      jump\t// out\n        /* \"#utility.yul\":3120:3259   */\n    tag_128:\n        /* \"#utility.yul\":3166:3171   */\n      0x00\n        /* \"#utility.yul\":3204:3210   */\n      dup2\n        /* \"#utility.yul\":3191:3211   */\n      calldataload\n        /* \"#utility.yul\":3182:3211   */\n      swap1\n      pop\n        /* \"#utility.yul\":3220:3253   */\n      tag_189\n        /* \"#utility.yul\":3247:3252   */\n      dup2\n        /* \"#utility.yul\":3220:3253   */\n      tag_127\n      jump\t// in\n    tag_189:\n        /* \"#utility.yul\":3120:3259   */\n      swap3\n      swap2\n      pop\n      pop\n      jump\t// out\n        /* \"#utility.yul\":3265:3594   */\n    tag_56:\n        /* \"#utility.yul\":3324:3330   */\n      0x00\n        /* \"#utility.yul\":3373:3375   */\n      0x20\n        /* \"#utility.yul\":3361:3370   */\n      dup3\n        /* \"#utility.yul\":3352:3359   */\n      dup5\n        /* \"#utility.yul\":3348:3371   */\n      sub\n        /* \"#utility.yul\":3344:3376   */\n      slt\n        /* \"#utility.yul\":3341:3460   */\n      iszero\n      tag_191\n      jumpi\n        /* \"#utility.yul\":3379:3458   */\n      tag_192\n      tag_114\n      jump\t// in\n    tag_192:\n        /* \"#utility.yul\":3341:3460   */\n    tag_191:\n        /* \"#utility.yul\":3499:3500   */\n      0x00\n        /* \"#utility.yul\":3524:3577   */\n      tag_193\n        /* \"#utility.yul\":3569:3576   */\n      dup5\n        /* \"#utility.yul\":3560:3566   */\n      dup3\n        /* \"#utility.yul\":3549:3558   */\n      dup6\n        /* \"#utility.yul\":3545:3567   */\n      add\n        /* \"#utility.yul\":3524:3577   */\n      tag_128\n      jump\t// in\n    tag_193:\n        /* \"#utility.yul\":3514:3577   */\n      swap2\n      pop\n        /* \"#utility.yul\":3470:3587   */\n      pop\n        /* \"#utility.yul\":3265:3594   */\n      swap3\n      swap2\n      pop\n      pop\n      jump\t// out\n        /* \"#utility.yul\":3600:3780   */\n    tag_129:\n        /* \"#utility.yul\":3648:3725   */\n      0x4e487b7100000000000000000000000000000000000000000000000000000000\n        /* \"#utility.yul\":3645:3646   */\n      0x00\n        /* \"#utility.yul\":3638:3726   */\n      mstore\n        /* \"#utility.yul\":3745:3749   */\n      0x11\n        /* \"#utility.yul\":3742:3743   */\n      0x04\n        /* \"#utility.yul\":3735:3750   */\n      mstore\n        /* \"#utility.yul\":3769:3773   */\n      0x24\n        /* \"#utility.yul\":3766:3767   */\n      0x00\n        /* \"#utility.yul\":3759:3774   */\n      revert\n        /* \"#utility.yul\":3786:4342   */\n    tag_62:\n        /* \"#utility.yul\":3825:3832   */\n      0x00\n        /* \"#utility.yul\":3848:3867   */\n      tag_196\n        /* \"#utility.yul\":3865:3866   */\n      dup3\n        /* \"#utility.yul\":3848:3867   */\n      tag_116\n      jump\t// in\n    tag_196:\n        /* \"#utility.yul\":3843:3867   */\n      swap2\n      pop\n        /* \"#utility.yul\":3881:3900   */\n      tag_197\n        /* \"#utility.yul\":3898:3899   */\n      dup4\n        /* \"#utility.yul\":3881:3900   */\n      tag_116\n      jump\t// in\n    tag_197:\n        /* \"#utility.yul\":3876:3900   */\n      swap3\n      pop\n        /* \"#utility.yul\":3935:3936   */\n      dup3\n        /* \"#utility.yul\":3932:3933   */\n      dup3\n        /* \"#utility.yul\":3928:3937   */\n      mul\n        /* \"#utility.yul\":3957:3986   */\n      tag_198\n        /* \"#utility.yul\":3974:3985   */\n      dup2\n        /* \"#utility.yul\":3957:3986   */\n      tag_116\n      jump\t// in\n    tag_198:\n        /* \"#utility.yul\":3946:3986   */\n      swap2\n      pop\n        /* \"#utility.yul\":4044:4110   */\n      0x8000000000000000000000000000000000000000000000000000000000000000\n        /* \"#utility.yul\":4041:4042   */\n      dup5\n        /* \"#utility.yul\":4038:4111   */\n      eq\n        /* \"#utility.yul\":4034:4035   */\n      0x00\n        /* \"#utility.yul\":4031:4032   */\n      dup5\n        /* \"#utility.yul\":4027:4036   */\n      slt\n        /* \"#utility.yul\":4023:4112   */\n      and\n        /* \"#utility.yul\":4020:4135   */\n      iszero\n      tag_199\n      jumpi\n        /* \"#utility.yul\":4115:4133   */\n      tag_200\n      tag_129\n      jump\t// in\n    tag_200:\n        /* \"#utility.yul\":4020:4135   */\n    tag_199:\n        /* \"#utility.yul\":4285:4286   */\n      dup3\n        /* \"#utility.yul\":4276:4283   */\n      dup3\n        /* \"#utility.yul\":4271:4287   */\n      sdiv\n        /* \"#utility.yul\":4268:4269   */\n      dup5\n        /* \"#utility.yul\":4265:4288   */\n      eq\n        /* \"#utility.yul\":4245:4246   */\n      dup4\n        /* \"#utility.yul\":4238:4247   */\n      iszero\n        /* \"#utility.yul\":4218:4302   */\n      or\n        /* \"#utility.yul\":4195:4335   */\n      tag_201\n      jumpi\n        /* \"#utility.yul\":4315:4333   */\n      tag_202\n      tag_129\n      jump\t// in\n    tag_202:\n        /* \"#utility.yul\":4195:4335   */\n    tag_201:\n        /* \"#utility.yul\":3833:4342   */\n      pop\n        /* \"#utility.yul\":3786:4342   */\n      swap3\n      swap2\n      pop\n      pop\n      jump\t// out\n        /* \"#utility.yul\":4348:4528   */\n    tag_130:\n        /* \"#utility.yul\":4396:4473   */\n      0x4e487b7100000000000000000000000000000000000000000000000000000000\n        /* \"#utility.yul\":4393:4394   */\n      0x00\n        /* \"#utility.yul\":4386:4474   */\n      mstore\n        /* \"#utility.yul\":4493:4497   */\n      0x12\n        /* \"#utility.yul\":4490:4491   */\n      0x04\n        /* \"#utility.yul\":4483:4498   */\n      mstore\n        /* \"#utility.yul\":4517:4521   */\n      0x24\n        /* \"#utility.yul\":4514:4515   */\n      0x00\n        /* \"#utility.yul\":4507:4522   */\n      revert\n        /* \"#utility.yul\":4534:4919   */\n    tag_64:\n        /* \"#utility.yul\":4573:4574   */\n      0x00\n        /* \"#utility.yul\":4590:4609   */\n      tag_205\n        /* \"#utility.yul\":4607:4608   */\n      dup3\n        /* \"#utility.yul\":4590:4609   */\n      tag_116\n      jump\t// in\n    tag_205:\n        /* \"#utility.yul\":4585:4609   */\n      swap2\n      pop\n        /* \"#utility.yul\":4623:4642   */\n      tag_206\n        /* \"#utility.yul\":4640:4641   */\n      dup4\n        /* \"#utility.yul\":4623:4642   */\n      tag_116\n      jump\t// in\n    tag_206:\n        /* \"#utility.yul\":4618:4642   */\n      swap3\n      pop\n        /* \"#utility.yul\":4661:4662   */\n      dup3\n        /* \"#utility.yul\":4651:4686   */\n      tag_207\n      jumpi\n        /* \"#utility.yul\":4666:4684   */\n      tag_208\n      tag_130\n      jump\t// in\n    tag_208:\n        /* \"#utility.yul\":4651:4686   */\n    tag_207:\n        /* \"#utility.yul\":4852:4853   */\n      0x01\n        /* \"#utility.yul\":4849:4850   */\n      0x00\n        /* \"#utility.yul\":4845:4854   */\n      sub\n        /* \"#utility.yul\":4842:4843   */\n      dup4\n        /* \"#utility.yul\":4839:4855   */\n      eq\n        /* \"#utility.yul\":4758:4824   */\n      0x8000000000000000000000000000000000000000000000000000000000000000\n        /* \"#utility.yul\":4755:4756   */\n      dup4\n        /* \"#utility.yul\":4752:4825   */\n      eq\n        /* \"#utility.yul\":4735:4865   */\n      and\n        /* \"#utility.yul\":4732:4888   */\n      iszero\n      tag_209\n      jumpi\n        /* \"#utility.yul\":4868:4886   */\n      tag_210\n      tag_129\n      jump\t// in\n    tag_210:\n        /* \"#utility.yul\":4732:4888   */\n    tag_209:\n        /* \"#utility.yul\":4911:4912   */\n      dup3\n        /* \"#utility.yul\":4908:4909   */\n      dup3\n        /* \"#utility.yul\":4903:4913   */\n      sdiv\n        /* \"#utility.yul\":4898:4913   */\n      swap1\n      pop\n        /* \"#utility.yul\":4534:4919   */\n      swap3\n      swap2\n      pop\n      pop\n      jump\t// out\n        /* \"#utility.yul\":4925:5094   */\n    tag_131:\n        /* \"#utility.yul\":5009:5020   */\n      0x00\n        /* \"#utility.yul\":5043:5049   */\n      dup3\n        /* \"#utility.yul\":5038:5041   */\n      dup3\n        /* \"#utility.yul\":5031:5050   */\n      mstore\n        /* \"#utility.yul\":5083:5087   */\n      0x20\n        /* \"#utility.yul\":5078:5081   */\n      dup3\n        /* \"#utility.yul\":5074:5088   */\n      add\n        /* \"#utility.yul\":5059:5088   */\n      swap1\n      pop\n        /* \"#utility.yul\":4925:5094   */\n      swap3\n      swap2\n      pop\n      pop\n      jump\t// out\n        /* \"#utility.yul\":5100:5273   */\n    tag_132:\n        /* \"#utility.yul\":5240:5265   */\n      0x53656e646572206973206e6f7420746865206f776e6572000000000000000000\n        /* \"#utility.yul\":5236:5237   */\n      0x00\n        /* \"#utility.yul\":5228:5234   */\n      dup3\n        /* \"#utility.yul\":5224:5238   */\n      add\n        /* \"#utility.yul\":5217:5266   */\n      mstore\n        /* \"#utility.yul\":5100:5273   */\n      pop\n      jump\t// out\n        /* \"#utility.yul\":5279:5645   */\n    tag_133:\n        /* \"#utility.yul\":5421:5424   */\n      0x00\n        /* \"#utility.yul\":5442:5509   */\n      tag_214\n        /* \"#utility.yul\":5506:5508   */\n      0x17\n        /* \"#utility.yul\":5501:5504   */\n      dup4\n        /* \"#utility.yul\":5442:5509   */\n      tag_131\n      jump\t// in\n    tag_214:\n        /* \"#utility.yul\":5435:5509   */\n      swap2\n      pop\n        /* \"#utility.yul\":5518:5611   */\n      tag_215\n        /* \"#utility.yul\":5607:5610   */\n      dup3\n        /* \"#utility.yul\":5518:5611   */\n      tag_132\n      jump\t// in\n    tag_215:\n        /* \"#utility.yul\":5636:5638   */\n      0x20\n        /* \"#utility.yul\":5631:5634   */\n      dup3\n        /* \"#utility.yul\":5627:5639   */\n      add\n        /* \"#utility.yul\":5620:5639   */\n      swap1\n      pop\n        /* \"#utility.yul\":5279:5645   */\n      swap2\n      swap1\n      pop\n      jump\t// out\n        /* \"#utility.yul\":5651:6070   */\n    tag_68:\n        /* \"#utility.yul\":5817:5821   */\n      0x00\n        /* \"#utility.yul\":5855:5857   */\n      0x20\n        /* \"#utility.yul\":5844:5853   */\n      dup3\n        /* \"#utility.yul\":5840:5858   */\n      add\n        /* \"#utility.yul\":5832:5858   */\n      swap1\n      pop\n        /* \"#utility.yul\":5904:5913   */\n      dup2\n        /* \"#utility.yul\":5898:5902   */\n      dup2\n        /* \"#utility.yul\":5894:5914   */\n      sub\n        /* \"#utility.yul\":5890:5891   */\n      0x00\n        /* \"#utility.yul\":5879:5888   */\n      dup4\n        /* \"#utility.yul\":5875:5892   */\n      add\n        /* \"#utility.yul\":5868:5915   */\n      mstore\n        /* \"#utility.yul\":5932:6063   */\n      tag_217\n        /* \"#utility.yul\":6058:6062   */\n      dup2\n        /* \"#utility.yul\":5932:6063   */\n      tag_133\n      jump\t// in\n    tag_217:\n        /* \"#utility.yul\":5924:6063   */\n      swap1\n      pop\n        /* \"#utility.yul\":5651:6070   */\n      swap2\n      swap1\n      pop\n      jump\t// out\n        /* \"#utility.yul\":6076:6256   */\n    tag_75:\n        /* \"#utility.yul\":6124:6201   */\n      0x4e487b7100000000000000000000000000000000000000000000000000000000\n        /* \"#utility.yul\":6121:6122   */\n      0x00\n        /* \"#utility.yul\":6114:6202   */\n      mstore\n        /* \"#utility.yul\":6221:6225   */\n      0x32\n        /* \"#utility.yul\":6218:6219   */\n      0x04\n        /* \"#utility.yul\":6211:6226   */\n      mstore\n        /* \"#utility.yul\":6245:6249   */\n      0x24\n        /* \"#utility.yul\":6242:6243   */\n      0x00\n        /* \"#utility.yul\":6235:6250   */\n      revert\n        /* \"#utility.yul\":6262:6442   */\n    tag_79:\n        /* \"#utility.yul\":6310:6387   */\n      0x4e487b7100000000000000000000000000000000000000000000000000000000\n        /* \"#utility.yul\":6307:6308   */\n      0x00\n        /* \"#utility.yul\":6300:6388   */\n      mstore\n        /* \"#utility.yul\":6407:6411   */\n      0x41\n        /* \"#utility.yul\":6404:6405   */\n      0x04\n        /* \"#utility.yul\":6397:6412   */\n      mstore\n        /* \"#utility.yul\":6431:6435   */\n      0x24\n        /* \"#utility.yul\":6428:6429   */\n      0x00\n        /* \"#utility.yul\":6421:6436   */\n      revert\n        /* \"#utility.yul\":6448:6595   */\n    tag_134:\n        /* \"#utility.yul\":6549:6560   */\n      0x00\n        /* \"#utility.yul\":6586:6589   */\n      dup2\n        /* \"#utility.yul\":6571:6589   */\n      swap1\n      pop\n        /* \"#utility.yul\":6448:6595   */\n      swap3\n      swap2\n      pop\n      pop\n      jump\t// out\n        /* \"#utility.yul\":6601:6715   */\n    tag_135:\n      pop\n      jump\t// out\n        /* \"#utility.yul\":6721:7119   */\n    tag_136:\n        /* \"#utility.yul\":6880:6883   */\n      0x00\n        /* \"#utility.yul\":6901:6984   */\n      tag_223\n        /* \"#utility.yul\":6982:6983   */\n      0x00\n        /* \"#utility.yul\":6977:6980   */\n      dup4\n        /* \"#utility.yul\":6901:6984   */\n      tag_134\n      jump\t// in\n    tag_223:\n        /* \"#utility.yul\":6894:6984   */\n      swap2\n      pop\n        /* \"#utility.yul\":6993:7086   */\n      tag_224\n        /* \"#utility.yul\":7082:7085   */\n      dup3\n        /* \"#utility.yul\":6993:7086   */\n      tag_135\n      jump\t// in\n    tag_224:\n        /* \"#utility.yul\":7111:7112   */\n      0x00\n        /* \"#utility.yul\":7106:7109   */\n      dup3\n        /* \"#utility.yul\":7102:7113   */\n      add\n        /* \"#utility.yul\":7095:7113   */\n      swap1\n      pop\n        /* \"#utility.yul\":6721:7119   */\n      swap2\n      swap1\n      pop\n      jump\t// out\n        /* \"#utility.yul\":7125:7504   */\n    tag_84:\n        /* \"#utility.yul\":7309:7312   */\n      0x00\n        /* \"#utility.yul\":7331:7478   */\n      tag_226\n        /* \"#utility.yul\":7474:7477   */\n      dup3\n        /* \"#utility.yul\":7331:7478   */\n      tag_136\n      jump\t// in\n    tag_226:\n        /* \"#utility.yul\":7324:7478   */\n      swap2\n      pop\n        /* \"#utility.yul\":7495:7498   */\n      dup2\n        /* \"#utility.yul\":7488:7498   */\n      swap1\n      pop\n        /* \"#utility.yul\":7125:7504   */\n      swap2\n      swap1\n      pop\n      jump\t// out\n        /* \"#utility.yul\":7510:7671   */\n    tag_137:\n        /* \"#utility.yul\":7650:7663   */\n      0x43616c6c206661696c6564000000000000000000000000000000000000000000\n        /* \"#utility.yul\":7646:7647   */\n      0x00\n        /* \"#utility.yul\":7638:7644   */\n      dup3\n        /* \"#utility.yul\":7634:7648   */\n      add\n        /* \"#utility.yul\":7627:7664   */\n      mstore\n        /* \"#utility.yul\":7510:7671   */\n      pop\n      jump\t// out\n        /* \"#utility.yul\":7677:8043   */\n    tag_138:\n        /* \"#utility.yul\":7819:7822   */\n      0x00\n        /* \"#utility.yul\":7840:7907   */\n      tag_229\n        /* \"#utility.yul\":7904:7906   */\n      0x0b\n        /* \"#utility.yul\":7899:7902   */\n      dup4\n        /* \"#utility.yul\":7840:7907   */\n      tag_131\n      jump\t// in\n    tag_229:\n        /* \"#utility.yul\":7833:7907   */\n      swap2\n      pop\n        /* \"#utility.yul\":7916:8009   */\n      tag_230\n        /* \"#utility.yul\":8005:8008   */\n      dup3\n        /* \"#utility.yul\":7916:8009   */\n      tag_137\n      jump\t// in\n    tag_230:\n        /* \"#utility.yul\":8034:8036   */\n      0x20\n        /* \"#utility.yul\":8029:8032   */\n      dup3\n        /* \"#utility.yul\":8025:8037   */\n      add\n        /* \"#utility.yul\":8018:8037   */\n      swap1\n      pop\n        /* \"#utility.yul\":7677:8043   */\n      swap2\n      swap1\n      pop\n      jump\t// out\n        /* \"#utility.yul\":8049:8468   */\n    tag_90:\n        /* \"#utility.yul\":8215:8219   */\n      0x00\n        /* \"#utility.yul\":8253:8255   */\n      0x20\n        /* \"#utility.yul\":8242:8251   */\n      dup3\n        /* \"#utility.yul\":8238:8256   */\n      add\n        /* \"#utility.yul\":8230:8256   */\n      swap1\n      pop\n        /* \"#utility.yul\":8302:8311   */\n      dup2\n        /* \"#utility.yul\":8296:8300   */\n      dup2\n        /* \"#utility.yul\":8292:8312   */\n      sub\n        /* \"#utility.yul\":8288:8289   */\n      0x00\n        /* \"#utility.yul\":8277:8286   */\n      dup4\n        /* \"#utility.yul\":8273:8290   */\n      add\n        /* \"#utility.yul\":8266:8313   */\n      mstore\n        /* \"#utility.yul\":8330:8461   */\n      tag_232\n        /* \"#utility.yul\":8456:8460   */\n      dup2\n        /* \"#utility.yul\":8330:8461   */\n      tag_138\n      jump\t// in\n    tag_232:\n        /* \"#utility.yul\":8322:8461   */\n      swap1\n      pop\n        /* \"#utility.yul\":8049:8468   */\n      swap2\n      swap1\n      pop\n      jump\t// out\n        /* \"#utility.yul\":8474:8579   */\n    tag_139:\n        /* \"#utility.yul\":8510:8517   */\n      0x00\n        /* \"#utility.yul\":8550:8572   */\n      0xffffffffffffffffffff\n        /* \"#utility.yul\":8543:8548   */\n      dup3\n        /* \"#utility.yul\":8539:8573   */\n      and\n        /* \"#utility.yul\":8528:8573   */\n      swap1\n      pop\n        /* \"#utility.yul\":8474:8579   */\n      swap2\n      swap1\n      pop\n      jump\t// out\n        /* \"#utility.yul\":8585:8705   */\n    tag_140:\n        /* \"#utility.yul\":8657:8680   */\n      tag_235\n        /* \"#utility.yul\":8674:8679   */\n      dup2\n        /* \"#utility.yul\":8657:8680   */\n      tag_139\n      jump\t// in\n    tag_235:\n        /* \"#utility.yul\":8650:8655   */\n      dup2\n        /* \"#utility.yul\":8647:8681   */\n      eq\n        /* \"#utility.yul\":8637:8699   */\n      tag_236\n      jumpi\n        /* \"#utility.yul\":8695:8696   */\n      0x00\n        /* \"#utility.yul\":8692:8693   */\n      0x00\n        /* \"#utility.yul\":8685:8697   */\n      revert\n        /* \"#utility.yul\":8637:8699   */\n    tag_236:\n        /* \"#utility.yul\":8585:8705   */\n      pop\n      jump\t// out\n        /* \"#utility.yul\":8711:8852   */\n    tag_141:\n        /* \"#utility.yul\":8767:8772   */\n      0x00\n        /* \"#utility.yul\":8798:8804   */\n      dup2\n        /* \"#utility.yul\":8792:8805   */\n      mload\n        /* \"#utility.yul\":8783:8805   */\n      swap1\n      pop\n        /* \"#utility.yul\":8814:8846   */\n      tag_238\n        /* \"#utility.yul\":8840:8845   */\n      dup2\n        /* \"#utility.yul\":8814:8846   */\n      tag_140\n      jump\t// in\n    tag_238:\n        /* \"#utility.yul\":8711:8852   */\n      swap3\n      swap2\n      pop\n      pop\n      jump\t// out\n        /* \"#utility.yul\":8858:8999   */\n    tag_142:\n        /* \"#utility.yul\":8914:8919   */\n      0x00\n        /* \"#utility.yul\":8945:8951   */\n      dup2\n        /* \"#utility.yul\":8939:8952   */\n      mload\n        /* \"#utility.yul\":8930:8952   */\n      swap1\n      pop\n        /* \"#utility.yul\":8961:8993   */\n      tag_240\n        /* \"#utility.yul\":8987:8992   */\n      dup2\n        /* \"#utility.yul\":8961:8993   */\n      tag_117\n      jump\t// in\n    tag_240:\n        /* \"#utility.yul\":8858:8999   */\n      swap3\n      swap2\n      pop\n      pop\n      jump\t// out\n        /* \"#utility.yul\":9005:9148   */\n    tag_143:\n        /* \"#utility.yul\":9062:9067   */\n      0x00\n        /* \"#utility.yul\":9093:9099   */\n      dup2\n        /* \"#utility.yul\":9087:9100   */\n      mload\n        /* \"#utility.yul\":9078:9100   */\n      swap1\n      pop\n        /* \"#utility.yul\":9109:9142   */\n      tag_242\n        /* \"#utility.yul\":9136:9141   */\n      dup2\n        /* \"#utility.yul\":9109:9142   */\n      tag_127\n      jump\t// in\n    tag_242:\n        /* \"#utility.yul\":9005:9148   */\n      swap3\n      swap2\n      pop\n      pop\n      jump\t// out\n        /* \"#utility.yul\":9154:10125   */\n    tag_95:\n        /* \"#utility.yul\":9257:9263   */\n      0x00\n        /* \"#utility.yul\":9265:9271   */\n      0x00\n        /* \"#utility.yul\":9273:9279   */\n      0x00\n        /* \"#utility.yul\":9281:9287   */\n      0x00\n        /* \"#utility.yul\":9289:9295   */\n      0x00\n        /* \"#utility.yul\":9338:9341   */\n      0xa0\n        /* \"#utility.yul\":9326:9335   */\n      dup7\n        /* \"#utility.yul\":9317:9324   */\n      dup9\n        /* \"#utility.yul\":9313:9336   */\n      sub\n        /* \"#utility.yul\":9309:9342   */\n      slt\n        /* \"#utility.yul\":9306:9426   */\n      iszero\n      tag_244\n      jumpi\n        /* \"#utility.yul\":9345:9424   */\n      tag_245\n      tag_114\n      jump\t// in\n    tag_245:\n        /* \"#utility.yul\":9306:9426   */\n    tag_244:\n        /* \"#utility.yul\":9465:9466   */\n      0x00\n        /* \"#utility.yul\":9490:9553   */\n      tag_246\n        /* \"#utility.yul\":9545:9552   */\n      dup9\n        /* \"#utility.yul\":9536:9542   */\n      dup3\n        /* \"#utility.yul\":9525:9534   */\n      dup10\n        /* \"#utility.yul\":9521:9543   */\n      add\n        /* \"#utility.yul\":9490:9553   */\n      tag_141\n      jump\t// in\n    tag_246:\n        /* \"#utility.yul\":9480:9553   */\n      swap6\n      pop\n        /* \"#utility.yul\":9436:9563   */\n      pop\n        /* \"#utility.yul\":9602:9604   */\n      0x20\n        /* \"#utility.yul\":9628:9691   */\n      tag_247\n        /* \"#utility.yul\":9683:9690   */\n      dup9\n        /* \"#utility.yul\":9674:9680   */\n      dup3\n        /* \"#utility.yul\":9663:9672   */\n      dup10\n        /* \"#utility.yul\":9659:9681   */\n      add\n        /* \"#utility.yul\":9628:9691   */\n      tag_142\n      jump\t// in\n    tag_247:\n        /* \"#utility.yul\":9618:9691   */\n      swap5\n      pop\n        /* \"#utility.yul\":9573:9701   */\n      pop\n        /* \"#utility.yul\":9740:9742   */\n      0x40\n        /* \"#utility.yul\":9766:9830   */\n      tag_248\n        /* \"#utility.yul\":9822:9829   */\n      dup9\n        /* \"#utility.yul\":9813:9819   */\n      dup3\n        /* \"#utility.yul\":9802:9811   */\n      dup10\n        /* \"#utility.yul\":9798:9820   */\n      add\n        /* \"#utility.yul\":9766:9830   */\n      tag_143\n      jump\t// in\n    tag_248:\n        /* \"#utility.yul\":9756:9830   */\n      swap4\n      pop\n        /* \"#utility.yul\":9711:9840   */\n      pop\n        /* \"#utility.yul\":9879:9881   */\n      0x60\n        /* \"#utility.yul\":9905:9969   */\n      tag_249\n        /* \"#utility.yul\":9961:9968   */\n      dup9\n        /* \"#utility.yul\":9952:9958   */\n      dup3\n        /* \"#utility.yul\":9941:9950   */\n      dup10\n        /* \"#utility.yul\":9937:9959   */\n      add\n        /* \"#utility.yul\":9905:9969   */\n      tag_143\n      jump\t// in\n    tag_249:\n        /* \"#utility.yul\":9895:9969   */\n      swap3\n      pop\n        /* \"#utility.yul\":9850:9979   */\n      pop\n        /* \"#utility.yul\":10018:10021   */\n      0x80\n        /* \"#utility.yul\":10045:10108   */\n      tag_250\n        /* \"#utility.yul\":10100:10107   */\n      dup9\n        /* \"#utility.yul\":10091:10097   */\n      dup3\n        /* \"#utility.yul\":10080:10089   */\n      dup10\n        /* \"#utility.yul\":10076:10098   */\n      add\n        /* \"#utility.yul\":10045:10108   */\n      tag_141\n      jump\t// in\n    tag_250:\n        /* \"#utility.yul\":10035:10108   */\n      swap2\n      pop\n        /* \"#utility.yul\":9989:10118   */\n      pop\n        /* \"#utility.yul\":9154:10125   */\n      swap3\n      swap6\n      pop\n      swap3\n      swap6\n      swap1\n      swap4\n      pop\n      jump\t// out\n        /* \"#utility.yul\":10131:10297   */\n    tag_144:\n        /* \"#utility.yul\":10271:10289   */\n      0x4e6f7420656e6f756768204d6f6e657900000000000000000000000000000000\n        /* \"#utility.yul\":10267:10268   */\n      0x00\n        /* \"#utility.yul\":10259:10265   */\n      dup3\n        /* \"#utility.yul\":10255:10269   */\n      add\n        /* \"#utility.yul\":10248:10290   */\n      mstore\n        /* \"#utility.yul\":10131:10297   */\n      pop\n      jump\t// out\n        /* \"#utility.yul\":10303:10669   */\n    tag_145:\n        /* \"#utility.yul\":10445:10448   */\n      0x00\n        /* \"#utility.yul\":10466:10533   */\n      tag_253\n        /* \"#utility.yul\":10530:10532   */\n      0x10\n        /* \"#utility.yul\":10525:10528   */\n      dup4\n        /* \"#utility.yul\":10466:10533   */\n      tag_131\n      jump\t// in\n    tag_253:\n        /* \"#utility.yul\":10459:10533   */\n      swap2\n      pop\n        /* \"#utility.yul\":10542:10635   */\n      tag_254\n        /* \"#utility.yul\":10631:10634   */\n      dup3\n        /* \"#utility.yul\":10542:10635   */\n      tag_144\n      jump\t// in\n    tag_254:\n        /* \"#utility.yul\":10660:10662   */\n      0x20\n        /* \"#utility.yul\":10655:10658   */\n      dup3\n        /* \"#utility.yul\":10651:10663   */\n      add\n        /* \"#utility.yul\":10644:10663   */\n      swap1\n      pop\n        /* \"#utility.yul\":10303:10669   */\n      swap2\n      swap1\n      pop\n      jump\t// out\n        /* \"#utility.yul\":10675:11094   */\n    tag_100:\n        /* \"#utility.yul\":10841:10845   */\n      0x00\n        /* \"#utility.yul\":10879:10881   */\n      0x20\n        /* \"#utility.yul\":10868:10877   */\n      dup3\n        /* \"#utility.yul\":10864:10882   */\n      add\n        /* \"#utility.yul\":10856:10882   */\n      swap1\n      pop\n        /* \"#utility.yul\":10928:10937   */\n      dup2\n        /* \"#utility.yul\":10922:10926   */\n      dup2\n        /* \"#utility.yul\":10918:10938   */\n      sub\n        /* \"#utility.yul\":10914:10915   */\n      0x00\n        /* \"#utility.yul\":10903:10912   */\n      dup4\n        /* \"#utility.yul\":10899:10916   */\n      add\n        /* \"#utility.yul\":10892:10939   */\n      mstore\n        /* \"#utility.yul\":10956:11087   */\n      tag_256\n        /* \"#utility.yul\":11082:11086   */\n      dup2\n        /* \"#utility.yul\":10956:11087   */\n      tag_145\n      jump\t// in\n    tag_256:\n        /* \"#utility.yul\":10948:11087   */\n      swap1\n      pop\n        /* \"#utility.yul\":10675:11094   */\n      swap2\n      swap1\n      pop\n      jump\t// out\n        /* \"#utility.yul\":11100:11291   */\n    tag_103:\n        /* \"#utility.yul\":11140:11143   */\n      0x00\n        /* \"#utility.yul\":11159:11179   */\n      tag_258\n        /* \"#utility.yul\":11177:11178   */\n      dup3\n        /* \"#utility.yul\":11159:11179   */\n      tag_124\n      jump\t// in\n    tag_258:\n        /* \"#utility.yul\":11154:11179   */\n      swap2\n      pop\n        /* \"#utility.yul\":11193:11213   */\n      tag_259\n        /* \"#utility.yul\":11211:11212   */\n      dup4\n        /* \"#utility.yul\":11193:11213   */\n      tag_124\n      jump\t// in\n    tag_259:\n        /* \"#utility.yul\":11188:11213   */\n      swap3\n      pop\n        /* \"#utility.yul\":11236:11237   */\n      dup3\n        /* \"#utility.yul\":11233:11234   */\n      dup3\n        /* \"#utility.yul\":11229:11238   */\n      add\n        /* \"#utility.yul\":11222:11238   */\n      swap1\n      pop\n        /* \"#utility.yul\":11257:11260   */\n      dup1\n        /* \"#utility.yul\":11254:11255   */\n      dup3\n        /* \"#utility.yul\":11251:11261   */\n      gt\n        /* \"#utility.yul\":11248:11284   */\n      iszero\n      tag_260\n      jumpi\n        /* \"#utility.yul\":11264:11282   */\n      tag_261\n      tag_129\n      jump\t// in\n    tag_261:\n        /* \"#utility.yul\":11248:11284   */\n    tag_260:\n        /* \"#utility.yul\":11100:11291   */\n      swap3\n      swap2\n      pop\n      pop\n      jump\t// out\n\n    auxdata: 0xa2646970667358221220f9767af3062b5f164bb01ab969e67e1d4729fe4a47bb3754ce9844792842e66164736f6c634300081e0033\n}\n",
				"bytecode": {
					"linkReferences": {},
					"object": "608060405273694aa1769357215de4fac081bf1f309adc3253065f5f6101000a81548173ffffffffffffffffffffffffffffffffffffffff021916908373ffffffffffffffffffffffffffffffffffffffff160217905550731b44f3514812d835eb1bdb0acb33d3fa3351ee4360015f6101000a81548173ffffffffffffffffffffffffffffffffffffffff021916908373ffffffffffffffffffffffffffffffffffffffff16021790555066071afd498d00006002553480156100c1575f5ffd5b505f5f9054906101000a900473ffffffffffffffffffffffffffffffffffffffff1660065f6101000a81548173ffffffffffffffffffffffffffffffffffffffff021916908373ffffffffffffffffffffffffffffffffffffffff160217905550610e078061012f5f395ff3fe608060405260043610610090575f3560e01c80638da5cb5b116100585780638da5cb5b1461017657806391b7655f146101a057806398d5fdca146101ca578063b60d4288146101f4578063dc0d3dff146101fe57610090565b8063325df6e2146100945780633ccfd60b146100d05780633e47d6f3146100e65780635669a1b9146101225780635a9602161461014c575b5f5ffd5b34801561009f575f5ffd5b506100ba60048036038101906100b5919061081f565b61023a565b6040516100c79190610859565b60405180910390f35b3480156100db575f5ffd5b506100e4610272565b005b3480156100f1575f5ffd5b5061010c600480360381019061010791906108cc565b6104ad565b604051610119919061090f565b60405180910390f35b34801561012d575f5ffd5b506101366104c2565b6040516101439190610937565b60405180910390f35b348015610157575f5ffd5b506101606104e7565b60405161016d9190610937565b60405180910390f35b348015610181575f5ffd5b5061018a61050b565b6040516101979190610937565b60405180910390f35b3480156101ab575f5ffd5b506101b4610530565b6040516101c19190610859565b60405180910390f35b3480156101d5575f5ffd5b506101de610536565b6040516101eb9190610859565b60405180910390f35b6101fc6105d3565b005b348015610209575f5ffd5b50610224600480360381019061021f919061097a565b61070b565b6040516102319190610937565b60405180910390f35b5f5f610244610536565b90505f670de0b6b3a7640000848361025c91906109d2565b6102669190610a75565b90508092505050919050565b60045f9054906101000a900473ffffffffffffffffffffffffffffffffffffffff1673ffffffffffffffffffffffffffffffffffffffff163373ffffffffffffffffffffffffffffffffffffffff1614610301576040517f08c379a00000000000000000000000000000000000000000000000000000000081526004016102f890610b37565b60405180910390fd5b5f5f90505b6003805490508110156103a2575f6003828154811061032857610327610b55565b5b905f5260205f20015f9054906101000a900473ffffffffffffffffffffffffffffffffffffffff1690505f60055f8373ffffffffffffffffffffffffffffffffffffffff1673ffffffffffffffffffffffffffffffffffffffff1681526020019081526020015f2081905550508080600101915050610306565b505f67ffffffffffffffff8111156103bd576103bc610b82565b5b6040519080825280602002602001820160405280156103eb5781602001602082028036833780820191505090505b5060039080519060200190610401929190610746565b505f3373ffffffffffffffffffffffffffffffffffffffff164760405161042790610bdc565b5f6040518083038185875af1925050503d805f8114610461576040519150601f19603f3d011682016040523d82523d5f602084013e610466565b606091505b50509050806104aa576040517f08c379a00000000000000000000000000000000000000000000000000000000081526004016104a190610c3a565b60405180910390fd5b50565b6005602052805f5260405f205f915090505481565b60015f9054906101000a900473ffffffffffffffffffffffffffffffffffffffff1681565b5f5f9054906101000a900473ffffffffffffffffffffffffffffffffffffffff1681565b60045f9054906101000a900473ffffffffffffffffffffffffffffffffffffffff1681565b60025481565b5f5f60065f9054906101000a900473ffffffffffffffffffffffffffffffffffffffff1673ffffffffffffffffffffffffffffffffffffffff1663feaf968c6040518163ffffffff1660e01b815260040160a060405180830381865afa1580156105a2573d5f5f3e3d5ffd5b505050506040513d601f19601f820116820180604052508101906105c69190610cbf565b5050509150508091505090565b6002546105df3461023a565b1361061f576040517f08c379a000000000000000000000000000000000000000000000000000000000815260040161061690610d80565b60405180910390fd5b600333908060018154018082558091505060019003905f5260205f20015f9091909190916101000a81548173ffffffffffffffffffffffffffffffffffffffff021916908373ffffffffffffffffffffffffffffffffffffffff1602179055503460055f3373ffffffffffffffffffffffffffffffffffffffff1673ffffffffffffffffffffffffffffffffffffffff1681526020019081526020015f20546106c89190610d9e565b60055f3373ffffffffffffffffffffffffffffffffffffffff1673ffffffffffffffffffffffffffffffffffffffff1681526020019081526020015f2081905550565b6003818154811061071a575f80fd5b905f5260205f20015f915054906101000a900473ffffffffffffffffffffffffffffffffffffffff1681565b828054828255905f5260205f209081019282156107bc579160200282015b828111156107bb578251825f6101000a81548173ffffffffffffffffffffffffffffffffffffffff021916908373ffffffffffffffffffffffffffffffffffffffff16021790555091602001919060010190610764565b5b5090506107c991906107cd565b5090565b5b808211156107e4575f815f9055506001016107ce565b5090565b5f5ffd5b5f819050919050565b6107fe816107ec565b8114610808575f5ffd5b50565b5f81359050610819816107f5565b92915050565b5f60208284031215610834576108336107e8565b5b5f6108418482850161080b565b91505092915050565b610853816107ec565b82525050565b5f60208201905061086c5f83018461084a565b92915050565b5f73ffffffffffffffffffffffffffffffffffffffff82169050919050565b5f61089b82610872565b9050919050565b6108ab81610891565b81146108b5575f5ffd5b50565b5f813590506108c6816108a2565b92915050565b5f602082840312156108e1576108e06107e8565b5b5f6108ee848285016108b8565b91505092915050565b5f819050919050565b610909816108f7565b82525050565b5f6020820190506109225f830184610900565b92915050565b61093181610891565b82525050565b5f60208201905061094a5f830184610928565b92915050565b610959816108f7565b8114610963575f5ffd5b50565b5f8135905061097481610950565b92915050565b5f6020828403121561098f5761098e6107e8565b5b5f61099c84828501610966565b91505092915050565b7f4e487b71000000000000000000000000000000000000000000000000000000005f52601160045260245ffd5b5f6109dc826107ec565b91506109e7836107ec565b92508282026109f5816107ec565b91507f800000000000000000000000000000000000000000000000000000000000000084145f84121615610a2c57610a2b6109a5565b5b8282058414831517610a4157610a406109a5565b5b5092915050565b7f4e487b71000000000000000000000000000000000000000000000000000000005f52601260045260245ffd5b5f610a7f826107ec565b9150610a8a836107ec565b925082610a9a57610a99610a48565b5b60015f0383147f800000000000000000000000000000000000000000000000000000000000000083141615610ad257610ad16109a5565b5b828205905092915050565b5f82825260208201905092915050565b7f53656e646572206973206e6f7420746865206f776e65720000000000000000005f82015250565b5f610b21601783610add565b9150610b2c82610aed565b602082019050919050565b5f6020820190508181035f830152610b4e81610b15565b9050919050565b7f4e487b71000000000000000000000000000000000000000000000000000000005f52603260045260245ffd5b7f4e487b71000000000000000000000000000000000000000000000000000000005f52604160045260245ffd5b5f81905092915050565b50565b5f610bc75f83610baf565b9150610bd282610bb9565b5f82019050919050565b5f610be682610bbc565b9150819050919050565b7f43616c6c206661696c65640000000000000000000000000000000000000000005f82015250565b5f610c24600b83610add565b9150610c2f82610bf0565b602082019050919050565b5f6020820190508181035f830152610c5181610c18565b9050919050565b5f69ffffffffffffffffffff82169050919050565b610c7681610c58565b8114610c80575f5ffd5b50565b5f81519050610c9181610c6d565b92915050565b5f81519050610ca5816107f5565b92915050565b5f81519050610cb981610950565b92915050565b5f5f5f5f5f60a08688031215610cd857610cd76107e8565b5b5f610ce588828901610c83565b9550506020610cf688828901610c97565b9450506040610d0788828901610cab565b9350506060610d1888828901610cab565b9250506080610d2988828901610c83565b9150509295509295909350565b7f4e6f7420656e6f756768204d6f6e6579000000000000000000000000000000005f82015250565b5f610d6a601083610add565b9150610d7582610d36565b602082019050919050565b5f6020820190508181035f830152610d9781610d5e565b9050919050565b5f610da8826108f7565b9150610db3836108f7565b9250828201905080821115610dcb57610dca6109a5565b5b9291505056fea2646970667358221220f9767af3062b5f164bb01ab969e67e1d4729fe4a47bb3754ce9844792842e66164736f6c634300081e0033",
					"opcodes": "PUSH1 0x80 PUSH1 0x40 MSTORE PUSH20 0x694AA1769357215DE4FAC081BF1F309ADC325306 PUSH0 PUSH0 PUSH2 0x100 EXP DUP2 SLOAD DUP2 PUSH20 0xFFFFFFFFFFFFFFFFFFFFFFFFFFFFFFFFFFFFFFFF MUL NOT AND SWAP1 DUP4 PUSH20 0xFFFFFFFFFFFFFFFFFFFFFFFFFFFFFFFFFFFFFFFF AND MUL OR SWAP1 SSTORE POP PUSH20 0x1B44F3514812D835EB1BDB0ACB33D3FA3351EE43 PUSH1 0x1 PUSH0 PUSH2 0x100 EXP DUP2 SLOAD DUP2 PUSH20 0xFFFFFFFFFFFFFFFFFFFFFFFFFFFFFFFFFFFFFFFF MUL NOT AND SWAP1 DUP4 PUSH20 0xFFFFFFFFFFFFFFFFFFFFFFFFFFFFFFFFFFFFFFFF AND MUL OR SWAP1 SSTORE POP PUSH7 0x71AFD498D0000 PUSH1 0x2 SSTORE CALLVALUE DUP1 ISZERO PUSH2 0xC1 JUMPI PUSH0 PUSH0 REVERT JUMPDEST POP PUSH0 PUSH0 SWAP1 SLOAD SWAP1 PUSH2 0x100 EXP SWAP1 DIV PUSH20 0xFFFFFFFFFFFFFFFFFFFFFFFFFFFFFFFFFFFFFFFF AND PUSH1 0x6 PUSH0 PUSH2 0x100 EXP DUP2 SLOAD DUP2 PUSH20 0xFFFFFFFFFFFFFFFFFFFFFFFFFFFFFFFFFFFFFFFF MUL NOT AND SWAP1 DUP4 PUSH20 0xFFFFFFFFFFFFFFFFFFFFFFFFFFFFFFFFFFFFFFFF AND MUL OR SWAP1 SSTORE POP PUSH2 0xE07 DUP1 PUSH2 0x12F PUSH0 CODECOPY PUSH0 RETURN INVALID PUSH1 0x80 PUSH1 0x40 MSTORE PUSH1 0x4 CALLDATASIZE LT PUSH2 0x90 JUMPI PUSH0 CALLDATALOAD PUSH1 0xE0 SHR DUP1 PUSH4 0x8DA5CB5B GT PUSH2 0x58 JUMPI DUP1 PUSH4 0x8DA5CB5B EQ PUSH2 0x176 JUMPI DUP1 PUSH4 0x91B7655F EQ PUSH2 0x1A0 JUMPI DUP1 PUSH4 0x98D5FDCA EQ PUSH2 0x1CA JUMPI DUP1 PUSH4 0xB60D4288 EQ PUSH2 0x1F4 JUMPI DUP1 PUSH4 0xDC0D3DFF EQ PUSH2 0x1FE JUMPI PUSH2 0x90 JUMP JUMPDEST DUP1 PUSH4 0x325DF6E2 EQ PUSH2 0x94 JUMPI DUP1 PUSH4 0x3CCFD60B EQ PUSH2 0xD0 JUMPI DUP1 PUSH4 0x3E47D6F3 EQ PUSH2 0xE6 JUMPI DUP1 PUSH4 0x5669A1B9 EQ PUSH2 0x122 JUMPI DUP1 PUSH4 0x5A960216 EQ PUSH2 0x14C JUMPI JUMPDEST PUSH0 PUSH0 REVERT JUMPDEST CALLVALUE DUP1 ISZERO PUSH2 0x9F JUMPI PUSH0 PUSH0 REVERT JUMPDEST POP PUSH2 0xBA PUSH1 0x4 DUP1 CALLDATASIZE SUB DUP2 ADD SWAP1 PUSH2 0xB5 SWAP2 SWAP1 PUSH2 0x81F JUMP JUMPDEST PUSH2 0x23A JUMP JUMPDEST PUSH1 0x40 MLOAD PUSH2 0xC7 SWAP2 SWAP1 PUSH2 0x859 JUMP JUMPDEST PUSH1 0x40 MLOAD DUP1 SWAP2 SUB SWAP1 RETURN JUMPDEST CALLVALUE DUP1 ISZERO PUSH2 0xDB JUMPI PUSH0 PUSH0 REVERT JUMPDEST POP PUSH2 0xE4 PUSH2 0x272 JUMP JUMPDEST STOP JUMPDEST CALLVALUE DUP1 ISZERO PUSH2 0xF1 JUMPI PUSH0 PUSH0 REVERT JUMPDEST POP PUSH2 0x10C PUSH1 0x4 DUP1 CALLDATASIZE SUB DUP2 ADD SWAP1 PUSH2 0x107 SWAP2 SWAP1 PUSH2 0x8CC JUMP JUMPDEST PUSH2 0x4AD JUMP JUMPDEST PUSH1 0x40 MLOAD PUSH2 0x119 SWAP2 SWAP1 PUSH2 0x90F JUMP JUMPDEST PUSH1 0x40 MLOAD DUP1 SWAP2 SUB SWAP1 RETURN JUMPDEST CALLVALUE DUP1 ISZERO PUSH2 0x12D JUMPI PUSH0 PUSH0 REVERT JUMPDEST POP PUSH2 0x136 PUSH2 0x4C2 JUMP JUMPDEST PUSH1 0x40 MLOAD PUSH2 0x143 SWAP2 SWAP1 PUSH2 0x937 JUMP JUMPDEST PUSH1 0x40 MLOAD DUP1 SWAP2 SUB SWAP1 RETURN JUMPDEST CALLVALUE DUP1 ISZERO PUSH2 0x157 JUMPI PUSH0 PUSH0 REVERT JUMPDEST POP PUSH2 0x160 PUSH2 0x4E7 JUMP JUMPDEST PUSH1 0x40 MLOAD PUSH2 0x16D SWAP2 SWAP1 PUSH2 0x937 JUMP JUMPDEST PUSH1 0x40 MLOAD DUP1 SWAP2 SUB SWAP1 RETURN JUMPDEST CALLVALUE DUP1 ISZERO PUSH2 0x181 JUMPI PUSH0 PUSH0 REVERT JUMPDEST POP PUSH2 0x18A PUSH2 0x50B JUMP JUMPDEST PUSH1 0x40 MLOAD PUSH2 0x197 SWAP2 SWAP1 PUSH2 0x937 JUMP JUMPDEST PUSH1 0x40 MLOAD DUP1 SWAP2 SUB SWAP1 RETURN JUMPDEST CALLVALUE DUP1 ISZERO PUSH2 0x1AB JUMPI PUSH0 PUSH0 REVERT JUMPDEST POP PUSH2 0x1B4 PUSH2 0x530 JUMP JUMPDEST PUSH1 0x40 MLOAD PUSH2 0x1C1 SWAP2 SWAP1 PUSH2 0x859 JUMP JUMPDEST PUSH1 0x40 MLOAD DUP1 SWAP2 SUB SWAP1 RETURN JUMPDEST CALLVALUE DUP1 ISZERO PUSH2 0x1D5 JUMPI PUSH0 PUSH0 REVERT JUMPDEST POP PUSH2 0x1DE PUSH2 0x536 JUMP JUMPDEST PUSH1 0x40 MLOAD PUSH2 0x1EB SWAP2 SWAP1 PUSH2 0x859 JUMP JUMPDEST PUSH1 0x40 MLOAD DUP1 SWAP2 SUB SWAP1 RETURN JUMPDEST PUSH2 0x1FC PUSH2 0x5D3 JUMP JUMPDEST STOP JUMPDEST CALLVALUE DUP1 ISZERO PUSH2 0x209 JUMPI PUSH0 PUSH0 REVERT JUMPDEST POP PUSH2 0x224 PUSH1 0x4 DUP1 CALLDATASIZE SUB DUP2 ADD SWAP1 PUSH2 0x21F SWAP2 SWAP1 PUSH2 0x97A JUMP JUMPDEST PUSH2 0x70B JUMP JUMPDEST PUSH1 0x40 MLOAD PUSH2 0x231 SWAP2 SWAP1 PUSH2 0x937 JUMP JUMPDEST PUSH1 0x40 MLOAD DUP1 SWAP2 SUB SWAP1 RETURN JUMPDEST PUSH0 PUSH0 PUSH2 0x244 PUSH2 0x536 JUMP JUMPDEST SWAP1 POP PUSH0 PUSH8 0xDE0B6B3A7640000 DUP5 DUP4 PUSH2 0x25C SWAP2 SWAP1 PUSH2 0x9D2 JUMP JUMPDEST PUSH2 0x266 SWAP2 SWAP1 PUSH2 0xA75 JUMP JUMPDEST SWAP1 POP DUP1 SWAP3 POP POP POP SWAP2 SWAP1 POP JUMP JUMPDEST PUSH1 0x4 PUSH0 SWAP1 SLOAD SWAP1 PUSH2 0x100 EXP SWAP1 DIV PUSH20 0xFFFFFFFFFFFFFFFFFFFFFFFFFFFFFFFFFFFFFFFF AND PUSH20 0xFFFFFFFFFFFFFFFFFFFFFFFFFFFFFFFFFFFFFFFF AND CALLER PUSH20 0xFFFFFFFFFFFFFFFFFFFFFFFFFFFFFFFFFFFFFFFF AND EQ PUSH2 0x301 JUMPI PUSH1 0x40 MLOAD PUSH32 0x8C379A000000000000000000000000000000000000000000000000000000000 DUP2 MSTORE PUSH1 0x4 ADD PUSH2 0x2F8 SWAP1 PUSH2 0xB37 JUMP JUMPDEST PUSH1 0x40 MLOAD DUP1 SWAP2 SUB SWAP1 REVERT JUMPDEST PUSH0 PUSH0 SWAP1 POP JUMPDEST PUSH1 0x3 DUP1 SLOAD SWAP1 POP DUP2 LT ISZERO PUSH2 0x3A2 JUMPI PUSH0 PUSH1 0x3 DUP3 DUP2 SLOAD DUP2 LT PUSH2 0x328 JUMPI PUSH2 0x327 PUSH2 0xB55 JUMP JUMPDEST JUMPDEST SWAP1 PUSH0 MSTORE PUSH1 0x20 PUSH0 KECCAK256 ADD PUSH0 SWAP1 SLOAD SWAP1 PUSH2 0x100 EXP SWAP1 DIV PUSH20 0xFFFFFFFFFFFFFFFFFFFFFFFFFFFFFFFFFFFFFFFF AND SWAP1 POP PUSH0 PUSH1 0x5 PUSH0 DUP4 PUSH20 0xFFFFFFFFFFFFFFFFFFFFFFFFFFFFFFFFFFFFFFFF AND PUSH20 0xFFFFFFFFFFFFFFFFFFFFFFFFFFFFFFFFFFFFFFFF AND DUP2 MSTORE PUSH1 0x20 ADD SWAP1 DUP2 MSTORE PUSH1 0x20 ADD PUSH0 KECCAK256 DUP2 SWAP1 SSTORE POP POP DUP1 DUP1 PUSH1 0x1 ADD SWAP2 POP POP PUSH2 0x306 JUMP JUMPDEST POP PUSH0 PUSH8 0xFFFFFFFFFFFFFFFF DUP2 GT ISZERO PUSH2 0x3BD JUMPI PUSH2 0x3BC PUSH2 0xB82 JUMP JUMPDEST JUMPDEST PUSH1 0x40 MLOAD SWAP1 DUP1 DUP3 MSTORE DUP1 PUSH1 0x20 MUL PUSH1 0x20 ADD DUP3 ADD PUSH1 0x40 MSTORE DUP1 ISZERO PUSH2 0x3EB JUMPI DUP2 PUSH1 0x20 ADD PUSH1 0x20 DUP3 MUL DUP1 CALLDATASIZE DUP4 CALLDATACOPY DUP1 DUP3 ADD SWAP2 POP POP SWAP1 POP JUMPDEST POP PUSH1 0x3 SWAP1 DUP1 MLOAD SWAP1 PUSH1 0x20 ADD SWAP1 PUSH2 0x401 SWAP3 SWAP2 SWAP1 PUSH2 0x746 JUMP JUMPDEST POP PUSH0 CALLER PUSH20 0xFFFFFFFFFFFFFFFFFFFFFFFFFFFFFFFFFFFFFFFF AND SELFBALANCE PUSH1 0x40 MLOAD PUSH2 0x427 SWAP1 PUSH2 0xBDC JUMP JUMPDEST PUSH0 PUSH1 0x40 MLOAD DUP1 DUP4 SUB DUP2 DUP6 DUP8 GAS CALL SWAP3 POP POP POP RETURNDATASIZE DUP1 PUSH0 DUP2 EQ PUSH2 0x461 JUMPI PUSH1 0x40 MLOAD SWAP2 POP PUSH1 0x1F NOT PUSH1 0x3F RETURNDATASIZE ADD AND DUP3 ADD PUSH1 0x40 MSTORE RETURNDATASIZE DUP3 MSTORE RETURNDATASIZE PUSH0 PUSH1 0x20 DUP5 ADD RETURNDATACOPY PUSH2 0x466 JUMP JUMPDEST PUSH1 0x60 SWAP2 POP JUMPDEST POP POP SWAP1 POP DUP1 PUSH2 0x4AA JUMPI PUSH1 0x40 MLOAD PUSH32 0x8C379A000000000000000000000000000000000000000000000000000000000 DUP2 MSTORE PUSH1 0x4 ADD PUSH2 0x4A1 SWAP1 PUSH2 0xC3A JUMP JUMPDEST PUSH1 0x40 MLOAD DUP1 SWAP2 SUB SWAP1 REVERT JUMPDEST POP JUMP JUMPDEST PUSH1 0x5 PUSH1 0x20 MSTORE DUP1 PUSH0 MSTORE PUSH1 0x40 PUSH0 KECCAK256 PUSH0 SWAP2 POP SWAP1 POP SLOAD DUP2 JUMP JUMPDEST PUSH1 0x1 PUSH0 SWAP1 SLOAD SWAP1 PUSH2 0x100 EXP SWAP1 DIV PUSH20 0xFFFFFFFFFFFFFFFFFFFFFFFFFFFFFFFFFFFFFFFF AND DUP2 JUMP JUMPDEST PUSH0 PUSH0 SWAP1 SLOAD SWAP1 PUSH2 0x100 EXP SWAP1 DIV PUSH20 0xFFFFFFFFFFFFFFFFFFFFFFFFFFFFFFFFFFFFFFFF AND DUP2 JUMP JUMPDEST PUSH1 0x4 PUSH0 SWAP1 SLOAD SWAP1 PUSH2 0x100 EXP SWAP1 DIV PUSH20 0xFFFFFFFFFFFFFFFFFFFFFFFFFFFFFFFFFFFFFFFF AND DUP2 JUMP JUMPDEST PUSH1 0x2 SLOAD DUP2 JUMP JUMPDEST PUSH0 PUSH0 PUSH1 0x6 PUSH0 SWAP1 SLOAD SWAP1 PUSH2 0x100 EXP SWAP1 DIV PUSH20 0xFFFFFFFFFFFFFFFFFFFFFFFFFFFFFFFFFFFFFFFF AND PUSH20 0xFFFFFFFFFFFFFFFFFFFFFFFFFFFFFFFFFFFFFFFF AND PUSH4 0xFEAF968C PUSH1 0x40 MLOAD DUP2 PUSH4 0xFFFFFFFF AND PUSH1 0xE0 SHL DUP2 MSTORE PUSH1 0x4 ADD PUSH1 0xA0 PUSH1 0x40 MLOAD DUP1 DUP4 SUB DUP2 DUP7 GAS STATICCALL ISZERO DUP1 ISZERO PUSH2 0x5A2 JUMPI RETURNDATASIZE PUSH0 PUSH0 RETURNDATACOPY RETURNDATASIZE PUSH0 REVERT JUMPDEST POP POP POP POP PUSH1 0x40 MLOAD RETURNDATASIZE PUSH1 0x1F NOT PUSH1 0x1F DUP3 ADD AND DUP3 ADD DUP1 PUSH1 0x40 MSTORE POP DUP2 ADD SWAP1 PUSH2 0x5C6 SWAP2 SWAP1 PUSH2 0xCBF JUMP JUMPDEST POP POP POP SWAP2 POP POP DUP1 SWAP2 POP POP SWAP1 JUMP JUMPDEST PUSH1 0x2 SLOAD PUSH2 0x5DF CALLVALUE PUSH2 0x23A JUMP JUMPDEST SGT PUSH2 0x61F JUMPI PUSH1 0x40 MLOAD PUSH32 0x8C379A000000000000000000000000000000000000000000000000000000000 DUP2 MSTORE PUSH1 0x4 ADD PUSH2 0x616 SWAP1 PUSH2 0xD80 JUMP JUMPDEST PUSH1 0x40 MLOAD DUP1 SWAP2 SUB SWAP1 REVERT JUMPDEST PUSH1 0x3 CALLER SWAP1 DUP1 PUSH1 0x1 DUP2 SLOAD ADD DUP1 DUP3 SSTORE DUP1 SWAP2 POP POP PUSH1 0x1 SWAP1 SUB SWAP1 PUSH0 MSTORE PUSH1 0x20 PUSH0 KECCAK256 ADD PUSH0 SWAP1 SWAP2 SWAP1 SWAP2 SWAP1 SWAP2 PUSH2 0x100 EXP DUP2 SLOAD DUP2 PUSH20 0xFFFFFFFFFFFFFFFFFFFFFFFFFFFFFFFFFFFFFFFF MUL NOT AND SWAP1 DUP4 PUSH20 0xFFFFFFFFFFFFFFFFFFFFFFFFFFFFFFFFFFFFFFFF AND MUL OR SWAP1 SSTORE POP CALLVALUE PUSH1 0x5 PUSH0 CALLER PUSH20 0xFFFFFFFFFFFFFFFFFFFFFFFFFFFFFFFFFFFFFFFF AND PUSH20 0xFFFFFFFFFFFFFFFFFFFFFFFFFFFFFFFFFFFFFFFF AND DUP2 MSTORE PUSH1 0x20 ADD SWAP1 DUP2 MSTORE PUSH1 0x20 ADD PUSH0 KECCAK256 SLOAD PUSH2 0x6C8 SWAP2 SWAP1 PUSH2 0xD9E JUMP JUMPDEST PUSH1 0x5 PUSH0 CALLER PUSH20 0xFFFFFFFFFFFFFFFFFFFFFFFFFFFFFFFFFFFFFFFF AND PUSH20 0xFFFFFFFFFFFFFFFFFFFFFFFFFFFFFFFFFFFFFFFF AND DUP2 MSTORE PUSH1 0x20 ADD SWAP1 DUP2 MSTORE PUSH1 0x20 ADD PUSH0 KECCAK256 DUP2 SWAP1 SSTORE POP JUMP JUMPDEST PUSH1 0x3 DUP2 DUP2 SLOAD DUP2 LT PUSH2 0x71A JUMPI PUSH0 DUP1 REVERT JUMPDEST SWAP1 PUSH0 MSTORE PUSH1 0x20 PUSH0 KECCAK256 ADD PUSH0 SWAP2 POP SLOAD SWAP1 PUSH2 0x100 EXP SWAP1 DIV PUSH20 0xFFFFFFFFFFFFFFFFFFFFFFFFFFFFFFFFFFFFFFFF AND DUP2 JUMP JUMPDEST DUP3 DUP1 SLOAD DUP3 DUP3 SSTORE SWAP1 PUSH0 MSTORE PUSH1 0x20 PUSH0 KECCAK256 SWAP1 DUP2 ADD SWAP3 DUP3 ISZERO PUSH2 0x7BC JUMPI SWAP2 PUSH1 0x20 MUL DUP3 ADD JUMPDEST DUP3 DUP2 GT ISZERO PUSH2 0x7BB JUMPI DUP3 MLOAD DUP3 PUSH0 PUSH2 0x100 EXP DUP2 SLOAD DUP2 PUSH20 0xFFFFFFFFFFFFFFFFFFFFFFFFFFFFFFFFFFFFFFFF MUL NOT AND SWAP1 DUP4 PUSH20 0xFFFFFFFFFFFFFFFFFFFFFFFFFFFFFFFFFFFFFFFF AND MUL OR SWAP1 SSTORE POP SWAP2 PUSH1 0x20 ADD SWAP2 SWAP1 PUSH1 0x1 ADD SWAP1 PUSH2 0x764 JUMP JUMPDEST JUMPDEST POP SWAP1 POP PUSH2 0x7C9 SWAP2 SWAP1 PUSH2 0x7CD JUMP JUMPDEST POP SWAP1 JUMP JUMPDEST JUMPDEST DUP1 DUP3 GT ISZERO PUSH2 0x7E4 JUMPI PUSH0 DUP2 PUSH0 SWAP1 SSTORE POP PUSH1 0x1 ADD PUSH2 0x7CE JUMP JUMPDEST POP SWAP1 JUMP JUMPDEST PUSH0 PUSH0 REVERT JUMPDEST PUSH0 DUP2 SWAP1 POP SWAP2 SWAP1 POP JUMP JUMPDEST PUSH2 0x7FE DUP2 PUSH2 0x7EC JUMP JUMPDEST DUP2 EQ PUSH2 0x808 JUMPI PUSH0 PUSH0 REVERT JUMPDEST POP JUMP JUMPDEST PUSH0 DUP2 CALLDATALOAD SWAP1 POP PUSH2 0x819 DUP2 PUSH2 0x7F5 JUMP JUMPDEST SWAP3 SWAP2 POP POP JUMP JUMPDEST PUSH0 PUSH1 0x20 DUP3 DUP5 SUB SLT ISZERO PUSH2 0x834 JUMPI PUSH2 0x833 PUSH2 0x7E8 JUMP JUMPDEST JUMPDEST PUSH0 PUSH2 0x841 DUP5 DUP3 DUP6 ADD PUSH2 0x80B JUMP JUMPDEST SWAP2 POP POP SWAP3 SWAP2 POP POP JUMP JUMPDEST PUSH2 0x853 DUP2 PUSH2 0x7EC JUMP JUMPDEST DUP3 MSTORE POP POP JUMP JUMPDEST PUSH0 PUSH1 0x20 DUP3 ADD SWAP1 POP PUSH2 0x86C PUSH0 DUP4 ADD DUP5 PUSH2 0x84A JUMP JUMPDEST SWAP3 SWAP2 POP POP JUMP JUMPDEST PUSH0 PUSH20 0xFFFFFFFFFFFFFFFFFFFFFFFFFFFFFFFFFFFFFFFF DUP3 AND SWAP1 POP SWAP2 SWAP1 POP JUMP JUMPDEST PUSH0 PUSH2 0x89B DUP3 PUSH2 0x872 JUMP JUMPDEST SWAP1 POP SWAP2 SWAP1 POP JUMP JUMPDEST PUSH2 0x8AB DUP2 PUSH2 0x891 JUMP JUMPDEST DUP2 EQ PUSH2 0x8B5 JUMPI PUSH0 PUSH0 REVERT JUMPDEST POP JUMP JUMPDEST PUSH0 DUP2 CALLDATALOAD SWAP1 POP PUSH2 0x8C6 DUP2 PUSH2 0x8A2 JUMP JUMPDEST SWAP3 SWAP2 POP POP JUMP JUMPDEST PUSH0 PUSH1 0x20 DUP3 DUP5 SUB SLT ISZERO PUSH2 0x8E1 JUMPI PUSH2 0x8E0 PUSH2 0x7E8 JUMP JUMPDEST JUMPDEST PUSH0 PUSH2 0x8EE DUP5 DUP3 DUP6 ADD PUSH2 0x8B8 JUMP JUMPDEST SWAP2 POP POP SWAP3 SWAP2 POP POP JUMP JUMPDEST PUSH0 DUP2 SWAP1 POP SWAP2 SWAP1 POP JUMP JUMPDEST PUSH2 0x909 DUP2 PUSH2 0x8F7 JUMP JUMPDEST DUP3 MSTORE POP POP JUMP JUMPDEST PUSH0 PUSH1 0x20 DUP3 ADD SWAP1 POP PUSH2 0x922 PUSH0 DUP4 ADD DUP5 PUSH2 0x900 JUMP JUMPDEST SWAP3 SWAP2 POP POP JUMP JUMPDEST PUSH2 0x931 DUP2 PUSH2 0x891 JUMP JUMPDEST DUP3 MSTORE POP POP JUMP JUMPDEST PUSH0 PUSH1 0x20 DUP3 ADD SWAP1 POP PUSH2 0x94A PUSH0 DUP4 ADD DUP5 PUSH2 0x928 JUMP JUMPDEST SWAP3 SWAP2 POP POP JUMP JUMPDEST PUSH2 0x959 DUP2 PUSH2 0x8F7 JUMP JUMPDEST DUP2 EQ PUSH2 0x963 JUMPI PUSH0 PUSH0 REVERT JUMPDEST POP JUMP JUMPDEST PUSH0 DUP2 CALLDATALOAD SWAP1 POP PUSH2 0x974 DUP2 PUSH2 0x950 JUMP JUMPDEST SWAP3 SWAP2 POP POP JUMP JUMPDEST PUSH0 PUSH1 0x20 DUP3 DUP5 SUB SLT ISZERO PUSH2 0x98F JUMPI PUSH2 0x98E PUSH2 0x7E8 JUMP JUMPDEST JUMPDEST PUSH0 PUSH2 0x99C DUP5 DUP3 DUP6 ADD PUSH2 0x966 JUMP JUMPDEST SWAP2 POP POP SWAP3 SWAP2 POP POP JUMP JUMPDEST PUSH32 0x4E487B7100000000000000000000000000000000000000000000000000000000 PUSH0 MSTORE PUSH1 0x11 PUSH1 0x4 MSTORE PUSH1 0x24 PUSH0 REVERT JUMPDEST PUSH0 PUSH2 0x9DC DUP3 PUSH2 0x7EC JUMP JUMPDEST SWAP2 POP PUSH2 0x9E7 DUP4 PUSH2 0x7EC JUMP JUMPDEST SWAP3 POP DUP3 DUP3 MUL PUSH2 0x9F5 DUP2 PUSH2 0x7EC JUMP JUMPDEST SWAP2 POP PUSH32 0x8000000000000000000000000000000000000000000000000000000000000000 DUP5 EQ PUSH0 DUP5 SLT AND ISZERO PUSH2 0xA2C JUMPI PUSH2 0xA2B PUSH2 0x9A5 JUMP JUMPDEST JUMPDEST DUP3 DUP3 SDIV DUP5 EQ DUP4 ISZERO OR PUSH2 0xA41 JUMPI PUSH2 0xA40 PUSH2 0x9A5 JUMP JUMPDEST JUMPDEST POP SWAP3 SWAP2 POP POP JUMP JUMPDEST PUSH32 0x4E487B7100000000000000000000000000000000000000000000000000000000 PUSH0 MSTORE PUSH1 0x12 PUSH1 0x4 MSTORE PUSH1 0x24 PUSH0 REVERT JUMPDEST PUSH0 PUSH2 0xA7F DUP3 PUSH2 0x7EC JUMP JUMPDEST SWAP2 POP PUSH2 0xA8A DUP4 PUSH2 0x7EC JUMP JUMPDEST SWAP3 POP DUP3 PUSH2 0xA9A JUMPI PUSH2 0xA99 PUSH2 0xA48 JUMP JUMPDEST JUMPDEST PUSH1 0x1 PUSH0 SUB DUP4 EQ PUSH32 0x8000000000000000000000000000000000000000000000000000000000000000 DUP4 EQ AND ISZERO PUSH2 0xAD2 JUMPI PUSH2 0xAD1 PUSH2 0x9A5 JUMP JUMPDEST JUMPDEST DUP3 DUP3 SDIV SWAP1 POP SWAP3 SWAP2 POP POP JUMP JUMPDEST PUSH0 DUP3 DUP3 MSTORE PUSH1 0x20 DUP3 ADD SWAP1 POP SWAP3 SWAP2 POP POP JUMP JUMPDEST PUSH32 0x53656E646572206973206E6F7420746865206F776E6572000000000000000000 PUSH0 DUP3 ADD MSTORE POP JUMP JUMPDEST PUSH0 PUSH2 0xB21 PUSH1 0x17 DUP4 PUSH2 0xADD JUMP JUMPDEST SWAP2 POP PUSH2 0xB2C DUP3 PUSH2 0xAED JUMP JUMPDEST PUSH1 0x20 DUP3 ADD SWAP1 POP SWAP2 SWAP1 POP JUMP JUMPDEST PUSH0 PUSH1 0x20 DUP3 ADD SWAP1 POP DUP2 DUP2 SUB PUSH0 DUP4 ADD MSTORE PUSH2 0xB4E DUP2 PUSH2 0xB15 JUMP JUMPDEST SWAP1 POP SWAP2 SWAP1 POP JUMP JUMPDEST PUSH32 0x4E487B7100000000000000000000000000000000000000000000000000000000 PUSH0 MSTORE PUSH1 0x32 PUSH1 0x4 MSTORE PUSH1 0x24 PUSH0 REVERT JUMPDEST PUSH32 0x4E487B7100000000000000000000000000000000000000000000000000000000 PUSH0 MSTORE PUSH1 0x41 PUSH1 0x4 MSTORE PUSH1 0x24 PUSH0 REVERT JUMPDEST PUSH0 DUP2 SWAP1 POP SWAP3 SWAP2 POP POP JUMP JUMPDEST POP JUMP JUMPDEST PUSH0 PUSH2 0xBC7 PUSH0 DUP4 PUSH2 0xBAF JUMP JUMPDEST SWAP2 POP PUSH2 0xBD2 DUP3 PUSH2 0xBB9 JUMP JUMPDEST PUSH0 DUP3 ADD SWAP1 POP SWAP2 SWAP1 POP JUMP JUMPDEST PUSH0 PUSH2 0xBE6 DUP3 PUSH2 0xBBC JUMP JUMPDEST SWAP2 POP DUP2 SWAP1 POP SWAP2 SWAP1 POP JUMP JUMPDEST PUSH32 0x43616C6C206661696C6564000000000000000000000000000000000000000000 PUSH0 DUP3 ADD MSTORE POP JUMP JUMPDEST PUSH0 PUSH2 0xC24 PUSH1 0xB DUP4 PUSH2 0xADD JUMP JUMPDEST SWAP2 POP PUSH2 0xC2F DUP3 PUSH2 0xBF0 JUMP JUMPDEST PUSH1 0x20 DUP3 ADD SWAP1 POP SWAP2 SWAP1 POP JUMP JUMPDEST PUSH0 PUSH1 0x20 DUP3 ADD SWAP1 POP DUP2 DUP2 SUB PUSH0 DUP4 ADD MSTORE PUSH2 0xC51 DUP2 PUSH2 0xC18 JUMP JUMPDEST SWAP1 POP SWAP2 SWAP1 POP JUMP JUMPDEST PUSH0 PUSH10 0xFFFFFFFFFFFFFFFFFFFF DUP3 AND SWAP1 POP SWAP2 SWAP1 POP JUMP JUMPDEST PUSH2 0xC76 DUP2 PUSH2 0xC58 JUMP JUMPDEST DUP2 EQ PUSH2 0xC80 JUMPI PUSH0 PUSH0 REVERT JUMPDEST POP JUMP JUMPDEST PUSH0 DUP2 MLOAD SWAP1 POP PUSH2 0xC91 DUP2 PUSH2 0xC6D JUMP JUMPDEST SWAP3 SWAP2 POP POP JUMP JUMPDEST PUSH0 DUP2 MLOAD SWAP1 POP PUSH2 0xCA5 DUP2 PUSH2 0x7F5 JUMP JUMPDEST SWAP3 SWAP2 POP POP JUMP JUMPDEST PUSH0 DUP2 MLOAD SWAP1 POP PUSH2 0xCB9 DUP2 PUSH2 0x950 JUMP JUMPDEST SWAP3 SWAP2 POP POP JUMP JUMPDEST PUSH0 PUSH0 PUSH0 PUSH0 PUSH0 PUSH1 0xA0 DUP7 DUP9 SUB SLT ISZERO PUSH2 0xCD8 JUMPI PUSH2 0xCD7 PUSH2 0x7E8 JUMP JUMPDEST JUMPDEST PUSH0 PUSH2 0xCE5 DUP9 DUP3 DUP10 ADD PUSH2 0xC83 JUMP JUMPDEST SWAP6 POP POP PUSH1 0x20 PUSH2 0xCF6 DUP9 DUP3 DUP10 ADD PUSH2 0xC97 JUMP JUMPDEST SWAP5 POP POP PUSH1 0x40 PUSH2 0xD07 DUP9 DUP3 DUP10 ADD PUSH2 0xCAB JUMP JUMPDEST SWAP4 POP POP PUSH1 0x60 PUSH2 0xD18 DUP9 DUP3 DUP10 ADD PUSH2 0xCAB JUMP JUMPDEST SWAP3 POP POP PUSH1 0x80 PUSH2 0xD29 DUP9 DUP3 DUP10 ADD PUSH2 0xC83 JUMP JUMPDEST SWAP2 POP POP SWAP3 SWAP6 POP SWAP3 SWAP6 SWAP1 SWAP4 POP JUMP JUMPDEST PUSH32 0x4E6F7420656E6F756768204D6F6E657900000000000000000000000000000000 PUSH0 DUP3 ADD MSTORE POP JUMP JUMPDEST PUSH0 PUSH2 0xD6A PUSH1 0x10 DUP4 PUSH2 0xADD JUMP JUMPDEST SWAP2 POP PUSH2 0xD75 DUP3 PUSH2 0xD36 JUMP JUMPDEST PUSH1 0x20 DUP3 ADD SWAP1 POP SWAP2 SWAP1 POP JUMP JUMPDEST PUSH0 PUSH1 0x20 DUP3 ADD SWAP1 POP DUP2 DUP2 SUB PUSH0 DUP4 ADD MSTORE PUSH2 0xD97 DUP2 PUSH2 0xD5E JUMP JUMPDEST SWAP1 POP SWAP2 SWAP1 POP JUMP JUMPDEST PUSH0 PUSH2 0xDA8 DUP3 PUSH2 0x8F7 JUMP JUMPDEST SWAP2 POP PUSH2 0xDB3 DUP4 PUSH2 0x8F7 JUMP JUMPDEST SWAP3 POP DUP3 DUP3 ADD SWAP1 POP DUP1 DUP3 GT ISZERO PUSH2 0xDCB JUMPI PUSH2 0xDCA PUSH2 0x9A5 JUMP JUMPDEST JUMPDEST SWAP3 SWAP2 POP POP JUMP INVALID LOG2 PUSH5 0x6970667358 0x22 SLT KECCAK256 EXTDELEGATECALL PUSH23 0x7AF3062B5F164BB01AB969E67E1D4729FE4A47BB3754CE SWAP9 PREVRANDAO PUSH26 0x2842E66164736F6C634300081E00330000000000000000000000 "
				},
				"gasEstimates": {
					"creation": {
						"codeDepositCost": "718200",
						"executionCost": "97788",
						"totalCost": "815988"
					},
					"external": {
						"addressToAmountFunded(address)": "2847",
						"btcUsd()": "2575",
						"ethUsd()": "2596",
						"fund()": "infinite",
						"funders(uint256)": "5032",
						"getConversionRate(int256)": "infinite",
						"getPrice()": "infinite",
						"minBal()": "2447",
						"owner()": "2508",
						"withdraw()": "infinite"
					}
				},
				"methodIdentifiers": {
					"addressToAmountFunded(address)": "3e47d6f3",
					"btcUsd()": "5669a1b9",
					"ethUsd()": "5a960216",
					"fund()": "b60d4288",
					"funders(uint256)": "dc0d3dff",
					"getConversionRate(int256)": "325df6e2",
					"getPrice()": "98d5fdca",
					"minBal()": "91b7655f",
					"owner()": "8da5cb5b",
					"withdraw()": "3ccfd60b"
				}
			},
			"storageLayout": {
				"storage": [
					{
						"astId": 52,
						"contract": "contracts/FundMe.sol:FundMe",
						"label": "ethUsd",
						"offset": 0,
						"slot": "0",
						"type": "t_address"
					},
					{
						"astId": 55,
						"contract": "contracts/FundMe.sol:FundMe",
						"label": "btcUsd",
						"offset": 0,
						"slot": "1",
						"type": "t_address"
					},
					{
						"astId": 58,
						"contract": "contracts/FundMe.sol:FundMe",
						"label": "minBal",
						"offset": 0,
						"slot": "2",
						"type": "t_int256"
					},
					{
						"astId": 61,
						"contract": "contracts/FundMe.sol:FundMe",
						"label": "funders",
						"offset": 0,
						"slot": "3",
						"type": "t_array(t_address)dyn_storage"
					},
					{
						"astId": 63,
						"contract": "contracts/FundMe.sol:FundMe",
						"label": "owner",
						"offset": 0,
						"slot": "4",
						"type": "t_address"
					},
					{
						"astId": 67,
						"contract": "contracts/FundMe.sol:FundMe",
						"label": "addressToAmountFunded",
						"offset": 0,
						"slot": "5",
						"type": "t_mapping(t_address,t_uint256)"
					},
					{
						"astId": 107,
						"contract": "contracts/FundMe.sol:FundMe",
						"label": "dataFeed",
						"offset": 0,
						"slot": "6",
						"type": "t_contract(AggregatorV3Interface)45"
					}
				],
				"types": {
					"t_address": {
						"encoding": "inplace",
						"label": "address",
						"numberOfBytes": "20"
					},
					"t_array(t_address)dyn_storage": {
						"base": "t_address",
						"encoding": "dynamic_array",
						"label": "address[]",
						"numberOfBytes": "32"
					},
					"t_contract(AggregatorV3Interface)45": {
						"encoding": "inplace",
						"label": "contract AggregatorV3Interface",
						"numberOfBytes": "20"
					},
					"t_int256": {
						"encoding": "inplace",
						"label": "int256",
						"numberOfBytes": "32"
					},
					"t_mapping(t_address,t_uint256)": {
						"encoding": "mapping",
						"key": "t_address",
						"label": "mapping(address => uint256)",
						"numberOfBytes": "32",
						"value": "t_uint256"
					},
					"t_uint256": {
						"encoding": "inplace",
						"label": "uint256",
						"numberOfBytes": "32"
					}
				}
			},
			"userdoc": {
				"kind": "user",
				"methods": {
					"constructor": {
						"notice": "Network: Sepolia Aggregator: BTC/USD Address: 0x1b44F3514812d835EB1BDB0acB33d3fA3351Ee43"
					}
				},
				"version": 1
			}
		}
	}
}