{
	"SimpleStorage.sol": {
		"SimpleStorage": {
			"abi": [
				{
					"inputs": [],
					"name": "JJ",
					"outputs": [
						{
							"internalType": "uint256",
							"name": "favoriteNumber",
							"type": "uint256"
						},
						{
							"internalType": "string",
							"name": "name",
							"type": "string"
						}
					],
					"stateMutability": "view",
					"type": "function"
				},
				{
					"inputs": [],
					"name": "KK",
					"outputs": [
						{
							"internalType": "uint256",
							"name": "favoriteNumber",
							"type": "uint256"
						},
						{
							"internalType": "string",
							"name": "name",
							"type": "string"
						}
					],
					"stateMutability": "view",
					"type": "function"
				},
				{
					"inputs": [
						{
							"internalType": "string",
							"name": "_name",
							"type": "string"
						},
						{
							"internalType": "uint256",
							"name": "_favoriteNumber",
							"type": "uint256"
						}
					],
					"name": "addPerson",
					"outputs": [],
					"stateMutability": "nonpayable",
					"type": "function"
				},
				{
					"inputs": [
						{
							"internalType": "string",
							"name": "_name",
							"type": "string"
						},
						{
							"internalType": "uint256",
							"name": "_favoriteNumber",
							"type": "uint256"
						}
					],
					"name": "addPerson2",
					"outputs": [],
					"stateMutability": "nonpayable",
					"type": "function"
				},
				{
					"inputs": [
						{
							"internalType": "uint256",
							"name": "",
							"type": "uint256"
						}
					],
					"name": "listOfPeople",
					"outputs": [
						{
							"internalType": "uint256",
							"name": "favoriteNumber",
							"type": "uint256"
						},
						{
							"internalType": "string",
							"name": "name",
							"type": "string"
						}
					],
					"stateMutability": "view",
					"type": "function"
				},
				{
					"inputs": [
						{
							"internalType": "string",
							"name": "",
							"type": "string"
						}
					],
					"name": "nameToFavoriteNumber",
					"outputs": [
						{
							"internalType": "uint256",
							"name": "",
							"type": "uint256"
						}
					],
					"stateMutability": "view",
					"type": "function"
				},
				{
					"inputs": [],
					"name": "retrieve",
					"outputs": [
						{
							"internalType": "uint256",
							"name": "",
							"type": "uint256"
						}
					],
					"stateMutability": "view",
					"type": "function"
				},
				{
					"inputs": [
						{
							"internalType": "uint256",
							"name": "_favoriteNumber",
							"type": "uint256"
						}
					],
					"name": "store",
					"outputs": [],
					"stateMutability": "nonpayable",
					"type": "function"
				}
			],
			"devdoc": {
				"kind": "dev",
				"methods": {},
				"version": 1
			},
			"evm": {
				"assembly": "    /* \"SimpleStorage.sol\":100:1387  contract SimpleStorage {... */\n  mstore(0x40, 0x80)\n    /* \"SimpleStorage.sol\":818:833  Person(7, \"JJ\") */\n  mload(0x40)\n  dup1\n  0x40\n  add\n  0x40\n  mstore\n  dup1\n    /* \"SimpleStorage.sol\":825:826  7 */\n  0x07\n    /* \"SimpleStorage.sol\":818:833  Person(7, \"JJ\") */\n  dup2\n  mstore\n  0x20\n  add\n  mload(0x40)\n  dup1\n  0x40\n  add\n  0x40\n  mstore\n  dup1\n  0x02\n  dup2\n  mstore\n  0x20\n  add\n  0x4a4a000000000000000000000000000000000000000000000000000000000000\n  dup2\n  mstore\n  pop\n  dup2\n  mstore\n  pop\n    /* \"SimpleStorage.sol\":799:833  Person public JJ = Person(7, \"JJ\") */\n  0x03\n  0x00\n  dup3\n  add\n  mload\n  dup2\n  0x00\n  add\n  sstore\n  0x20\n  dup3\n  add\n  mload\n  dup2\n  0x01\n  add\n  swap1\n  dup2\n  tag_1\n  swap2\n  swap1\n  tag_2\n  jump\t// in\ntag_1:\n  pop\n  pop\n  pop\n    /* \"SimpleStorage.sol\":859:898  Person({favoriteNumber: 8, name: \"KK\"}) */\n  mload(0x40)\n  dup1\n  0x40\n  add\n  0x40\n  mstore\n  dup1\n    /* \"SimpleStorage.sol\":883:884  8 */\n  0x08\n    /* \"SimpleStorage.sol\":859:898  Person({favoriteNumber: 8, name: \"KK\"}) */\n  dup2\n  mstore\n  0x20\n  add\n  mload(0x40)\n  dup1\n  0x40\n  add\n  0x40\n  mstore\n  dup1\n  0x02\n  dup2\n  mstore\n  0x20\n  add\n  0x4b4b000000000000000000000000000000000000000000000000000000000000\n  dup2\n  mstore\n  pop\n  dup2\n  mstore\n  pop\n    /* \"SimpleStorage.sol\":840:898  Person public KK = Person({favoriteNumber: 8, name: \"KK\"}) */\n  0x05\n  0x00\n  dup3\n  add\n  mload\n  dup2\n  0x00\n  add\n  sstore\n  0x20\n  dup3\n  add\n  mload\n  dup2\n  0x01\n  add\n  swap1\n  dup2\n  tag_3\n  swap2\n  swap1\n  tag_2\n  jump\t// in\ntag_3:\n  pop\n  pop\n  pop\n    /* \"SimpleStorage.sol\":100:1387  contract SimpleStorage {... */\n  callvalue\n  dup1\n  iszero\n  tag_4\n  jumpi\n  revert(0x00, 0x00)\ntag_4:\n  pop\n  jump(tag_5)\n    /* \"#utility.yul\":7:106   */\ntag_6:\n    /* \"#utility.yul\":59:65   */\n  0x00\n    /* \"#utility.yul\":93:98   */\n  dup2\n    /* \"#utility.yul\":87:99   */\n  mload\n    /* \"#utility.yul\":77:99   */\n  swap1\n  pop\n    /* \"#utility.yul\":7:106   */\n  swap2\n  swap1\n  pop\n  jump\t// out\n    /* \"#utility.yul\":112:292   */\ntag_7:\n    /* \"#utility.yul\":160:237   */\n  0x4e487b7100000000000000000000000000000000000000000000000000000000\n    /* \"#utility.yul\":157:158   */\n  0x00\n    /* \"#utility.yul\":150:238   */\n  mstore\n    /* \"#utility.yul\":257:261   */\n  0x41\n    /* \"#utility.yul\":254:255   */\n  0x04\n    /* \"#utility.yul\":247:262   */\n  mstore\n    /* \"#utility.yul\":281:285   */\n  0x24\n    /* \"#utility.yul\":278:279   */\n  0x00\n    /* \"#utility.yul\":271:286   */\n  revert\n    /* \"#utility.yul\":298:478   */\ntag_8:\n    /* \"#utility.yul\":346:423   */\n  0x4e487b7100000000000000000000000000000000000000000000000000000000\n    /* \"#utility.yul\":343:344   */\n  0x00\n    /* \"#utility.yul\":336:424   */\n  mstore\n    /* \"#utility.yul\":443:447   */\n  0x22\n    /* \"#utility.yul\":440:441   */\n  0x04\n    /* \"#utility.yul\":433:448   */\n  mstore\n    /* \"#utility.yul\":467:471   */\n  0x24\n    /* \"#utility.yul\":464:465   */\n  0x00\n    /* \"#utility.yul\":457:472   */\n  revert\n    /* \"#utility.yul\":484:804   */\ntag_9:\n    /* \"#utility.yul\":528:534   */\n  0x00\n    /* \"#utility.yul\":565:566   */\n  0x02\n    /* \"#utility.yul\":559:563   */\n  dup3\n    /* \"#utility.yul\":555:567   */\n  div\n    /* \"#utility.yul\":545:567   */\n  swap1\n  pop\n    /* \"#utility.yul\":612:613   */\n  0x01\n    /* \"#utility.yul\":606:610   */\n  dup3\n    /* \"#utility.yul\":602:614   */\n  and\n    /* \"#utility.yul\":633:651   */\n  dup1\n    /* \"#utility.yul\":623:704   */\n  tag_31\n  jumpi\n    /* \"#utility.yul\":689:693   */\n  0x7f\n    /* \"#utility.yul\":681:687   */\n  dup3\n    /* \"#utility.yul\":677:694   */\n  and\n    /* \"#utility.yul\":667:694   */\n  swap2\n  pop\n    /* \"#utility.yul\":623:704   */\ntag_31:\n    /* \"#utility.yul\":751:753   */\n  0x20\n    /* \"#utility.yul\":743:749   */\n  dup3\n    /* \"#utility.yul\":740:754   */\n  lt\n    /* \"#utility.yul\":720:738   */\n  dup2\n    /* \"#utility.yul\":717:755   */\n  sub\n    /* \"#utility.yul\":714:798   */\n  tag_32\n  jumpi\n    /* \"#utility.yul\":770:788   */\n  tag_33\n  tag_8\n  jump\t// in\ntag_33:\n    /* \"#utility.yul\":714:798   */\ntag_32:\n    /* \"#utility.yul\":535:804   */\n  pop\n    /* \"#utility.yul\":484:804   */\n  swap2\n  swap1\n  pop\n  jump\t// out\n    /* \"#utility.yul\":810:951   */\ntag_10:\n    /* \"#utility.yul\":859:863   */\n  0x00\n    /* \"#utility.yul\":882:885   */\n  dup2\n    /* \"#utility.yul\":874:885   */\n  swap1\n  pop\n    /* \"#utility.yul\":905:908   */\n  dup2\n    /* \"#utility.yul\":902:903   */\n  0x00\n    /* \"#utility.yul\":895:909   */\n  mstore\n    /* \"#utility.yul\":939:943   */\n  0x20\n    /* \"#utility.yul\":936:937   */\n  0x00\n    /* \"#utility.yul\":926:944   */\n  keccak256\n    /* \"#utility.yul\":918:944   */\n  swap1\n  pop\n    /* \"#utility.yul\":810:951   */\n  swap2\n  swap1\n  pop\n  jump\t// out\n    /* \"#utility.yul\":957:1050   */\ntag_11:\n    /* \"#utility.yul\":994:1000   */\n  0x00\n    /* \"#utility.yul\":1041:1043   */\n  0x20\n    /* \"#utility.yul\":1036:1038   */\n  0x1f\n    /* \"#utility.yul\":1029:1034   */\n  dup4\n    /* \"#utility.yul\":1025:1039   */\n  add\n    /* \"#utility.yul\":1021:1044   */\n  div\n    /* \"#utility.yul\":1011:1044   */\n  swap1\n  pop\n    /* \"#utility.yul\":957:1050   */\n  swap2\n  swap1\n  pop\n  jump\t// out\n    /* \"#utility.yul\":1056:1163   */\ntag_12:\n    /* \"#utility.yul\":1100:1108   */\n  0x00\n    /* \"#utility.yul\":1150:1155   */\n  dup3\n    /* \"#utility.yul\":1144:1148   */\n  dup3\n    /* \"#utility.yul\":1140:1156   */\n  shl\n    /* \"#utility.yul\":1119:1156   */\n  swap1\n  pop\n    /* \"#utility.yul\":1056:1163   */\n  swap3\n  swap2\n  pop\n  pop\n  jump\t// out\n    /* \"#utility.yul\":1169:1562   */\ntag_13:\n    /* \"#utility.yul\":1238:1244   */\n  0x00\n    /* \"#utility.yul\":1288:1289   */\n  0x08\n    /* \"#utility.yul\":1276:1286   */\n  dup4\n    /* \"#utility.yul\":1272:1290   */\n  mul\n    /* \"#utility.yul\":1311:1408   */\n  tag_38\n    /* \"#utility.yul\":1341:1407   */\n  0xffffffffffffffffffffffffffffffffffffffffffffffffffffffffffffffff\n    /* \"#utility.yul\":1330:1339   */\n  dup3\n    /* \"#utility.yul\":1311:1408   */\n  tag_12\n  jump\t// in\ntag_38:\n    /* \"#utility.yul\":1429:1468   */\n  tag_39\n    /* \"#utility.yul\":1459:1467   */\n  dup7\n    /* \"#utility.yul\":1448:1457   */\n  dup4\n    /* \"#utility.yul\":1429:1468   */\n  tag_12\n  jump\t// in\ntag_39:\n    /* \"#utility.yul\":1417:1468   */\n  swap6\n  pop\n    /* \"#utility.yul\":1501:1505   */\n  dup1\n    /* \"#utility.yul\":1497:1506   */\n  not\n    /* \"#utility.yul\":1490:1495   */\n  dup5\n    /* \"#utility.yul\":1486:1507   */\n  and\n    /* \"#utility.yul\":1477:1507   */\n  swap4\n  pop\n    /* \"#utility.yul\":1550:1554   */\n  dup1\n    /* \"#utility.yul\":1540:1548   */\n  dup7\n    /* \"#utility.yul\":1536:1555   */\n  and\n    /* \"#utility.yul\":1529:1534   */\n  dup5\n    /* \"#utility.yul\":1526:1556   */\n  or\n    /* \"#utility.yul\":1516:1556   */\n  swap3\n  pop\n    /* \"#utility.yul\":1245:1562   */\n  pop\n  pop\n    /* \"#utility.yul\":1169:1562   */\n  swap4\n  swap3\n  pop\n  pop\n  pop\n  jump\t// out\n    /* \"#utility.yul\":1568:1645   */\ntag_14:\n    /* \"#utility.yul\":1605:1612   */\n  0x00\n    /* \"#utility.yul\":1634:1639   */\n  dup2\n    /* \"#utility.yul\":1623:1639   */\n  swap1\n  pop\n    /* \"#utility.yul\":1568:1645   */\n  swap2\n  swap1\n  pop\n  jump\t// out\n    /* \"#utility.yul\":1651:1711   */\ntag_15:\n    /* \"#utility.yul\":1679:1682   */\n  0x00\n    /* \"#utility.yul\":1700:1705   */\n  dup2\n    /* \"#utility.yul\":1693:1705   */\n  swap1\n  pop\n    /* \"#utility.yul\":1651:1711   */\n  swap2\n  swap1\n  pop\n  jump\t// out\n    /* \"#utility.yul\":1717:1859   */\ntag_16:\n    /* \"#utility.yul\":1767:1776   */\n  0x00\n    /* \"#utility.yul\":1800:1853   */\n  tag_43\n    /* \"#utility.yul\":1818:1852   */\n  tag_44\n    /* \"#utility.yul\":1827:1851   */\n  tag_45\n    /* \"#utility.yul\":1845:1850   */\n  dup5\n    /* \"#utility.yul\":1827:1851   */\n  tag_14\n  jump\t// in\ntag_45:\n    /* \"#utility.yul\":1818:1852   */\n  tag_15\n  jump\t// in\ntag_44:\n    /* \"#utility.yul\":1800:1853   */\n  tag_14\n  jump\t// in\ntag_43:\n    /* \"#utility.yul\":1787:1853   */\n  swap1\n  pop\n    /* \"#utility.yul\":1717:1859   */\n  swap2\n  swap1\n  pop\n  jump\t// out\n    /* \"#utility.yul\":1865:1940   */\ntag_17:\n    /* \"#utility.yul\":1908:1911   */\n  0x00\n    /* \"#utility.yul\":1929:1934   */\n  dup2\n    /* \"#utility.yul\":1922:1934   */\n  swap1\n  pop\n    /* \"#utility.yul\":1865:1940   */\n  swap2\n  swap1\n  pop\n  jump\t// out\n    /* \"#utility.yul\":1946:2215   */\ntag_18:\n    /* \"#utility.yul\":2056:2095   */\n  tag_48\n    /* \"#utility.yul\":2087:2094   */\n  dup4\n    /* \"#utility.yul\":2056:2095   */\n  tag_16\n  jump\t// in\ntag_48:\n    /* \"#utility.yul\":2117:2208   */\n  tag_49\n    /* \"#utility.yul\":2166:2207   */\n  tag_50\n    /* \"#utility.yul\":2190:2206   */\n  dup3\n    /* \"#utility.yul\":2166:2207   */\n  tag_17\n  jump\t// in\ntag_50:\n    /* \"#utility.yul\":2158:2164   */\n  dup5\n    /* \"#utility.yul\":2151:2155   */\n  dup5\n    /* \"#utility.yul\":2145:2156   */\n  sload\n    /* \"#utility.yul\":2117:2208   */\n  tag_13\n  jump\t// in\ntag_49:\n    /* \"#utility.yul\":2111:2115   */\n  dup3\n    /* \"#utility.yul\":2104:2209   */\n  sstore\n    /* \"#utility.yul\":2022:2215   */\n  pop\n    /* \"#utility.yul\":1946:2215   */\n  pop\n  pop\n  pop\n  jump\t// out\n    /* \"#utility.yul\":2221:2294   */\ntag_19:\n    /* \"#utility.yul\":2266:2269   */\n  0x00\n    /* \"#utility.yul\":2287:2288   */\n  0x00\n    /* \"#utility.yul\":2280:2288   */\n  swap1\n  pop\n    /* \"#utility.yul\":2221:2294   */\n  swap1\n  jump\t// out\n    /* \"#utility.yul\":2300:2489   */\ntag_20:\n    /* \"#utility.yul\":2377:2409   */\n  tag_53\n  tag_19\n  jump\t// in\ntag_53:\n    /* \"#utility.yul\":2418:2483   */\n  tag_54\n    /* \"#utility.yul\":2476:2482   */\n  dup2\n    /* \"#utility.yul\":2468:2474   */\n  dup5\n    /* \"#utility.yul\":2462:2466   */\n  dup5\n    /* \"#utility.yul\":2418:2483   */\n  tag_18\n  jump\t// in\ntag_54:\n    /* \"#utility.yul\":2353:2489   */\n  pop\n    /* \"#utility.yul\":2300:2489   */\n  pop\n  pop\n  jump\t// out\n    /* \"#utility.yul\":2495:2681   */\ntag_21:\n    /* \"#utility.yul\":2555:2675   */\ntag_56:\n    /* \"#utility.yul\":2572:2575   */\n  dup2\n    /* \"#utility.yul\":2565:2570   */\n  dup2\n    /* \"#utility.yul\":2562:2576   */\n  lt\n    /* \"#utility.yul\":2555:2675   */\n  iszero\n  tag_58\n  jumpi\n    /* \"#utility.yul\":2626:2665   */\n  tag_59\n    /* \"#utility.yul\":2663:2664   */\n  0x00\n    /* \"#utility.yul\":2656:2661   */\n  dup3\n    /* \"#utility.yul\":2626:2665   */\n  tag_20\n  jump\t// in\ntag_59:\n    /* \"#utility.yul\":2599:2600   */\n  0x01\n    /* \"#utility.yul\":2592:2597   */\n  dup2\n    /* \"#utility.yul\":2588:2601   */\n  add\n    /* \"#utility.yul\":2579:2601   */\n  swap1\n  pop\n    /* \"#utility.yul\":2555:2675   */\n  jump(tag_56)\ntag_58:\n    /* \"#utility.yul\":2495:2681   */\n  pop\n  pop\n  jump\t// out\n    /* \"#utility.yul\":2687:3230   */\ntag_22:\n    /* \"#utility.yul\":2788:2790   */\n  0x1f\n    /* \"#utility.yul\":2783:2786   */\n  dup3\n    /* \"#utility.yul\":2780:2791   */\n  gt\n    /* \"#utility.yul\":2777:3223   */\n  iszero\n  tag_61\n  jumpi\n    /* \"#utility.yul\":2822:2860   */\n  tag_62\n    /* \"#utility.yul\":2854:2859   */\n  dup2\n    /* \"#utility.yul\":2822:2860   */\n  tag_10\n  jump\t// in\ntag_62:\n    /* \"#utility.yul\":2906:2935   */\n  tag_63\n    /* \"#utility.yul\":2924:2934   */\n  dup5\n    /* \"#utility.yul\":2906:2935   */\n  tag_11\n  jump\t// in\ntag_63:\n    /* \"#utility.yul\":2896:2904   */\n  dup2\n    /* \"#utility.yul\":2892:2936   */\n  add\n    /* \"#utility.yul\":3089:3091   */\n  0x20\n    /* \"#utility.yul\":3077:3087   */\n  dup6\n    /* \"#utility.yul\":3074:3092   */\n  lt\n    /* \"#utility.yul\":3071:3120   */\n  iszero\n  tag_64\n  jumpi\n    /* \"#utility.yul\":3110:3118   */\n  dup2\n    /* \"#utility.yul\":3095:3118   */\n  swap1\n  pop\n    /* \"#utility.yul\":3071:3120   */\ntag_64:\n    /* \"#utility.yul\":3133:3213   */\n  tag_65\n    /* \"#utility.yul\":3189:3211   */\n  tag_66\n    /* \"#utility.yul\":3207:3210   */\n  dup6\n    /* \"#utility.yul\":3189:3211   */\n  tag_11\n  jump\t// in\ntag_66:\n    /* \"#utility.yul\":3179:3187   */\n  dup4\n    /* \"#utility.yul\":3175:3212   */\n  add\n    /* \"#utility.yul\":3162:3173   */\n  dup3\n    /* \"#utility.yul\":3133:3213   */\n  tag_21\n  jump\t// in\ntag_65:\n    /* \"#utility.yul\":2792:3223   */\n  pop\n  pop\n    /* \"#utility.yul\":2777:3223   */\ntag_61:\n    /* \"#utility.yul\":2687:3230   */\n  pop\n  pop\n  pop\n  jump\t// out\n    /* \"#utility.yul\":3236:3353   */\ntag_23:\n    /* \"#utility.yul\":3290:3298   */\n  0x00\n    /* \"#utility.yul\":3340:3345   */\n  dup3\n    /* \"#utility.yul\":3334:3338   */\n  dup3\n    /* \"#utility.yul\":3330:3346   */\n  shr\n    /* \"#utility.yul\":3309:3346   */\n  swap1\n  pop\n    /* \"#utility.yul\":3236:3353   */\n  swap3\n  swap2\n  pop\n  pop\n  jump\t// out\n    /* \"#utility.yul\":3359:3528   */\ntag_24:\n    /* \"#utility.yul\":3403:3409   */\n  0x00\n    /* \"#utility.yul\":3436:3487   */\n  tag_69\n    /* \"#utility.yul\":3484:3485   */\n  0x00\n    /* \"#utility.yul\":3480:3486   */\n  not\n    /* \"#utility.yul\":3472:3477   */\n  dup5\n    /* \"#utility.yul\":3469:3470   */\n  0x08\n    /* \"#utility.yul\":3465:3478   */\n  mul\n    /* \"#utility.yul\":3436:3487   */\n  tag_23\n  jump\t// in\ntag_69:\n    /* \"#utility.yul\":3432:3488   */\n  not\n    /* \"#utility.yul\":3517:3521   */\n  dup1\n    /* \"#utility.yul\":3511:3515   */\n  dup4\n    /* \"#utility.yul\":3507:3522   */\n  and\n    /* \"#utility.yul\":3497:3522   */\n  swap2\n  pop\n    /* \"#utility.yul\":3410:3528   */\n  pop\n    /* \"#utility.yul\":3359:3528   */\n  swap3\n  swap2\n  pop\n  pop\n  jump\t// out\n    /* \"#utility.yul\":3533:3828   */\ntag_25:\n    /* \"#utility.yul\":3609:3613   */\n  0x00\n    /* \"#utility.yul\":3755:3784   */\n  tag_71\n    /* \"#utility.yul\":3780:3783   */\n  dup4\n    /* \"#utility.yul\":3774:3778   */\n  dup4\n    /* \"#utility.yul\":3755:3784   */\n  tag_24\n  jump\t// in\ntag_71:\n    /* \"#utility.yul\":3747:3784   */\n  swap2\n  pop\n    /* \"#utility.yul\":3817:3820   */\n  dup3\n    /* \"#utility.yul\":3814:3815   */\n  0x02\n    /* \"#utility.yul\":3810:3821   */\n  mul\n    /* \"#utility.yul\":3804:3808   */\n  dup3\n    /* \"#utility.yul\":3801:3822   */\n  or\n    /* \"#utility.yul\":3793:3822   */\n  swap1\n  pop\n    /* \"#utility.yul\":3533:3828   */\n  swap3\n  swap2\n  pop\n  pop\n  jump\t// out\n    /* \"#utility.yul\":3833:5228   */\ntag_2:\n    /* \"#utility.yul\":3950:3987   */\n  tag_73\n    /* \"#utility.yul\":3983:3986   */\n  dup3\n    /* \"#utility.yul\":3950:3987   */\n  tag_6\n  jump\t// in\ntag_73:\n    /* \"#utility.yul\":4052:4070   */\n  0xffffffffffffffff\n    /* \"#utility.yul\":4044:4050   */\n  dup2\n    /* \"#utility.yul\":4041:4071   */\n  gt\n    /* \"#utility.yul\":4038:4094   */\n  iszero\n  tag_74\n  jumpi\n    /* \"#utility.yul\":4074:4092   */\n  tag_75\n  tag_7\n  jump\t// in\ntag_75:\n    /* \"#utility.yul\":4038:4094   */\ntag_74:\n    /* \"#utility.yul\":4118:4156   */\n  tag_76\n    /* \"#utility.yul\":4150:4154   */\n  dup3\n    /* \"#utility.yul\":4144:4155   */\n  sload\n    /* \"#utility.yul\":4118:4156   */\n  tag_9\n  jump\t// in\ntag_76:\n    /* \"#utility.yul\":4203:4270   */\n  tag_77\n    /* \"#utility.yul\":4263:4269   */\n  dup3\n    /* \"#utility.yul\":4255:4261   */\n  dup3\n    /* \"#utility.yul\":4249:4253   */\n  dup6\n    /* \"#utility.yul\":4203:4270   */\n  tag_22\n  jump\t// in\ntag_77:\n    /* \"#utility.yul\":4297:4298   */\n  0x00\n    /* \"#utility.yul\":4321:4325   */\n  0x20\n    /* \"#utility.yul\":4308:4325   */\n  swap1\n  pop\n    /* \"#utility.yul\":4353:4355   */\n  0x1f\n    /* \"#utility.yul\":4345:4351   */\n  dup4\n    /* \"#utility.yul\":4342:4356   */\n  gt\n    /* \"#utility.yul\":4370:4371   */\n  0x01\n    /* \"#utility.yul\":4365:4983   */\n  dup2\n  eq\n  tag_79\n  jumpi\n    /* \"#utility.yul\":5027:5028   */\n  0x00\n    /* \"#utility.yul\":5044:5050   */\n  dup5\n    /* \"#utility.yul\":5041:5118   */\n  iszero\n  tag_80\n  jumpi\n    /* \"#utility.yul\":5093:5102   */\n  dup3\n    /* \"#utility.yul\":5088:5091   */\n  dup8\n    /* \"#utility.yul\":5084:5103   */\n  add\n    /* \"#utility.yul\":5078:5104   */\n  mload\n    /* \"#utility.yul\":5069:5104   */\n  swap1\n  pop\n    /* \"#utility.yul\":5041:5118   */\ntag_80:\n    /* \"#utility.yul\":5144:5211   */\n  tag_81\n    /* \"#utility.yul\":5204:5210   */\n  dup6\n    /* \"#utility.yul\":5197:5202   */\n  dup3\n    /* \"#utility.yul\":5144:5211   */\n  tag_25\n  jump\t// in\ntag_81:\n    /* \"#utility.yul\":5138:5142   */\n  dup7\n    /* \"#utility.yul\":5131:5212   */\n  sstore\n    /* \"#utility.yul\":5000:5222   */\n  pop\n    /* \"#utility.yul\":4335:5222   */\n  jump(tag_78)\n    /* \"#utility.yul\":4365:4983   */\ntag_79:\n    /* \"#utility.yul\":4417:4421   */\n  0x1f\n    /* \"#utility.yul\":4413:4422   */\n  not\n    /* \"#utility.yul\":4405:4411   */\n  dup5\n    /* \"#utility.yul\":4401:4423   */\n  and\n    /* \"#utility.yul\":4451:4488   */\n  tag_82\n    /* \"#utility.yul\":4483:4487   */\n  dup7\n    /* \"#utility.yul\":4451:4488   */\n  tag_10\n  jump\t// in\ntag_82:\n    /* \"#utility.yul\":4510:4511   */\n  0x00\n    /* \"#utility.yul\":4524:4732   */\ntag_83:\n    /* \"#utility.yul\":4538:4545   */\n  dup3\n    /* \"#utility.yul\":4535:4536   */\n  dup2\n    /* \"#utility.yul\":4532:4546   */\n  lt\n    /* \"#utility.yul\":4524:4732   */\n  iszero\n  tag_85\n  jumpi\n    /* \"#utility.yul\":4617:4626   */\n  dup5\n    /* \"#utility.yul\":4612:4615   */\n  dup10\n    /* \"#utility.yul\":4608:4627   */\n  add\n    /* \"#utility.yul\":4602:4628   */\n  mload\n    /* \"#utility.yul\":4594:4600   */\n  dup3\n    /* \"#utility.yul\":4587:4629   */\n  sstore\n    /* \"#utility.yul\":4668:4669   */\n  0x01\n    /* \"#utility.yul\":4660:4666   */\n  dup3\n    /* \"#utility.yul\":4656:4670   */\n  add\n    /* \"#utility.yul\":4646:4670   */\n  swap2\n  pop\n    /* \"#utility.yul\":4715:4717   */\n  0x20\n    /* \"#utility.yul\":4704:4713   */\n  dup6\n    /* \"#utility.yul\":4700:4718   */\n  add\n    /* \"#utility.yul\":4687:4718   */\n  swap5\n  pop\n    /* \"#utility.yul\":4561:4565   */\n  0x20\n    /* \"#utility.yul\":4558:4559   */\n  dup2\n    /* \"#utility.yul\":4554:4566   */\n  add\n    /* \"#utility.yul\":4549:4566   */\n  swap1\n  pop\n    /* \"#utility.yul\":4524:4732   */\n  jump(tag_83)\ntag_85:\n    /* \"#utility.yul\":4760:4766   */\n  dup7\n    /* \"#utility.yul\":4751:4758   */\n  dup4\n    /* \"#utility.yul\":4748:4767   */\n  lt\n    /* \"#utility.yul\":4745:4924   */\n  iszero\n  tag_86\n  jumpi\n    /* \"#utility.yul\":4818:4827   */\n  dup5\n    /* \"#utility.yul\":4813:4816   */\n  dup10\n    /* \"#utility.yul\":4809:4828   */\n  add\n    /* \"#utility.yul\":4803:4829   */\n  mload\n    /* \"#utility.yul\":4861:4909   */\n  tag_87\n    /* \"#utility.yul\":4903:4907   */\n  0x1f\n    /* \"#utility.yul\":4895:4901   */\n  dup10\n    /* \"#utility.yul\":4891:4908   */\n  and\n    /* \"#utility.yul\":4880:4889   */\n  dup3\n    /* \"#utility.yul\":4861:4909   */\n  tag_24\n  jump\t// in\ntag_87:\n    /* \"#utility.yul\":4853:4859   */\n  dup4\n    /* \"#utility.yul\":4846:4910   */\n  sstore\n    /* \"#utility.yul\":4768:4924   */\n  pop\n    /* \"#utility.yul\":4745:4924   */\ntag_86:\n    /* \"#utility.yul\":4970:4971   */\n  0x01\n    /* \"#utility.yul\":4966:4967   */\n  0x02\n    /* \"#utility.yul\":4958:4964   */\n  dup9\n    /* \"#utility.yul\":4954:4968   */\n  mul\n    /* \"#utility.yul\":4950:4972   */\n  add\n    /* \"#utility.yul\":4944:4948   */\n  dup9\n    /* \"#utility.yul\":4937:4973   */\n  sstore\n    /* \"#utility.yul\":4372:4983   */\n  pop\n  pop\n  pop\n    /* \"#utility.yul\":4335:5222   */\ntag_78:\n  pop\n    /* \"#utility.yul\":3925:5228   */\n  pop\n  pop\n  pop\n    /* \"#utility.yul\":3833:5228   */\n  pop\n  pop\n  jump\t// out\n    /* \"SimpleStorage.sol\":100:1387  contract SimpleStorage {... */\ntag_5:\n  dataSize(sub_0)\n  dup1\n  dataOffset(sub_0)\n  0x00\n  codecopy\n  0x00\n  return\nstop\n\nsub_0: assembly {\n        /* \"SimpleStorage.sol\":100:1387  contract SimpleStorage {... */\n      mstore(0x40, 0x80)\n      callvalue\n      dup1\n      iszero\n      tag_1\n      jumpi\n      revert(0x00, 0x00)\n    tag_1:\n      pop\n      jumpi(tag_2, lt(calldatasize, 0x04))\n      shr(0xe0, calldataload(0x00))\n      dup1\n      0x825063e3\n      gt\n      tag_11\n      jumpi\n      dup1\n      0x825063e3\n      eq\n      tag_7\n      jumpi\n      dup1\n      0x8bab8dd5\n      eq\n      tag_8\n      jumpi\n      dup1\n      0xc1164e79\n      eq\n      tag_9\n      jumpi\n      dup1\n      0xdec7e544\n      eq\n      tag_10\n      jumpi\n      jump(tag_2)\n    tag_11:\n      dup1\n      0x2e64cec1\n      eq\n      tag_3\n      jumpi\n      dup1\n      0x2ebce631\n      eq\n      tag_4\n      jumpi\n      dup1\n      0x6057361d\n      eq\n      tag_5\n      jumpi\n      dup1\n      0x6f760f41\n      eq\n      tag_6\n      jumpi\n    tag_2:\n      revert(0x00, 0x00)\n        /* \"SimpleStorage.sol\":487:576  function retrieve() public view returns(uint256) {... */\n    tag_3:\n      tag_12\n      tag_13\n      jump\t// in\n    tag_12:\n      mload(0x40)\n      tag_14\n      swap2\n      swap1\n      tag_15\n      jump\t// in\n    tag_14:\n      mload(0x40)\n      dup1\n      swap2\n      sub\n      swap1\n      return\n        /* \"SimpleStorage.sol\":598:626  Person[] public listOfPeople */\n    tag_4:\n      tag_16\n      0x04\n      dup1\n      calldatasize\n      sub\n      dup2\n      add\n      swap1\n      tag_17\n      swap2\n      swap1\n      tag_18\n      jump\t// in\n    tag_17:\n      tag_19\n      jump\t// in\n    tag_16:\n      mload(0x40)\n      tag_20\n      swap3\n      swap2\n      swap1\n      tag_21\n      jump\t// in\n    tag_20:\n      mload(0x40)\n      dup1\n      swap2\n      sub\n      swap1\n      return\n        /* \"SimpleStorage.sol\":330:428  function store(uint256 _favoriteNumber) public {... */\n    tag_5:\n      tag_22\n      0x04\n      dup1\n      calldatasize\n      sub\n      dup2\n      add\n      swap1\n      tag_23\n      swap2\n      swap1\n      tag_18\n      jump\t// in\n    tag_23:\n      tag_24\n      jump\t// in\n    tag_22:\n      stop\n        /* \"SimpleStorage.sol\":907:1149  function addPerson(string memory _name, uint256 _favoriteNumber) public {... */\n    tag_6:\n      tag_25\n      0x04\n      dup1\n      calldatasize\n      sub\n      dup2\n      add\n      swap1\n      tag_26\n      swap2\n      swap1\n      tag_27\n      jump\t// in\n    tag_26:\n      tag_28\n      jump\t// in\n    tag_25:\n      stop\n        /* \"SimpleStorage.sol\":840:898  Person public KK = Person({favoriteNumber: 8, name: \"KK\"}) */\n    tag_7:\n      tag_29\n      tag_30\n      jump\t// in\n    tag_29:\n      mload(0x40)\n      tag_31\n      swap3\n      swap2\n      swap1\n      tag_21\n      jump\t// in\n    tag_31:\n      mload(0x40)\n      dup1\n      swap2\n      sub\n      swap1\n      return\n        /* \"SimpleStorage.sol\":735:790  mapping (string => uint256) public nameToFavoriteNumber */\n    tag_8:\n      tag_32\n      0x04\n      dup1\n      calldatasize\n      sub\n      dup2\n      add\n      swap1\n      tag_33\n      swap2\n      swap1\n      tag_34\n      jump\t// in\n    tag_33:\n      tag_35\n      jump\t// in\n    tag_32:\n      mload(0x40)\n      tag_36\n      swap2\n      swap1\n      tag_15\n      jump\t// in\n    tag_36:\n      mload(0x40)\n      dup1\n      swap2\n      sub\n      swap1\n      return\n        /* \"SimpleStorage.sol\":799:833  Person public JJ = Person(7, \"JJ\") */\n    tag_9:\n      tag_37\n      tag_38\n      jump\t// in\n    tag_37:\n      mload(0x40)\n      tag_39\n      swap3\n      swap2\n      swap1\n      tag_21\n      jump\t// in\n    tag_39:\n      mload(0x40)\n      dup1\n      swap2\n      sub\n      swap1\n      return\n        /* \"SimpleStorage.sol\":1191:1380  function addPerson2(string calldata _name, uint256 _favoriteNumber) public {... */\n    tag_10:\n      tag_40\n      0x04\n      dup1\n      calldatasize\n      sub\n      dup2\n      add\n      swap1\n      tag_41\n      swap2\n      swap1\n      tag_42\n      jump\t// in\n    tag_41:\n      tag_43\n      jump\t// in\n    tag_40:\n      stop\n        /* \"SimpleStorage.sol\":487:576  function retrieve() public view returns(uint256) {... */\n    tag_13:\n        /* \"SimpleStorage.sol\":527:534  uint256 */\n      0x00\n        /* \"SimpleStorage.sol\":554:568  favoriteNumber */\n      sload(0x00)\n        /* \"SimpleStorage.sol\":547:568  return favoriteNumber */\n      swap1\n      pop\n        /* \"SimpleStorage.sol\":487:576  function retrieve() public view returns(uint256) {... */\n      swap1\n      jump\t// out\n        /* \"SimpleStorage.sol\":598:626  Person[] public listOfPeople */\n    tag_19:\n      0x01\n      dup2\n      dup2\n      sload\n      dup2\n      lt\n      tag_45\n      jumpi\n      0x00\n      dup1\n      revert\n    tag_45:\n      swap1\n      0x00\n      mstore\n      keccak256(0x00, 0x20)\n      swap1\n      0x02\n      mul\n      add\n      0x00\n      swap2\n      pop\n      swap1\n      pop\n      dup1\n      0x00\n      add\n      sload\n      swap1\n      dup1\n      0x01\n      add\n      dup1\n      sload\n      tag_47\n      swap1\n      tag_48\n      jump\t// in\n    tag_47:\n      dup1\n      0x1f\n      add\n      0x20\n      dup1\n      swap2\n      div\n      mul\n      0x20\n      add\n      mload(0x40)\n      swap1\n      dup2\n      add\n      0x40\n      mstore\n      dup1\n      swap3\n      swap2\n      swap1\n      dup2\n      dup2\n      mstore\n      0x20\n      add\n      dup3\n      dup1\n      sload\n      tag_49\n      swap1\n      tag_48\n      jump\t// in\n    tag_49:\n      dup1\n      iszero\n      tag_50\n      jumpi\n      dup1\n      0x1f\n      lt\n      tag_51\n      jumpi\n      0x0100\n      dup1\n      dup4\n      sload\n      div\n      mul\n      dup4\n      mstore\n      swap2\n      0x20\n      add\n      swap2\n      jump(tag_50)\n    tag_51:\n      dup3\n      add\n      swap2\n      swap1\n      0x00\n      mstore\n      keccak256(0x00, 0x20)\n      swap1\n    tag_52:\n      dup2\n      sload\n      dup2\n      mstore\n      swap1\n      0x01\n      add\n      swap1\n      0x20\n      add\n      dup1\n      dup4\n      gt\n      tag_52\n      jumpi\n      dup3\n      swap1\n      sub\n      0x1f\n      and\n      dup3\n      add\n      swap2\n    tag_50:\n      pop\n      pop\n      pop\n      pop\n      pop\n      swap1\n      pop\n      dup3\n      jump\t// out\n        /* \"SimpleStorage.sol\":330:428  function store(uint256 _favoriteNumber) public {... */\n    tag_24:\n        /* \"SimpleStorage.sol\":405:420  _favoriteNumber */\n      dup1\n        /* \"SimpleStorage.sol\":388:402  favoriteNumber */\n      0x00\n        /* \"SimpleStorage.sol\":388:420  favoriteNumber = _favoriteNumber */\n      dup2\n      swap1\n      sstore\n      pop\n        /* \"SimpleStorage.sol\":330:428  function store(uint256 _favoriteNumber) public {... */\n      pop\n      jump\t// out\n        /* \"SimpleStorage.sol\":907:1149  function addPerson(string memory _name, uint256 _favoriteNumber) public {... */\n    tag_28:\n        /* \"SimpleStorage.sol\":990:1013  Person memory newPerson */\n      0x00\n        /* \"SimpleStorage.sol\":1016:1046  Person(_favoriteNumber, _name) */\n      mload(0x40)\n      dup1\n      0x40\n      add\n      0x40\n      mstore\n      dup1\n        /* \"SimpleStorage.sol\":1023:1038  _favoriteNumber */\n      dup4\n        /* \"SimpleStorage.sol\":1016:1046  Person(_favoriteNumber, _name) */\n      dup2\n      mstore\n      0x20\n      add\n        /* \"SimpleStorage.sol\":1040:1045  _name */\n      dup5\n        /* \"SimpleStorage.sol\":1016:1046  Person(_favoriteNumber, _name) */\n      dup2\n      mstore\n      pop\n        /* \"SimpleStorage.sol\":990:1046  Person memory newPerson = Person(_favoriteNumber, _name) */\n      swap1\n      pop\n        /* \"SimpleStorage.sol\":1057:1069  listOfPeople */\n      0x01\n        /* \"SimpleStorage.sol\":1075:1084  newPerson */\n      dup2\n        /* \"SimpleStorage.sol\":1057:1085  listOfPeople.push(newPerson) */\n      swap1\n      dup1\n      0x01\n      dup2\n      sload\n      add\n      dup1\n      dup3\n      sstore\n      dup1\n      swap2\n      pop\n      pop\n      0x01\n      swap1\n      sub\n      swap1\n      0x00\n      mstore\n      keccak256(0x00, 0x20)\n      swap1\n      0x02\n      mul\n      add\n      0x00\n      swap1\n      swap2\n      swap1\n      swap2\n      swap1\n      swap2\n      pop\n      0x00\n      dup3\n      add\n      mload\n      dup2\n      0x00\n      add\n      sstore\n      0x20\n      dup3\n      add\n      mload\n      dup2\n      0x01\n      add\n      swap1\n      dup2\n      tag_56\n      swap2\n      swap1\n      tag_57\n      jump\t// in\n    tag_56:\n      pop\n      pop\n      pop\n        /* \"SimpleStorage.sol\":1126:1141  _favoriteNumber */\n      dup2\n        /* \"SimpleStorage.sol\":1096:1116  nameToFavoriteNumber */\n      0x02\n        /* \"SimpleStorage.sol\":1117:1122  _name */\n      dup5\n        /* \"SimpleStorage.sol\":1096:1123  nameToFavoriteNumber[_name] */\n      mload(0x40)\n      tag_58\n      swap2\n      swap1\n      tag_59\n      jump\t// in\n    tag_58:\n      swap1\n      dup2\n      mstore\n      0x20\n      add\n      mload(0x40)\n      dup1\n      swap2\n      sub\n      swap1\n      keccak256\n        /* \"SimpleStorage.sol\":1096:1141  nameToFavoriteNumber[_name] = _favoriteNumber */\n      dup2\n      swap1\n      sstore\n      pop\n        /* \"SimpleStorage.sol\":979:1149  {... */\n      pop\n        /* \"SimpleStorage.sol\":907:1149  function addPerson(string memory _name, uint256 _favoriteNumber) public {... */\n      pop\n      pop\n      jump\t// out\n        /* \"SimpleStorage.sol\":840:898  Person public KK = Person({favoriteNumber: 8, name: \"KK\"}) */\n    tag_30:\n      0x05\n      dup1\n      0x00\n      add\n      sload\n      swap1\n      dup1\n      0x01\n      add\n      dup1\n      sload\n      tag_60\n      swap1\n      tag_48\n      jump\t// in\n    tag_60:\n      dup1\n      0x1f\n      add\n      0x20\n      dup1\n      swap2\n      div\n      mul\n      0x20\n      add\n      mload(0x40)\n      swap1\n      dup2\n      add\n      0x40\n      mstore\n      dup1\n      swap3\n      swap2\n      swap1\n      dup2\n      dup2\n      mstore\n      0x20\n      add\n      dup3\n      dup1\n      sload\n      tag_61\n      swap1\n      tag_48\n      jump\t// in\n    tag_61:\n      dup1\n      iszero\n      tag_62\n      jumpi\n      dup1\n      0x1f\n      lt\n      tag_63\n      jumpi\n      0x0100\n      dup1\n      dup4\n      sload\n      div\n      mul\n      dup4\n      mstore\n      swap2\n      0x20\n      add\n      swap2\n      jump(tag_62)\n    tag_63:\n      dup3\n      add\n      swap2\n      swap1\n      0x00\n      mstore\n      keccak256(0x00, 0x20)\n      swap1\n    tag_64:\n      dup2\n      sload\n      dup2\n      mstore\n      swap1\n      0x01\n      add\n      swap1\n      0x20\n      add\n      dup1\n      dup4\n      gt\n      tag_64\n      jumpi\n      dup3\n      swap1\n      sub\n      0x1f\n      and\n      dup3\n      add\n      swap2\n    tag_62:\n      pop\n      pop\n      pop\n      pop\n      pop\n      swap1\n      pop\n      dup3\n      jump\t// out\n        /* \"SimpleStorage.sol\":735:790  mapping (string => uint256) public nameToFavoriteNumber */\n    tag_35:\n      0x02\n      dup2\n      dup1\n      mload\n      0x20\n      dup2\n      add\n      dup3\n      add\n      dup1\n      mload\n      dup5\n      dup3\n      mstore\n      0x20\n      dup4\n      add\n      0x20\n      dup6\n      add\n      keccak256\n      dup2\n      dup4\n      mstore\n      dup1\n      swap6\n      pop\n      pop\n      pop\n      pop\n      pop\n      pop\n      0x00\n      swap2\n      pop\n      swap1\n      pop\n      sload\n      dup2\n      jump\t// out\n        /* \"SimpleStorage.sol\":799:833  Person public JJ = Person(7, \"JJ\") */\n    tag_38:\n      0x03\n      dup1\n      0x00\n      add\n      sload\n      swap1\n      dup1\n      0x01\n      add\n      dup1\n      sload\n      tag_65\n      swap1\n      tag_48\n      jump\t// in\n    tag_65:\n      dup1\n      0x1f\n      add\n      0x20\n      dup1\n      swap2\n      div\n      mul\n      0x20\n      add\n      mload(0x40)\n      swap1\n      dup2\n      add\n      0x40\n      mstore\n      dup1\n      swap3\n      swap2\n      swap1\n      dup2\n      dup2\n      mstore\n      0x20\n      add\n      dup3\n      dup1\n      sload\n      tag_66\n      swap1\n      tag_48\n      jump\t// in\n    tag_66:\n      dup1\n      iszero\n      tag_67\n      jumpi\n      dup1\n      0x1f\n      lt\n      tag_68\n      jumpi\n      0x0100\n      dup1\n      dup4\n      sload\n      div\n      mul\n      dup4\n      mstore\n      swap2\n      0x20\n      add\n      swap2\n      jump(tag_67)\n    tag_68:\n      dup3\n      add\n      swap2\n      swap1\n      0x00\n      mstore\n      keccak256(0x00, 0x20)\n      swap1\n    tag_69:\n      dup2\n      sload\n      dup2\n      mstore\n      swap1\n      0x01\n      add\n      swap1\n      0x20\n      add\n      dup1\n      dup4\n      gt\n      tag_69\n      jumpi\n      dup3\n      swap1\n      sub\n      0x1f\n      and\n      dup3\n      add\n      swap2\n    tag_67:\n      pop\n      pop\n      pop\n      pop\n      pop\n      swap1\n      pop\n      dup3\n      jump\t// out\n        /* \"SimpleStorage.sol\":1191:1380  function addPerson2(string calldata _name, uint256 _favoriteNumber) public {... */\n    tag_43:\n        /* \"SimpleStorage.sol\":1277:1300  Person memory newPerson */\n      0x00\n        /* \"SimpleStorage.sol\":1303:1333  Person(_favoriteNumber, _name) */\n      mload(0x40)\n      dup1\n      0x40\n      add\n      0x40\n      mstore\n      dup1\n        /* \"SimpleStorage.sol\":1310:1325  _favoriteNumber */\n      dup4\n        /* \"SimpleStorage.sol\":1303:1333  Person(_favoriteNumber, _name) */\n      dup2\n      mstore\n      0x20\n      add\n        /* \"SimpleStorage.sol\":1327:1332  _name */\n      dup6\n      dup6\n        /* \"SimpleStorage.sol\":1303:1333  Person(_favoriteNumber, _name) */\n      dup1\n      dup1\n      0x1f\n      add\n      0x20\n      dup1\n      swap2\n      div\n      mul\n      0x20\n      add\n      mload(0x40)\n      swap1\n      dup2\n      add\n      0x40\n      mstore\n      dup1\n      swap4\n      swap3\n      swap2\n      swap1\n      dup2\n      dup2\n      mstore\n      0x20\n      add\n      dup4\n      dup4\n      dup1\n      dup3\n      dup5\n      calldatacopy\n      0x00\n      dup2\n      dup5\n      add\n      mstore\n      not(0x1f)\n      0x1f\n      dup3\n      add\n      and\n      swap1\n      pop\n      dup1\n      dup4\n      add\n      swap3\n      pop\n      pop\n      pop\n      pop\n      pop\n      pop\n      pop\n      dup2\n      mstore\n      pop\n        /* \"SimpleStorage.sol\":1277:1333  Person memory newPerson = Person(_favoriteNumber, _name) */\n      swap1\n      pop\n        /* \"SimpleStorage.sol\":1344:1356  listOfPeople */\n      0x01\n        /* \"SimpleStorage.sol\":1362:1371  newPerson */\n      dup2\n        /* \"SimpleStorage.sol\":1344:1372  listOfPeople.push(newPerson) */\n      swap1\n      dup1\n      0x01\n      dup2\n      sload\n      add\n      dup1\n      dup3\n      sstore\n      dup1\n      swap2\n      pop\n      pop\n      0x01\n      swap1\n      sub\n      swap1\n      0x00\n      mstore\n      keccak256(0x00, 0x20)\n      swap1\n      0x02\n      mul\n      add\n      0x00\n      swap1\n      swap2\n      swap1\n      swap2\n      swap1\n      swap2\n      pop\n      0x00\n      dup3\n      add\n      mload\n      dup2\n      0x00\n      add\n      sstore\n      0x20\n      dup3\n      add\n      mload\n      dup2\n      0x01\n      add\n      swap1\n      dup2\n      tag_72\n      swap2\n      swap1\n      tag_57\n      jump\t// in\n    tag_72:\n      pop\n      pop\n      pop\n        /* \"SimpleStorage.sol\":1266:1380  {... */\n      pop\n        /* \"SimpleStorage.sol\":1191:1380  function addPerson2(string calldata _name, uint256 _favoriteNumber) public {... */\n      pop\n      pop\n      pop\n      jump\t// out\n        /* \"#utility.yul\":7:84   */\n    tag_73:\n        /* \"#utility.yul\":44:51   */\n      0x00\n        /* \"#utility.yul\":73:78   */\n      dup2\n        /* \"#utility.yul\":62:78   */\n      swap1\n      pop\n        /* \"#utility.yul\":7:84   */\n      swap2\n      swap1\n      pop\n      jump\t// out\n        /* \"#utility.yul\":90:208   */\n    tag_74:\n        /* \"#utility.yul\":177:201   */\n      tag_118\n        /* \"#utility.yul\":195:200   */\n      dup2\n        /* \"#utility.yul\":177:201   */\n      tag_73\n      jump\t// in\n    tag_118:\n        /* \"#utility.yul\":172:175   */\n      dup3\n        /* \"#utility.yul\":165:202   */\n      mstore\n        /* \"#utility.yul\":90:208   */\n      pop\n      pop\n      jump\t// out\n        /* \"#utility.yul\":214:436   */\n    tag_15:\n        /* \"#utility.yul\":307:311   */\n      0x00\n        /* \"#utility.yul\":345:347   */\n      0x20\n        /* \"#utility.yul\":334:343   */\n      dup3\n        /* \"#utility.yul\":330:348   */\n      add\n        /* \"#utility.yul\":322:348   */\n      swap1\n      pop\n        /* \"#utility.yul\":358:429   */\n      tag_120\n        /* \"#utility.yul\":426:427   */\n      0x00\n        /* \"#utility.yul\":415:424   */\n      dup4\n        /* \"#utility.yul\":411:428   */\n      add\n        /* \"#utility.yul\":402:408   */\n      dup5\n        /* \"#utility.yul\":358:429   */\n      tag_74\n      jump\t// in\n    tag_120:\n        /* \"#utility.yul\":214:436   */\n      swap3\n      swap2\n      pop\n      pop\n      jump\t// out\n        /* \"#utility.yul\":442:517   */\n    tag_75:\n        /* \"#utility.yul\":475:481   */\n      0x00\n        /* \"#utility.yul\":508:510   */\n      0x40\n        /* \"#utility.yul\":502:511   */\n      mload\n        /* \"#utility.yul\":492:511   */\n      swap1\n      pop\n        /* \"#utility.yul\":442:517   */\n      swap1\n      jump\t// out\n        /* \"#utility.yul\":523:640   */\n    tag_76:\n        /* \"#utility.yul\":632:633   */\n      0x00\n        /* \"#utility.yul\":629:630   */\n      0x00\n        /* \"#utility.yul\":622:634   */\n      revert\n        /* \"#utility.yul\":646:763   */\n    tag_77:\n        /* \"#utility.yul\":755:756   */\n      0x00\n        /* \"#utility.yul\":752:753   */\n      0x00\n        /* \"#utility.yul\":745:757   */\n      revert\n        /* \"#utility.yul\":769:891   */\n    tag_78:\n        /* \"#utility.yul\":842:866   */\n      tag_125\n        /* \"#utility.yul\":860:865   */\n      dup2\n        /* \"#utility.yul\":842:866   */\n      tag_73\n      jump\t// in\n    tag_125:\n        /* \"#utility.yul\":835:840   */\n      dup2\n        /* \"#utility.yul\":832:867   */\n      eq\n        /* \"#utility.yul\":822:885   */\n      tag_126\n      jumpi\n        /* \"#utility.yul\":881:882   */\n      0x00\n        /* \"#utility.yul\":878:879   */\n      0x00\n        /* \"#utility.yul\":871:883   */\n      revert\n        /* \"#utility.yul\":822:885   */\n    tag_126:\n        /* \"#utility.yul\":769:891   */\n      pop\n      jump\t// out\n        /* \"#utility.yul\":897:1036   */\n    tag_79:\n        /* \"#utility.yul\":943:948   */\n      0x00\n        /* \"#utility.yul\":981:987   */\n      dup2\n        /* \"#utility.yul\":968:988   */\n      calldataload\n        /* \"#utility.yul\":959:988   */\n      swap1\n      pop\n        /* \"#utility.yul\":997:1030   */\n      tag_128\n        /* \"#utility.yul\":1024:1029   */\n      dup2\n        /* \"#utility.yul\":997:1030   */\n      tag_78\n      jump\t// in\n    tag_128:\n        /* \"#utility.yul\":897:1036   */\n      swap3\n      swap2\n      pop\n      pop\n      jump\t// out\n        /* \"#utility.yul\":1042:1371   */\n    tag_18:\n        /* \"#utility.yul\":1101:1107   */\n      0x00\n        /* \"#utility.yul\":1150:1152   */\n      0x20\n        /* \"#utility.yul\":1138:1147   */\n      dup3\n        /* \"#utility.yul\":1129:1136   */\n      dup5\n        /* \"#utility.yul\":1125:1148   */\n      sub\n        /* \"#utility.yul\":1121:1153   */\n      slt\n        /* \"#utility.yul\":1118:1237   */\n      iszero\n      tag_130\n      jumpi\n        /* \"#utility.yul\":1156:1235   */\n      tag_131\n      tag_76\n      jump\t// in\n    tag_131:\n        /* \"#utility.yul\":1118:1237   */\n    tag_130:\n        /* \"#utility.yul\":1276:1277   */\n      0x00\n        /* \"#utility.yul\":1301:1354   */\n      tag_132\n        /* \"#utility.yul\":1346:1353   */\n      dup5\n        /* \"#utility.yul\":1337:1343   */\n      dup3\n        /* \"#utility.yul\":1326:1335   */\n      dup6\n        /* \"#utility.yul\":1322:1344   */\n      add\n        /* \"#utility.yul\":1301:1354   */\n      tag_79\n      jump\t// in\n    tag_132:\n        /* \"#utility.yul\":1291:1354   */\n      swap2\n      pop\n        /* \"#utility.yul\":1247:1364   */\n      pop\n        /* \"#utility.yul\":1042:1371   */\n      swap3\n      swap2\n      pop\n      pop\n      jump\t// out\n        /* \"#utility.yul\":1377:1476   */\n    tag_80:\n        /* \"#utility.yul\":1429:1435   */\n      0x00\n        /* \"#utility.yul\":1463:1468   */\n      dup2\n        /* \"#utility.yul\":1457:1469   */\n      mload\n        /* \"#utility.yul\":1447:1469   */\n      swap1\n      pop\n        /* \"#utility.yul\":1377:1476   */\n      swap2\n      swap1\n      pop\n      jump\t// out\n        /* \"#utility.yul\":1482:1651   */\n    tag_81:\n        /* \"#utility.yul\":1566:1577   */\n      0x00\n        /* \"#utility.yul\":1600:1606   */\n      dup3\n        /* \"#utility.yul\":1595:1598   */\n      dup3\n        /* \"#utility.yul\":1588:1607   */\n      mstore\n        /* \"#utility.yul\":1640:1644   */\n      0x20\n        /* \"#utility.yul\":1635:1638   */\n      dup3\n        /* \"#utility.yul\":1631:1645   */\n      add\n        /* \"#utility.yul\":1616:1645   */\n      swap1\n      pop\n        /* \"#utility.yul\":1482:1651   */\n      swap3\n      swap2\n      pop\n      pop\n      jump\t// out\n        /* \"#utility.yul\":1657:1796   */\n    tag_82:\n        /* \"#utility.yul\":1746:1752   */\n      dup3\n        /* \"#utility.yul\":1741:1744   */\n      dup2\n        /* \"#utility.yul\":1736:1739   */\n      dup4\n        /* \"#utility.yul\":1730:1753   */\n      mcopy\n        /* \"#utility.yul\":1787:1788   */\n      0x00\n        /* \"#utility.yul\":1778:1784   */\n      dup4\n        /* \"#utility.yul\":1773:1776   */\n      dup4\n        /* \"#utility.yul\":1769:1785   */\n      add\n        /* \"#utility.yul\":1762:1789   */\n      mstore\n        /* \"#utility.yul\":1657:1796   */\n      pop\n      pop\n      pop\n      jump\t// out\n        /* \"#utility.yul\":1802:1904   */\n    tag_83:\n        /* \"#utility.yul\":1843:1849   */\n      0x00\n        /* \"#utility.yul\":1894:1896   */\n      0x1f\n        /* \"#utility.yul\":1890:1897   */\n      not\n        /* \"#utility.yul\":1885:1887   */\n      0x1f\n        /* \"#utility.yul\":1878:1883   */\n      dup4\n        /* \"#utility.yul\":1874:1888   */\n      add\n        /* \"#utility.yul\":1870:1898   */\n      and\n        /* \"#utility.yul\":1860:1898   */\n      swap1\n      pop\n        /* \"#utility.yul\":1802:1904   */\n      swap2\n      swap1\n      pop\n      jump\t// out\n        /* \"#utility.yul\":1910:2287   */\n    tag_84:\n        /* \"#utility.yul\":1998:2001   */\n      0x00\n        /* \"#utility.yul\":2026:2065   */\n      tag_138\n        /* \"#utility.yul\":2059:2064   */\n      dup3\n        /* \"#utility.yul\":2026:2065   */\n      tag_80\n      jump\t// in\n    tag_138:\n        /* \"#utility.yul\":2081:2152   */\n      tag_139\n        /* \"#utility.yul\":2145:2151   */\n      dup2\n        /* \"#utility.yul\":2140:2143   */\n      dup6\n        /* \"#utility.yul\":2081:2152   */\n      tag_81\n      jump\t// in\n    tag_139:\n        /* \"#utility.yul\":2074:2152   */\n      swap4\n      pop\n        /* \"#utility.yul\":2161:2226   */\n      tag_140\n        /* \"#utility.yul\":2219:2225   */\n      dup2\n        /* \"#utility.yul\":2214:2217   */\n      dup6\n        /* \"#utility.yul\":2207:2211   */\n      0x20\n        /* \"#utility.yul\":2200:2205   */\n      dup7\n        /* \"#utility.yul\":2196:2212   */\n      add\n        /* \"#utility.yul\":2161:2226   */\n      tag_82\n      jump\t// in\n    tag_140:\n        /* \"#utility.yul\":2251:2280   */\n      tag_141\n        /* \"#utility.yul\":2273:2279   */\n      dup2\n        /* \"#utility.yul\":2251:2280   */\n      tag_83\n      jump\t// in\n    tag_141:\n        /* \"#utility.yul\":2246:2249   */\n      dup5\n        /* \"#utility.yul\":2242:2281   */\n      add\n        /* \"#utility.yul\":2235:2281   */\n      swap2\n      pop\n        /* \"#utility.yul\":2002:2287   */\n      pop\n        /* \"#utility.yul\":1910:2287   */\n      swap3\n      swap2\n      pop\n      pop\n      jump\t// out\n        /* \"#utility.yul\":2293:2716   */\n    tag_21:\n        /* \"#utility.yul\":2434:2438   */\n      0x00\n        /* \"#utility.yul\":2472:2474   */\n      0x40\n        /* \"#utility.yul\":2461:2470   */\n      dup3\n        /* \"#utility.yul\":2457:2475   */\n      add\n        /* \"#utility.yul\":2449:2475   */\n      swap1\n      pop\n        /* \"#utility.yul\":2485:2556   */\n      tag_143\n        /* \"#utility.yul\":2553:2554   */\n      0x00\n        /* \"#utility.yul\":2542:2551   */\n      dup4\n        /* \"#utility.yul\":2538:2555   */\n      add\n        /* \"#utility.yul\":2529:2535   */\n      dup6\n        /* \"#utility.yul\":2485:2556   */\n      tag_74\n      jump\t// in\n    tag_143:\n        /* \"#utility.yul\":2603:2612   */\n      dup2\n        /* \"#utility.yul\":2597:2601   */\n      dup2\n        /* \"#utility.yul\":2593:2613   */\n      sub\n        /* \"#utility.yul\":2588:2590   */\n      0x20\n        /* \"#utility.yul\":2577:2586   */\n      dup4\n        /* \"#utility.yul\":2573:2591   */\n      add\n        /* \"#utility.yul\":2566:2614   */\n      mstore\n        /* \"#utility.yul\":2631:2709   */\n      tag_144\n        /* \"#utility.yul\":2704:2708   */\n      dup2\n        /* \"#utility.yul\":2695:2701   */\n      dup5\n        /* \"#utility.yul\":2631:2709   */\n      tag_84\n      jump\t// in\n    tag_144:\n        /* \"#utility.yul\":2623:2709   */\n      swap1\n      pop\n        /* \"#utility.yul\":2293:2716   */\n      swap4\n      swap3\n      pop\n      pop\n      pop\n      jump\t// out\n        /* \"#utility.yul\":2722:2839   */\n    tag_85:\n        /* \"#utility.yul\":2831:2832   */\n      0x00\n        /* \"#utility.yul\":2828:2829   */\n      0x00\n        /* \"#utility.yul\":2821:2833   */\n      revert\n        /* \"#utility.yul\":2845:2962   */\n    tag_86:\n        /* \"#utility.yul\":2954:2955   */\n      0x00\n        /* \"#utility.yul\":2951:2952   */\n      0x00\n        /* \"#utility.yul\":2944:2956   */\n      revert\n        /* \"#utility.yul\":2968:3148   */\n    tag_87:\n        /* \"#utility.yul\":3016:3093   */\n      0x4e487b7100000000000000000000000000000000000000000000000000000000\n        /* \"#utility.yul\":3013:3014   */\n      0x00\n        /* \"#utility.yul\":3006:3094   */\n      mstore\n        /* \"#utility.yul\":3113:3117   */\n      0x41\n        /* \"#utility.yul\":3110:3111   */\n      0x04\n        /* \"#utility.yul\":3103:3118   */\n      mstore\n        /* \"#utility.yul\":3137:3141   */\n      0x24\n        /* \"#utility.yul\":3134:3135   */\n      0x00\n        /* \"#utility.yul\":3127:3142   */\n      revert\n        /* \"#utility.yul\":3154:3435   */\n    tag_88:\n        /* \"#utility.yul\":3237:3264   */\n      tag_149\n        /* \"#utility.yul\":3259:3263   */\n      dup3\n        /* \"#utility.yul\":3237:3264   */\n      tag_83\n      jump\t// in\n    tag_149:\n        /* \"#utility.yul\":3229:3235   */\n      dup2\n        /* \"#utility.yul\":3225:3265   */\n      add\n        /* \"#utility.yul\":3367:3373   */\n      dup2\n        /* \"#utility.yul\":3355:3365   */\n      dup2\n        /* \"#utility.yul\":3352:3374   */\n      lt\n        /* \"#utility.yul\":3331:3349   */\n      0xffffffffffffffff\n        /* \"#utility.yul\":3319:3329   */\n      dup3\n        /* \"#utility.yul\":3316:3350   */\n      gt\n        /* \"#utility.yul\":3313:3375   */\n      or\n        /* \"#utility.yul\":3310:3398   */\n      iszero\n      tag_150\n      jumpi\n        /* \"#utility.yul\":3378:3396   */\n      tag_151\n      tag_87\n      jump\t// in\n    tag_151:\n        /* \"#utility.yul\":3310:3398   */\n    tag_150:\n        /* \"#utility.yul\":3418:3428   */\n      dup1\n        /* \"#utility.yul\":3414:3416   */\n      0x40\n        /* \"#utility.yul\":3407:3429   */\n      mstore\n        /* \"#utility.yul\":3197:3435   */\n      pop\n        /* \"#utility.yul\":3154:3435   */\n      pop\n      pop\n      jump\t// out\n        /* \"#utility.yul\":3441:3570   */\n    tag_89:\n        /* \"#utility.yul\":3475:3481   */\n      0x00\n        /* \"#utility.yul\":3502:3522   */\n      tag_153\n      tag_75\n      jump\t// in\n    tag_153:\n        /* \"#utility.yul\":3492:3522   */\n      swap1\n      pop\n        /* \"#utility.yul\":3531:3564   */\n      tag_154\n        /* \"#utility.yul\":3559:3563   */\n      dup3\n        /* \"#utility.yul\":3551:3557   */\n      dup3\n        /* \"#utility.yul\":3531:3564   */\n      tag_88\n      jump\t// in\n    tag_154:\n        /* \"#utility.yul\":3441:3570   */\n      swap2\n      swap1\n      pop\n      jump\t// out\n        /* \"#utility.yul\":3576:3884   */\n    tag_90:\n        /* \"#utility.yul\":3638:3642   */\n      0x00\n        /* \"#utility.yul\":3728:3746   */\n      0xffffffffffffffff\n        /* \"#utility.yul\":3720:3726   */\n      dup3\n        /* \"#utility.yul\":3717:3747   */\n      gt\n        /* \"#utility.yul\":3714:3770   */\n      iszero\n      tag_156\n      jumpi\n        /* \"#utility.yul\":3750:3768   */\n      tag_157\n      tag_87\n      jump\t// in\n    tag_157:\n        /* \"#utility.yul\":3714:3770   */\n    tag_156:\n        /* \"#utility.yul\":3788:3817   */\n      tag_158\n        /* \"#utility.yul\":3810:3816   */\n      dup3\n        /* \"#utility.yul\":3788:3817   */\n      tag_83\n      jump\t// in\n    tag_158:\n        /* \"#utility.yul\":3780:3817   */\n      swap1\n      pop\n        /* \"#utility.yul\":3872:3876   */\n      0x20\n        /* \"#utility.yul\":3866:3870   */\n      dup2\n        /* \"#utility.yul\":3862:3877   */\n      add\n        /* \"#utility.yul\":3854:3877   */\n      swap1\n      pop\n        /* \"#utility.yul\":3576:3884   */\n      swap2\n      swap1\n      pop\n      jump\t// out\n        /* \"#utility.yul\":3890:4038   */\n    tag_91:\n        /* \"#utility.yul\":3988:3994   */\n      dup3\n        /* \"#utility.yul\":3983:3986   */\n      dup2\n        /* \"#utility.yul\":3978:3981   */\n      dup4\n        /* \"#utility.yul\":3965:3995   */\n      calldatacopy\n        /* \"#utility.yul\":4029:4030   */\n      0x00\n        /* \"#utility.yul\":4020:4026   */\n      dup4\n        /* \"#utility.yul\":4015:4018   */\n      dup4\n        /* \"#utility.yul\":4011:4027   */\n      add\n        /* \"#utility.yul\":4004:4031   */\n      mstore\n        /* \"#utility.yul\":3890:4038   */\n      pop\n      pop\n      pop\n      jump\t// out\n        /* \"#utility.yul\":4044:4469   */\n    tag_92:\n        /* \"#utility.yul\":4122:4127   */\n      0x00\n        /* \"#utility.yul\":4147:4213   */\n      tag_161\n        /* \"#utility.yul\":4163:4212   */\n      tag_162\n        /* \"#utility.yul\":4205:4211   */\n      dup5\n        /* \"#utility.yul\":4163:4212   */\n      tag_90\n      jump\t// in\n    tag_162:\n        /* \"#utility.yul\":4147:4213   */\n      tag_89\n      jump\t// in\n    tag_161:\n        /* \"#utility.yul\":4138:4213   */\n      swap1\n      pop\n        /* \"#utility.yul\":4236:4242   */\n      dup3\n        /* \"#utility.yul\":4229:4234   */\n      dup2\n        /* \"#utility.yul\":4222:4243   */\n      mstore\n        /* \"#utility.yul\":4274:4278   */\n      0x20\n        /* \"#utility.yul\":4267:4272   */\n      dup2\n        /* \"#utility.yul\":4263:4279   */\n      add\n        /* \"#utility.yul\":4312:4315   */\n      dup5\n        /* \"#utility.yul\":4303:4309   */\n      dup5\n        /* \"#utility.yul\":4298:4301   */\n      dup5\n        /* \"#utility.yul\":4294:4310   */\n      add\n        /* \"#utility.yul\":4291:4316   */\n      gt\n        /* \"#utility.yul\":4288:4400   */\n      iszero\n      tag_163\n      jumpi\n        /* \"#utility.yul\":4319:4398   */\n      tag_164\n      tag_86\n      jump\t// in\n    tag_164:\n        /* \"#utility.yul\":4288:4400   */\n    tag_163:\n        /* \"#utility.yul\":4409:4463   */\n      tag_165\n        /* \"#utility.yul\":4456:4462   */\n      dup5\n        /* \"#utility.yul\":4451:4454   */\n      dup3\n        /* \"#utility.yul\":4446:4449   */\n      dup6\n        /* \"#utility.yul\":4409:4463   */\n      tag_91\n      jump\t// in\n    tag_165:\n        /* \"#utility.yul\":4128:4469   */\n      pop\n        /* \"#utility.yul\":4044:4469   */\n      swap4\n      swap3\n      pop\n      pop\n      pop\n      jump\t// out\n        /* \"#utility.yul\":4489:4829   */\n    tag_93:\n        /* \"#utility.yul\":4545:4550   */\n      0x00\n        /* \"#utility.yul\":4594:4597   */\n      dup3\n        /* \"#utility.yul\":4587:4591   */\n      0x1f\n        /* \"#utility.yul\":4579:4585   */\n      dup4\n        /* \"#utility.yul\":4575:4592   */\n      add\n        /* \"#utility.yul\":4571:4598   */\n      slt\n        /* \"#utility.yul\":4561:4683   */\n      tag_167\n      jumpi\n        /* \"#utility.yul\":4602:4681   */\n      tag_168\n      tag_85\n      jump\t// in\n    tag_168:\n        /* \"#utility.yul\":4561:4683   */\n    tag_167:\n        /* \"#utility.yul\":4719:4725   */\n      dup2\n        /* \"#utility.yul\":4706:4726   */\n      calldataload\n        /* \"#utility.yul\":4744:4823   */\n      tag_169\n        /* \"#utility.yul\":4819:4822   */\n      dup5\n        /* \"#utility.yul\":4811:4817   */\n      dup3\n        /* \"#utility.yul\":4804:4808   */\n      0x20\n        /* \"#utility.yul\":4796:4802   */\n      dup7\n        /* \"#utility.yul\":4792:4809   */\n      add\n        /* \"#utility.yul\":4744:4823   */\n      tag_92\n      jump\t// in\n    tag_169:\n        /* \"#utility.yul\":4735:4823   */\n      swap2\n      pop\n        /* \"#utility.yul\":4551:4829   */\n      pop\n        /* \"#utility.yul\":4489:4829   */\n      swap3\n      swap2\n      pop\n      pop\n      jump\t// out\n        /* \"#utility.yul\":4835:5489   */\n    tag_27:\n        /* \"#utility.yul\":4913:4919   */\n      0x00\n        /* \"#utility.yul\":4921:4927   */\n      0x00\n        /* \"#utility.yul\":4970:4972   */\n      0x40\n        /* \"#utility.yul\":4958:4967   */\n      dup4\n        /* \"#utility.yul\":4949:4956   */\n      dup6\n        /* \"#utility.yul\":4945:4968   */\n      sub\n        /* \"#utility.yul\":4941:4973   */\n      slt\n        /* \"#utility.yul\":4938:5057   */\n      iszero\n      tag_171\n      jumpi\n        /* \"#utility.yul\":4976:5055   */\n      tag_172\n      tag_76\n      jump\t// in\n    tag_172:\n        /* \"#utility.yul\":4938:5057   */\n    tag_171:\n        /* \"#utility.yul\":5124:5125   */\n      0x00\n        /* \"#utility.yul\":5113:5122   */\n      dup4\n        /* \"#utility.yul\":5109:5126   */\n      add\n        /* \"#utility.yul\":5096:5127   */\n      calldataload\n        /* \"#utility.yul\":5154:5172   */\n      0xffffffffffffffff\n        /* \"#utility.yul\":5146:5152   */\n      dup2\n        /* \"#utility.yul\":5143:5173   */\n      gt\n        /* \"#utility.yul\":5140:5257   */\n      iszero\n      tag_173\n      jumpi\n        /* \"#utility.yul\":5176:5255   */\n      tag_174\n      tag_77\n      jump\t// in\n    tag_174:\n        /* \"#utility.yul\":5140:5257   */\n    tag_173:\n        /* \"#utility.yul\":5281:5344   */\n      tag_175\n        /* \"#utility.yul\":5336:5343   */\n      dup6\n        /* \"#utility.yul\":5327:5333   */\n      dup3\n        /* \"#utility.yul\":5316:5325   */\n      dup7\n        /* \"#utility.yul\":5312:5334   */\n      add\n        /* \"#utility.yul\":5281:5344   */\n      tag_93\n      jump\t// in\n    tag_175:\n        /* \"#utility.yul\":5271:5344   */\n      swap3\n      pop\n        /* \"#utility.yul\":5067:5354   */\n      pop\n        /* \"#utility.yul\":5393:5395   */\n      0x20\n        /* \"#utility.yul\":5419:5472   */\n      tag_176\n        /* \"#utility.yul\":5464:5471   */\n      dup6\n        /* \"#utility.yul\":5455:5461   */\n      dup3\n        /* \"#utility.yul\":5444:5453   */\n      dup7\n        /* \"#utility.yul\":5440:5462   */\n      add\n        /* \"#utility.yul\":5419:5472   */\n      tag_79\n      jump\t// in\n    tag_176:\n        /* \"#utility.yul\":5409:5472   */\n      swap2\n      pop\n        /* \"#utility.yul\":5364:5482   */\n      pop\n        /* \"#utility.yul\":4835:5489   */\n      swap3\n      pop\n      swap3\n      swap1\n      pop\n      jump\t// out\n        /* \"#utility.yul\":5495:6004   */\n    tag_34:\n        /* \"#utility.yul\":5564:5570   */\n      0x00\n        /* \"#utility.yul\":5613:5615   */\n      0x20\n        /* \"#utility.yul\":5601:5610   */\n      dup3\n        /* \"#utility.yul\":5592:5599   */\n      dup5\n        /* \"#utility.yul\":5588:5611   */\n      sub\n        /* \"#utility.yul\":5584:5616   */\n      slt\n        /* \"#utility.yul\":5581:5700   */\n      iszero\n      tag_178\n      jumpi\n        /* \"#utility.yul\":5619:5698   */\n      tag_179\n      tag_76\n      jump\t// in\n    tag_179:\n        /* \"#utility.yul\":5581:5700   */\n    tag_178:\n        /* \"#utility.yul\":5767:5768   */\n      0x00\n        /* \"#utility.yul\":5756:5765   */\n      dup3\n        /* \"#utility.yul\":5752:5769   */\n      add\n        /* \"#utility.yul\":5739:5770   */\n      calldataload\n        /* \"#utility.yul\":5797:5815   */\n      0xffffffffffffffff\n        /* \"#utility.yul\":5789:5795   */\n      dup2\n        /* \"#utility.yul\":5786:5816   */\n      gt\n        /* \"#utility.yul\":5783:5900   */\n      iszero\n      tag_180\n      jumpi\n        /* \"#utility.yul\":5819:5898   */\n      tag_181\n      tag_77\n      jump\t// in\n    tag_181:\n        /* \"#utility.yul\":5783:5900   */\n    tag_180:\n        /* \"#utility.yul\":5924:5987   */\n      tag_182\n        /* \"#utility.yul\":5979:5986   */\n      dup5\n        /* \"#utility.yul\":5970:5976   */\n      dup3\n        /* \"#utility.yul\":5959:5968   */\n      dup6\n        /* \"#utility.yul\":5955:5977   */\n      add\n        /* \"#utility.yul\":5924:5987   */\n      tag_93\n      jump\t// in\n    tag_182:\n        /* \"#utility.yul\":5914:5987   */\n      swap2\n      pop\n        /* \"#utility.yul\":5710:5997   */\n      pop\n        /* \"#utility.yul\":5495:6004   */\n      swap3\n      swap2\n      pop\n      pop\n      jump\t// out\n        /* \"#utility.yul\":6010:6127   */\n    tag_94:\n        /* \"#utility.yul\":6119:6120   */\n      0x00\n        /* \"#utility.yul\":6116:6117   */\n      0x00\n        /* \"#utility.yul\":6109:6121   */\n      revert\n        /* \"#utility.yul\":6133:6250   */\n    tag_95:\n        /* \"#utility.yul\":6242:6243   */\n      0x00\n        /* \"#utility.yul\":6239:6240   */\n      0x00\n        /* \"#utility.yul\":6232:6244   */\n      revert\n        /* \"#utility.yul\":6270:6823   */\n    tag_96:\n        /* \"#utility.yul\":6328:6336   */\n      0x00\n        /* \"#utility.yul\":6338:6344   */\n      0x00\n        /* \"#utility.yul\":6388:6391   */\n      dup4\n        /* \"#utility.yul\":6381:6385   */\n      0x1f\n        /* \"#utility.yul\":6373:6379   */\n      dup5\n        /* \"#utility.yul\":6369:6386   */\n      add\n        /* \"#utility.yul\":6365:6392   */\n      slt\n        /* \"#utility.yul\":6355:6477   */\n      tag_186\n      jumpi\n        /* \"#utility.yul\":6396:6475   */\n      tag_187\n      tag_85\n      jump\t// in\n    tag_187:\n        /* \"#utility.yul\":6355:6477   */\n    tag_186:\n        /* \"#utility.yul\":6509:6515   */\n      dup3\n        /* \"#utility.yul\":6496:6516   */\n      calldataload\n        /* \"#utility.yul\":6486:6516   */\n      swap1\n      pop\n        /* \"#utility.yul\":6539:6557   */\n      0xffffffffffffffff\n        /* \"#utility.yul\":6531:6537   */\n      dup2\n        /* \"#utility.yul\":6528:6558   */\n      gt\n        /* \"#utility.yul\":6525:6642   */\n      iszero\n      tag_188\n      jumpi\n        /* \"#utility.yul\":6561:6640   */\n      tag_189\n      tag_94\n      jump\t// in\n    tag_189:\n        /* \"#utility.yul\":6525:6642   */\n    tag_188:\n        /* \"#utility.yul\":6675:6679   */\n      0x20\n        /* \"#utility.yul\":6667:6673   */\n      dup4\n        /* \"#utility.yul\":6663:6680   */\n      add\n        /* \"#utility.yul\":6651:6680   */\n      swap2\n      pop\n        /* \"#utility.yul\":6729:6732   */\n      dup4\n        /* \"#utility.yul\":6721:6725   */\n      0x01\n        /* \"#utility.yul\":6713:6719   */\n      dup3\n        /* \"#utility.yul\":6709:6726   */\n      mul\n        /* \"#utility.yul\":6699:6707   */\n      dup4\n        /* \"#utility.yul\":6695:6727   */\n      add\n        /* \"#utility.yul\":6692:6733   */\n      gt\n        /* \"#utility.yul\":6689:6817   */\n      iszero\n      tag_190\n      jumpi\n        /* \"#utility.yul\":6736:6815   */\n      tag_191\n      tag_95\n      jump\t// in\n    tag_191:\n        /* \"#utility.yul\":6689:6817   */\n    tag_190:\n        /* \"#utility.yul\":6270:6823   */\n      swap3\n      pop\n      swap3\n      swap1\n      pop\n      jump\t// out\n        /* \"#utility.yul\":6829:7503   */\n    tag_42:\n        /* \"#utility.yul\":6909:6915   */\n      0x00\n        /* \"#utility.yul\":6917:6923   */\n      0x00\n        /* \"#utility.yul\":6925:6931   */\n      0x00\n        /* \"#utility.yul\":6974:6976   */\n      0x40\n        /* \"#utility.yul\":6962:6971   */\n      dup5\n        /* \"#utility.yul\":6953:6960   */\n      dup7\n        /* \"#utility.yul\":6949:6972   */\n      sub\n        /* \"#utility.yul\":6945:6977   */\n      slt\n        /* \"#utility.yul\":6942:7061   */\n      iszero\n      tag_193\n      jumpi\n        /* \"#utility.yul\":6980:7059   */\n      tag_194\n      tag_76\n      jump\t// in\n    tag_194:\n        /* \"#utility.yul\":6942:7061   */\n    tag_193:\n        /* \"#utility.yul\":7128:7129   */\n      0x00\n        /* \"#utility.yul\":7117:7126   */\n      dup5\n        /* \"#utility.yul\":7113:7130   */\n      add\n        /* \"#utility.yul\":7100:7131   */\n      calldataload\n        /* \"#utility.yul\":7158:7176   */\n      0xffffffffffffffff\n        /* \"#utility.yul\":7150:7156   */\n      dup2\n        /* \"#utility.yul\":7147:7177   */\n      gt\n        /* \"#utility.yul\":7144:7261   */\n      iszero\n      tag_195\n      jumpi\n        /* \"#utility.yul\":7180:7259   */\n      tag_196\n      tag_77\n      jump\t// in\n    tag_196:\n        /* \"#utility.yul\":7144:7261   */\n    tag_195:\n        /* \"#utility.yul\":7293:7358   */\n      tag_197\n        /* \"#utility.yul\":7350:7357   */\n      dup7\n        /* \"#utility.yul\":7341:7347   */\n      dup3\n        /* \"#utility.yul\":7330:7339   */\n      dup8\n        /* \"#utility.yul\":7326:7348   */\n      add\n        /* \"#utility.yul\":7293:7358   */\n      tag_96\n      jump\t// in\n    tag_197:\n        /* \"#utility.yul\":7275:7358   */\n      swap4\n      pop\n      swap4\n      pop\n        /* \"#utility.yul\":7071:7368   */\n      pop\n        /* \"#utility.yul\":7407:7409   */\n      0x20\n        /* \"#utility.yul\":7433:7486   */\n      tag_198\n        /* \"#utility.yul\":7478:7485   */\n      dup7\n        /* \"#utility.yul\":7469:7475   */\n      dup3\n        /* \"#utility.yul\":7458:7467   */\n      dup8\n        /* \"#utility.yul\":7454:7476   */\n      add\n        /* \"#utility.yul\":7433:7486   */\n      tag_79\n      jump\t// in\n    tag_198:\n        /* \"#utility.yul\":7423:7486   */\n      swap2\n      pop\n        /* \"#utility.yul\":7378:7496   */\n      pop\n        /* \"#utility.yul\":6829:7503   */\n      swap3\n      pop\n      swap3\n      pop\n      swap3\n      jump\t// out\n        /* \"#utility.yul\":7509:7689   */\n    tag_97:\n        /* \"#utility.yul\":7557:7634   */\n      0x4e487b7100000000000000000000000000000000000000000000000000000000\n        /* \"#utility.yul\":7554:7555   */\n      0x00\n        /* \"#utility.yul\":7547:7635   */\n      mstore\n        /* \"#utility.yul\":7654:7658   */\n      0x22\n        /* \"#utility.yul\":7651:7652   */\n      0x04\n        /* \"#utility.yul\":7644:7659   */\n      mstore\n        /* \"#utility.yul\":7678:7682   */\n      0x24\n        /* \"#utility.yul\":7675:7676   */\n      0x00\n        /* \"#utility.yul\":7668:7683   */\n      revert\n        /* \"#utility.yul\":7695:8015   */\n    tag_48:\n        /* \"#utility.yul\":7739:7745   */\n      0x00\n        /* \"#utility.yul\":7776:7777   */\n      0x02\n        /* \"#utility.yul\":7770:7774   */\n      dup3\n        /* \"#utility.yul\":7766:7778   */\n      div\n        /* \"#utility.yul\":7756:7778   */\n      swap1\n      pop\n        /* \"#utility.yul\":7823:7824   */\n      0x01\n        /* \"#utility.yul\":7817:7821   */\n      dup3\n        /* \"#utility.yul\":7813:7825   */\n      and\n        /* \"#utility.yul\":7844:7862   */\n      dup1\n        /* \"#utility.yul\":7834:7915   */\n      tag_201\n      jumpi\n        /* \"#utility.yul\":7900:7904   */\n      0x7f\n        /* \"#utility.yul\":7892:7898   */\n      dup3\n        /* \"#utility.yul\":7888:7905   */\n      and\n        /* \"#utility.yul\":7878:7905   */\n      swap2\n      pop\n        /* \"#utility.yul\":7834:7915   */\n    tag_201:\n        /* \"#utility.yul\":7962:7964   */\n      0x20\n        /* \"#utility.yul\":7954:7960   */\n      dup3\n        /* \"#utility.yul\":7951:7965   */\n      lt\n        /* \"#utility.yul\":7931:7949   */\n      dup2\n        /* \"#utility.yul\":7928:7966   */\n      sub\n        /* \"#utility.yul\":7925:8009   */\n      tag_202\n      jumpi\n        /* \"#utility.yul\":7981:7999   */\n      tag_203\n      tag_97\n      jump\t// in\n    tag_203:\n        /* \"#utility.yul\":7925:8009   */\n    tag_202:\n        /* \"#utility.yul\":7746:8015   */\n      pop\n        /* \"#utility.yul\":7695:8015   */\n      swap2\n      swap1\n      pop\n      jump\t// out\n        /* \"#utility.yul\":8021:8162   */\n    tag_98:\n        /* \"#utility.yul\":8070:8074   */\n      0x00\n        /* \"#utility.yul\":8093:8096   */\n      dup2\n        /* \"#utility.yul\":8085:8096   */\n      swap1\n      pop\n        /* \"#utility.yul\":8116:8119   */\n      dup2\n        /* \"#utility.yul\":8113:8114   */\n      0x00\n        /* \"#utility.yul\":8106:8120   */\n      mstore\n        /* \"#utility.yul\":8150:8154   */\n      0x20\n        /* \"#utility.yul\":8147:8148   */\n      0x00\n        /* \"#utility.yul\":8137:8155   */\n      keccak256\n        /* \"#utility.yul\":8129:8155   */\n      swap1\n      pop\n        /* \"#utility.yul\":8021:8162   */\n      swap2\n      swap1\n      pop\n      jump\t// out\n        /* \"#utility.yul\":8168:8261   */\n    tag_99:\n        /* \"#utility.yul\":8205:8211   */\n      0x00\n        /* \"#utility.yul\":8252:8254   */\n      0x20\n        /* \"#utility.yul\":8247:8249   */\n      0x1f\n        /* \"#utility.yul\":8240:8245   */\n      dup4\n        /* \"#utility.yul\":8236:8250   */\n      add\n        /* \"#utility.yul\":8232:8255   */\n      div\n        /* \"#utility.yul\":8222:8255   */\n      swap1\n      pop\n        /* \"#utility.yul\":8168:8261   */\n      swap2\n      swap1\n      pop\n      jump\t// out\n        /* \"#utility.yul\":8267:8374   */\n    tag_100:\n        /* \"#utility.yul\":8311:8319   */\n      0x00\n        /* \"#utility.yul\":8361:8366   */\n      dup3\n        /* \"#utility.yul\":8355:8359   */\n      dup3\n        /* \"#utility.yul\":8351:8367   */\n      shl\n        /* \"#utility.yul\":8330:8367   */\n      swap1\n      pop\n        /* \"#utility.yul\":8267:8374   */\n      swap3\n      swap2\n      pop\n      pop\n      jump\t// out\n        /* \"#utility.yul\":8380:8773   */\n    tag_101:\n        /* \"#utility.yul\":8449:8455   */\n      0x00\n        /* \"#utility.yul\":8499:8500   */\n      0x08\n        /* \"#utility.yul\":8487:8497   */\n      dup4\n        /* \"#utility.yul\":8483:8501   */\n      mul\n        /* \"#utility.yul\":8522:8619   */\n      tag_208\n        /* \"#utility.yul\":8552:8618   */\n      0xffffffffffffffffffffffffffffffffffffffffffffffffffffffffffffffff\n        /* \"#utility.yul\":8541:8550   */\n      dup3\n        /* \"#utility.yul\":8522:8619   */\n      tag_100\n      jump\t// in\n    tag_208:\n        /* \"#utility.yul\":8640:8679   */\n      tag_209\n        /* \"#utility.yul\":8670:8678   */\n      dup7\n        /* \"#utility.yul\":8659:8668   */\n      dup4\n        /* \"#utility.yul\":8640:8679   */\n      tag_100\n      jump\t// in\n    tag_209:\n        /* \"#utility.yul\":8628:8679   */\n      swap6\n      pop\n        /* \"#utility.yul\":8712:8716   */\n      dup1\n        /* \"#utility.yul\":8708:8717   */\n      not\n        /* \"#utility.yul\":8701:8706   */\n      dup5\n        /* \"#utility.yul\":8697:8718   */\n      and\n        /* \"#utility.yul\":8688:8718   */\n      swap4\n      pop\n        /* \"#utility.yul\":8761:8765   */\n      dup1\n        /* \"#utility.yul\":8751:8759   */\n      dup7\n        /* \"#utility.yul\":8747:8766   */\n      and\n        /* \"#utility.yul\":8740:8745   */\n      dup5\n        /* \"#utility.yul\":8737:8767   */\n      or\n        /* \"#utility.yul\":8727:8767   */\n      swap3\n      pop\n        /* \"#utility.yul\":8456:8773   */\n      pop\n      pop\n        /* \"#utility.yul\":8380:8773   */\n      swap4\n      swap3\n      pop\n      pop\n      pop\n      jump\t// out\n        /* \"#utility.yul\":8779:8839   */\n    tag_102:\n        /* \"#utility.yul\":8807:8810   */\n      0x00\n        /* \"#utility.yul\":8828:8833   */\n      dup2\n        /* \"#utility.yul\":8821:8833   */\n      swap1\n      pop\n        /* \"#utility.yul\":8779:8839   */\n      swap2\n      swap1\n      pop\n      jump\t// out\n        /* \"#utility.yul\":8845:8987   */\n    tag_103:\n        /* \"#utility.yul\":8895:8904   */\n      0x00\n        /* \"#utility.yul\":8928:8981   */\n      tag_212\n        /* \"#utility.yul\":8946:8980   */\n      tag_213\n        /* \"#utility.yul\":8955:8979   */\n      tag_214\n        /* \"#utility.yul\":8973:8978   */\n      dup5\n        /* \"#utility.yul\":8955:8979   */\n      tag_73\n      jump\t// in\n    tag_214:\n        /* \"#utility.yul\":8946:8980   */\n      tag_102\n      jump\t// in\n    tag_213:\n        /* \"#utility.yul\":8928:8981   */\n      tag_73\n      jump\t// in\n    tag_212:\n        /* \"#utility.yul\":8915:8981   */\n      swap1\n      pop\n        /* \"#utility.yul\":8845:8987   */\n      swap2\n      swap1\n      pop\n      jump\t// out\n        /* \"#utility.yul\":8993:9068   */\n    tag_104:\n        /* \"#utility.yul\":9036:9039   */\n      0x00\n        /* \"#utility.yul\":9057:9062   */\n      dup2\n        /* \"#utility.yul\":9050:9062   */\n      swap1\n      pop\n        /* \"#utility.yul\":8993:9068   */\n      swap2\n      swap1\n      pop\n      jump\t// out\n        /* \"#utility.yul\":9074:9343   */\n    tag_105:\n        /* \"#utility.yul\":9184:9223   */\n      tag_217\n        /* \"#utility.yul\":9215:9222   */\n      dup4\n        /* \"#utility.yul\":9184:9223   */\n      tag_103\n      jump\t// in\n    tag_217:\n        /* \"#utility.yul\":9245:9336   */\n      tag_218\n        /* \"#utility.yul\":9294:9335   */\n      tag_219\n        /* \"#utility.yul\":9318:9334   */\n      dup3\n        /* \"#utility.yul\":9294:9335   */\n      tag_104\n      jump\t// in\n    tag_219:\n        /* \"#utility.yul\":9286:9292   */\n      dup5\n        /* \"#utility.yul\":9279:9283   */\n      dup5\n        /* \"#utility.yul\":9273:9284   */\n      sload\n        /* \"#utility.yul\":9245:9336   */\n      tag_101\n      jump\t// in\n    tag_218:\n        /* \"#utility.yul\":9239:9243   */\n      dup3\n        /* \"#utility.yul\":9232:9337   */\n      sstore\n        /* \"#utility.yul\":9150:9343   */\n      pop\n        /* \"#utility.yul\":9074:9343   */\n      pop\n      pop\n      pop\n      jump\t// out\n        /* \"#utility.yul\":9349:9422   */\n    tag_106:\n        /* \"#utility.yul\":9394:9397   */\n      0x00\n        /* \"#utility.yul\":9415:9416   */\n      0x00\n        /* \"#utility.yul\":9408:9416   */\n      swap1\n      pop\n        /* \"#utility.yul\":9349:9422   */\n      swap1\n      jump\t// out\n        /* \"#utility.yul\":9428:9617   */\n    tag_107:\n        /* \"#utility.yul\":9505:9537   */\n      tag_222\n      tag_106\n      jump\t// in\n    tag_222:\n        /* \"#utility.yul\":9546:9611   */\n      tag_223\n        /* \"#utility.yul\":9604:9610   */\n      dup2\n        /* \"#utility.yul\":9596:9602   */\n      dup5\n        /* \"#utility.yul\":9590:9594   */\n      dup5\n        /* \"#utility.yul\":9546:9611   */\n      tag_105\n      jump\t// in\n    tag_223:\n        /* \"#utility.yul\":9481:9617   */\n      pop\n        /* \"#utility.yul\":9428:9617   */\n      pop\n      pop\n      jump\t// out\n        /* \"#utility.yul\":9623:9809   */\n    tag_108:\n        /* \"#utility.yul\":9683:9803   */\n    tag_225:\n        /* \"#utility.yul\":9700:9703   */\n      dup2\n        /* \"#utility.yul\":9693:9698   */\n      dup2\n        /* \"#utility.yul\":9690:9704   */\n      lt\n        /* \"#utility.yul\":9683:9803   */\n      iszero\n      tag_227\n      jumpi\n        /* \"#utility.yul\":9754:9793   */\n      tag_228\n        /* \"#utility.yul\":9791:9792   */\n      0x00\n        /* \"#utility.yul\":9784:9789   */\n      dup3\n        /* \"#utility.yul\":9754:9793   */\n      tag_107\n      jump\t// in\n    tag_228:\n        /* \"#utility.yul\":9727:9728   */\n      0x01\n        /* \"#utility.yul\":9720:9725   */\n      dup2\n        /* \"#utility.yul\":9716:9729   */\n      add\n        /* \"#utility.yul\":9707:9729   */\n      swap1\n      pop\n        /* \"#utility.yul\":9683:9803   */\n      jump(tag_225)\n    tag_227:\n        /* \"#utility.yul\":9623:9809   */\n      pop\n      pop\n      jump\t// out\n        /* \"#utility.yul\":9815:10358   */\n    tag_109:\n        /* \"#utility.yul\":9916:9918   */\n      0x1f\n        /* \"#utility.yul\":9911:9914   */\n      dup3\n        /* \"#utility.yul\":9908:9919   */\n      gt\n        /* \"#utility.yul\":9905:10351   */\n      iszero\n      tag_230\n      jumpi\n        /* \"#utility.yul\":9950:9988   */\n      tag_231\n        /* \"#utility.yul\":9982:9987   */\n      dup2\n        /* \"#utility.yul\":9950:9988   */\n      tag_98\n      jump\t// in\n    tag_231:\n        /* \"#utility.yul\":10034:10063   */\n      tag_232\n        /* \"#utility.yul\":10052:10062   */\n      dup5\n        /* \"#utility.yul\":10034:10063   */\n      tag_99\n      jump\t// in\n    tag_232:\n        /* \"#utility.yul\":10024:10032   */\n      dup2\n        /* \"#utility.yul\":10020:10064   */\n      add\n        /* \"#utility.yul\":10217:10219   */\n      0x20\n        /* \"#utility.yul\":10205:10215   */\n      dup6\n        /* \"#utility.yul\":10202:10220   */\n      lt\n        /* \"#utility.yul\":10199:10248   */\n      iszero\n      tag_233\n      jumpi\n        /* \"#utility.yul\":10238:10246   */\n      dup2\n        /* \"#utility.yul\":10223:10246   */\n      swap1\n      pop\n        /* \"#utility.yul\":10199:10248   */\n    tag_233:\n        /* \"#utility.yul\":10261:10341   */\n      tag_234\n        /* \"#utility.yul\":10317:10339   */\n      tag_235\n        /* \"#utility.yul\":10335:10338   */\n      dup6\n        /* \"#utility.yul\":10317:10339   */\n      tag_99\n      jump\t// in\n    tag_235:\n        /* \"#utility.yul\":10307:10315   */\n      dup4\n        /* \"#utility.yul\":10303:10340   */\n      add\n        /* \"#utility.yul\":10290:10301   */\n      dup3\n        /* \"#utility.yul\":10261:10341   */\n      tag_108\n      jump\t// in\n    tag_234:\n        /* \"#utility.yul\":9920:10351   */\n      pop\n      pop\n        /* \"#utility.yul\":9905:10351   */\n    tag_230:\n        /* \"#utility.yul\":9815:10358   */\n      pop\n      pop\n      pop\n      jump\t// out\n        /* \"#utility.yul\":10364:10481   */\n    tag_110:\n        /* \"#utility.yul\":10418:10426   */\n      0x00\n        /* \"#utility.yul\":10468:10473   */\n      dup3\n        /* \"#utility.yul\":10462:10466   */\n      dup3\n        /* \"#utility.yul\":10458:10474   */\n      shr\n        /* \"#utility.yul\":10437:10474   */\n      swap1\n      pop\n        /* \"#utility.yul\":10364:10481   */\n      swap3\n      swap2\n      pop\n      pop\n      jump\t// out\n        /* \"#utility.yul\":10487:10656   */\n    tag_111:\n        /* \"#utility.yul\":10531:10537   */\n      0x00\n        /* \"#utility.yul\":10564:10615   */\n      tag_238\n        /* \"#utility.yul\":10612:10613   */\n      0x00\n        /* \"#utility.yul\":10608:10614   */\n      not\n        /* \"#utility.yul\":10600:10605   */\n      dup5\n        /* \"#utility.yul\":10597:10598   */\n      0x08\n        /* \"#utility.yul\":10593:10606   */\n      mul\n        /* \"#utility.yul\":10564:10615   */\n      tag_110\n      jump\t// in\n    tag_238:\n        /* \"#utility.yul\":10560:10616   */\n      not\n        /* \"#utility.yul\":10645:10649   */\n      dup1\n        /* \"#utility.yul\":10639:10643   */\n      dup4\n        /* \"#utility.yul\":10635:10650   */\n      and\n        /* \"#utility.yul\":10625:10650   */\n      swap2\n      pop\n        /* \"#utility.yul\":10538:10656   */\n      pop\n        /* \"#utility.yul\":10487:10656   */\n      swap3\n      swap2\n      pop\n      pop\n      jump\t// out\n        /* \"#utility.yul\":10661:10956   */\n    tag_112:\n        /* \"#utility.yul\":10737:10741   */\n      0x00\n        /* \"#utility.yul\":10883:10912   */\n      tag_240\n        /* \"#utility.yul\":10908:10911   */\n      dup4\n        /* \"#utility.yul\":10902:10906   */\n      dup4\n        /* \"#utility.yul\":10883:10912   */\n      tag_111\n      jump\t// in\n    tag_240:\n        /* \"#utility.yul\":10875:10912   */\n      swap2\n      pop\n        /* \"#utility.yul\":10945:10948   */\n      dup3\n        /* \"#utility.yul\":10942:10943   */\n      0x02\n        /* \"#utility.yul\":10938:10949   */\n      mul\n        /* \"#utility.yul\":10932:10936   */\n      dup3\n        /* \"#utility.yul\":10929:10950   */\n      or\n        /* \"#utility.yul\":10921:10950   */\n      swap1\n      pop\n        /* \"#utility.yul\":10661:10956   */\n      swap3\n      swap2\n      pop\n      pop\n      jump\t// out\n        /* \"#utility.yul\":10961:12356   */\n    tag_57:\n        /* \"#utility.yul\":11078:11115   */\n      tag_242\n        /* \"#utility.yul\":11111:11114   */\n      dup3\n        /* \"#utility.yul\":11078:11115   */\n      tag_80\n      jump\t// in\n    tag_242:\n        /* \"#utility.yul\":11180:11198   */\n      0xffffffffffffffff\n        /* \"#utility.yul\":11172:11178   */\n      dup2\n        /* \"#utility.yul\":11169:11199   */\n      gt\n        /* \"#utility.yul\":11166:11222   */\n      iszero\n      tag_243\n      jumpi\n        /* \"#utility.yul\":11202:11220   */\n      tag_244\n      tag_87\n      jump\t// in\n    tag_244:\n        /* \"#utility.yul\":11166:11222   */\n    tag_243:\n        /* \"#utility.yul\":11246:11284   */\n      tag_245\n        /* \"#utility.yul\":11278:11282   */\n      dup3\n        /* \"#utility.yul\":11272:11283   */\n      sload\n        /* \"#utility.yul\":11246:11284   */\n      tag_48\n      jump\t// in\n    tag_245:\n        /* \"#utility.yul\":11331:11398   */\n      tag_246\n        /* \"#utility.yul\":11391:11397   */\n      dup3\n        /* \"#utility.yul\":11383:11389   */\n      dup3\n        /* \"#utility.yul\":11377:11381   */\n      dup6\n        /* \"#utility.yul\":11331:11398   */\n      tag_109\n      jump\t// in\n    tag_246:\n        /* \"#utility.yul\":11425:11426   */\n      0x00\n        /* \"#utility.yul\":11449:11453   */\n      0x20\n        /* \"#utility.yul\":11436:11453   */\n      swap1\n      pop\n        /* \"#utility.yul\":11481:11483   */\n      0x1f\n        /* \"#utility.yul\":11473:11479   */\n      dup4\n        /* \"#utility.yul\":11470:11484   */\n      gt\n        /* \"#utility.yul\":11498:11499   */\n      0x01\n        /* \"#utility.yul\":11493:12111   */\n      dup2\n      eq\n      tag_248\n      jumpi\n        /* \"#utility.yul\":12155:12156   */\n      0x00\n        /* \"#utility.yul\":12172:12178   */\n      dup5\n        /* \"#utility.yul\":12169:12246   */\n      iszero\n      tag_249\n      jumpi\n        /* \"#utility.yul\":12221:12230   */\n      dup3\n        /* \"#utility.yul\":12216:12219   */\n      dup8\n        /* \"#utility.yul\":12212:12231   */\n      add\n        /* \"#utility.yul\":12206:12232   */\n      mload\n        /* \"#utility.yul\":12197:12232   */\n      swap1\n      pop\n        /* \"#utility.yul\":12169:12246   */\n    tag_249:\n        /* \"#utility.yul\":12272:12339   */\n      tag_250\n        /* \"#utility.yul\":12332:12338   */\n      dup6\n        /* \"#utility.yul\":12325:12330   */\n      dup3\n        /* \"#utility.yul\":12272:12339   */\n      tag_112\n      jump\t// in\n    tag_250:\n        /* \"#utility.yul\":12266:12270   */\n      dup7\n        /* \"#utility.yul\":12259:12340   */\n      sstore\n        /* \"#utility.yul\":12128:12350   */\n      pop\n        /* \"#utility.yul\":11463:12350   */\n      jump(tag_247)\n        /* \"#utility.yul\":11493:12111   */\n    tag_248:\n        /* \"#utility.yul\":11545:11549   */\n      0x1f\n        /* \"#utility.yul\":11541:11550   */\n      not\n        /* \"#utility.yul\":11533:11539   */\n      dup5\n        /* \"#utility.yul\":11529:11551   */\n      and\n        /* \"#utility.yul\":11579:11616   */\n      tag_251\n        /* \"#utility.yul\":11611:11615   */\n      dup7\n        /* \"#utility.yul\":11579:11616   */\n      tag_98\n      jump\t// in\n    tag_251:\n        /* \"#utility.yul\":11638:11639   */\n      0x00\n        /* \"#utility.yul\":11652:11860   */\n    tag_252:\n        /* \"#utility.yul\":11666:11673   */\n      dup3\n        /* \"#utility.yul\":11663:11664   */\n      dup2\n        /* \"#utility.yul\":11660:11674   */\n      lt\n        /* \"#utility.yul\":11652:11860   */\n      iszero\n      tag_254\n      jumpi\n        /* \"#utility.yul\":11745:11754   */\n      dup5\n        /* \"#utility.yul\":11740:11743   */\n      dup10\n        /* \"#utility.yul\":11736:11755   */\n      add\n        /* \"#utility.yul\":11730:11756   */\n      mload\n        /* \"#utility.yul\":11722:11728   */\n      dup3\n        /* \"#utility.yul\":11715:11757   */\n      sstore\n        /* \"#utility.yul\":11796:11797   */\n      0x01\n        /* \"#utility.yul\":11788:11794   */\n      dup3\n        /* \"#utility.yul\":11784:11798   */\n      add\n        /* \"#utility.yul\":11774:11798   */\n      swap2\n      pop\n        /* \"#utility.yul\":11843:11845   */\n      0x20\n        /* \"#utility.yul\":11832:11841   */\n      dup6\n        /* \"#utility.yul\":11828:11846   */\n      add\n        /* \"#utility.yul\":11815:11846   */\n      swap5\n      pop\n        /* \"#utility.yul\":11689:11693   */\n      0x20\n        /* \"#utility.yul\":11686:11687   */\n      dup2\n        /* \"#utility.yul\":11682:11694   */\n      add\n        /* \"#utility.yul\":11677:11694   */\n      swap1\n      pop\n        /* \"#utility.yul\":11652:11860   */\n      jump(tag_252)\n    tag_254:\n        /* \"#utility.yul\":11888:11894   */\n      dup7\n        /* \"#utility.yul\":11879:11886   */\n      dup4\n        /* \"#utility.yul\":11876:11895   */\n      lt\n        /* \"#utility.yul\":11873:12052   */\n      iszero\n      tag_255\n      jumpi\n        /* \"#utility.yul\":11946:11955   */\n      dup5\n        /* \"#utility.yul\":11941:11944   */\n      dup10\n        /* \"#utility.yul\":11937:11956   */\n      add\n        /* \"#utility.yul\":11931:11957   */\n      mload\n        /* \"#utility.yul\":11989:12037   */\n      tag_256\n        /* \"#utility.yul\":12031:12035   */\n      0x1f\n        /* \"#utility.yul\":12023:12029   */\n      dup10\n        /* \"#utility.yul\":12019:12036   */\n      and\n        /* \"#utility.yul\":12008:12017   */\n      dup3\n        /* \"#utility.yul\":11989:12037   */\n      tag_111\n      jump\t// in\n    tag_256:\n        /* \"#utility.yul\":11981:11987   */\n      dup4\n        /* \"#utility.yul\":11974:12038   */\n      sstore\n        /* \"#utility.yul\":11896:12052   */\n      pop\n        /* \"#utility.yul\":11873:12052   */\n    tag_255:\n        /* \"#utility.yul\":12098:12099   */\n      0x01\n        /* \"#utility.yul\":12094:12095   */\n      0x02\n        /* \"#utility.yul\":12086:12092   */\n      dup9\n        /* \"#utility.yul\":12082:12096   */\n      mul\n        /* \"#utility.yul\":12078:12100   */\n      add\n        /* \"#utility.yul\":12072:12076   */\n      dup9\n        /* \"#utility.yul\":12065:12101   */\n      sstore\n        /* \"#utility.yul\":11500:12111   */\n      pop\n      pop\n      pop\n        /* \"#utility.yul\":11463:12350   */\n    tag_247:\n      pop\n        /* \"#utility.yul\":11053:12356   */\n      pop\n      pop\n      pop\n        /* \"#utility.yul\":10961:12356   */\n      pop\n      pop\n      jump\t// out\n        /* \"#utility.yul\":12362:12510   */\n    tag_113:\n        /* \"#utility.yul\":12464:12475   */\n      0x00\n        /* \"#utility.yul\":12501:12504   */\n      dup2\n        /* \"#utility.yul\":12486:12504   */\n      swap1\n      pop\n        /* \"#utility.yul\":12362:12510   */\n      swap3\n      swap2\n      pop\n      pop\n      jump\t// out\n        /* \"#utility.yul\":12516:12906   */\n    tag_114:\n        /* \"#utility.yul\":12622:12625   */\n      0x00\n        /* \"#utility.yul\":12650:12689   */\n      tag_259\n        /* \"#utility.yul\":12683:12688   */\n      dup3\n        /* \"#utility.yul\":12650:12689   */\n      tag_80\n      jump\t// in\n    tag_259:\n        /* \"#utility.yul\":12705:12794   */\n      tag_260\n        /* \"#utility.yul\":12787:12793   */\n      dup2\n        /* \"#utility.yul\":12782:12785   */\n      dup6\n        /* \"#utility.yul\":12705:12794   */\n      tag_113\n      jump\t// in\n    tag_260:\n        /* \"#utility.yul\":12698:12794   */\n      swap4\n      pop\n        /* \"#utility.yul\":12803:12868   */\n      tag_261\n        /* \"#utility.yul\":12861:12867   */\n      dup2\n        /* \"#utility.yul\":12856:12859   */\n      dup6\n        /* \"#utility.yul\":12849:12853   */\n      0x20\n        /* \"#utility.yul\":12842:12847   */\n      dup7\n        /* \"#utility.yul\":12838:12854   */\n      add\n        /* \"#utility.yul\":12803:12868   */\n      tag_82\n      jump\t// in\n    tag_261:\n        /* \"#utility.yul\":12893:12899   */\n      dup1\n        /* \"#utility.yul\":12888:12891   */\n      dup5\n        /* \"#utility.yul\":12884:12900   */\n      add\n        /* \"#utility.yul\":12877:12900   */\n      swap2\n      pop\n        /* \"#utility.yul\":12626:12906   */\n      pop\n        /* \"#utility.yul\":12516:12906   */\n      swap3\n      swap2\n      pop\n      pop\n      jump\t// out\n        /* \"#utility.yul\":12912:13187   */\n    tag_59:\n        /* \"#utility.yul\":13044:13047   */\n      0x00\n        /* \"#utility.yul\":13066:13161   */\n      tag_263\n        /* \"#utility.yul\":13157:13160   */\n      dup3\n        /* \"#utility.yul\":13148:13154   */\n      dup5\n        /* \"#utility.yul\":13066:13161   */\n      tag_114\n      jump\t// in\n    tag_263:\n        /* \"#utility.yul\":13059:13161   */\n      swap2\n      pop\n        /* \"#utility.yul\":13178:13181   */\n      dup2\n        /* \"#utility.yul\":13171:13181   */\n      swap1\n      pop\n        /* \"#utility.yul\":12912:13187   */\n      swap3\n      swap2\n      pop\n      pop\n      jump\t// out\n\n    auxdata: 0xa26469706673582212205efc4f918c4c80345a8d674588a533bc5b17fb29519c4fb97a495f55971295fc64736f6c634300081e0033\n}\n",
				"bytecode": {
					"linkReferences": {},
					"object": "60806040526040518060400160405280600781526020016040518060400160405280600281526020017f4a4a00000000000000000000000000000000000000000000000000000000000081525081525060035f820151815f0155602082015181600101908161006e919061032c565b5050506040518060400160405280600881526020016040518060400160405280600281526020017f4b4b00000000000000000000000000000000000000000000000000000000000081525081525060055f820151815f015560208201518160010190816100db919061032c565b5050503480156100e9575f5ffd5b506103fb565b5f81519050919050565b7f4e487b71000000000000000000000000000000000000000000000000000000005f52604160045260245ffd5b7f4e487b71000000000000000000000000000000000000000000000000000000005f52602260045260245ffd5b5f600282049050600182168061016a57607f821691505b60208210810361017d5761017c610126565b5b50919050565b5f819050815f5260205f209050919050565b5f6020601f8301049050919050565b5f82821b905092915050565b5f600883026101df7fffffffffffffffffffffffffffffffffffffffffffffffffffffffffffffffff826101a4565b6101e986836101a4565b95508019841693508086168417925050509392505050565b5f819050919050565b5f819050919050565b5f61022d61022861022384610201565b61020a565b610201565b9050919050565b5f819050919050565b61024683610213565b61025a61025282610234565b8484546101b0565b825550505050565b5f5f905090565b610271610262565b61027c81848461023d565b505050565b5b8181101561029f576102945f82610269565b600181019050610282565b5050565b601f8211156102e4576102b581610183565b6102be84610195565b810160208510156102cd578190505b6102e16102d985610195565b830182610281565b50505b505050565b5f82821c905092915050565b5f6103045f19846008026102e9565b1980831691505092915050565b5f61031c83836102f5565b9150826002028217905092915050565b610335826100ef565b67ffffffffffffffff81111561034e5761034d6100f9565b5b6103588254610153565b6103638282856102a3565b5f60209050601f831160018114610394575f8415610382578287015190505b61038c8582610311565b8655506103f3565b601f1984166103a286610183565b5f5b828110156103c9578489015182556001820191506020850194506020810190506103a4565b868310156103e657848901516103e2601f8916826102f5565b8355505b6001600288020188555050505b505050505050565b610bfd806104085f395ff3fe608060405234801561000f575f5ffd5b5060043610610086575f3560e01c8063825063e311610059578063825063e3146101115780638bab8dd514610130578063c1164e7914610160578063dec7e5441461017f57610086565b80632e64cec11461008a5780632ebce631146100a85780636057361d146100d95780636f760f41146100f5575b5f5ffd5b61009261019b565b60405161009f9190610507565b60405180910390f35b6100c260048036038101906100bd919061055b565b6101a3565b6040516100d09291906105f6565b60405180910390f35b6100f360048036038101906100ee919061055b565b610258565b005b61010f600480360381019061010a9190610750565b610261565b005b6101196102ea565b6040516101279291906105f6565b60405180910390f35b61014a600480360381019061014591906107aa565b610381565b6040516101579190610507565b60405180910390f35b6101686103ae565b6040516101769291906105f6565b60405180910390f35b6101996004803603810190610194919061084e565b610445565b005b5f5f54905090565b600181815481106101b2575f80fd5b905f5260205f2090600202015f91509050805f0154908060010180546101d7906108d8565b80601f0160208091040260200160405190810160405280929190818152602001828054610203906108d8565b801561024e5780601f106102255761010080835404028352916020019161024e565b820191905f5260205f20905b81548152906001019060200180831161023157829003601f168201915b5050505050905082565b805f8190555050565b5f6040518060400160405280838152602001848152509050600181908060018154018082558091505060019003905f5260205f2090600202015f909190919091505f820151815f015560208201518160010190816102bf9190610aa8565b505050816002846040516102d39190610bb1565b908152602001604051809103902081905550505050565b6005805f015490806001018054610300906108d8565b80601f016020809104026020016040519081016040528092919081815260200182805461032c906108d8565b80156103775780601f1061034e57610100808354040283529160200191610377565b820191905f5260205f20905b81548152906001019060200180831161035a57829003601f168201915b5050505050905082565b6002818051602081018201805184825260208301602085012081835280955050505050505f915090505481565b6003805f0154908060010180546103c4906108d8565b80601f01602080910402602001604051908101604052809291908181526020018280546103f0906108d8565b801561043b5780601f106104125761010080835404028352916020019161043b565b820191905f5260205f20905b81548152906001019060200180831161041e57829003601f168201915b5050505050905082565b5f604051806040016040528083815260200185858080601f0160208091040260200160405190810160405280939291908181526020018383808284375f81840152601f19601f820116905080830192505050505050508152509050600181908060018154018082558091505060019003905f5260205f2090600202015f909190919091505f820151815f015560208201518160010190816104e69190610aa8565b50505050505050565b5f819050919050565b610501816104ef565b82525050565b5f60208201905061051a5f8301846104f8565b92915050565b5f604051905090565b5f5ffd5b5f5ffd5b61053a816104ef565b8114610544575f5ffd5b50565b5f8135905061055581610531565b92915050565b5f602082840312156105705761056f610529565b5b5f61057d84828501610547565b91505092915050565b5f81519050919050565b5f82825260208201905092915050565b8281835e5f83830152505050565b5f601f19601f8301169050919050565b5f6105c882610586565b6105d28185610590565b93506105e28185602086016105a0565b6105eb816105ae565b840191505092915050565b5f6040820190506106095f8301856104f8565b818103602083015261061b81846105be565b90509392505050565b5f5ffd5b5f5ffd5b7f4e487b71000000000000000000000000000000000000000000000000000000005f52604160045260245ffd5b610662826105ae565b810181811067ffffffffffffffff821117156106815761068061062c565b5b80604052505050565b5f610693610520565b905061069f8282610659565b919050565b5f67ffffffffffffffff8211156106be576106bd61062c565b5b6106c7826105ae565b9050602081019050919050565b828183375f83830152505050565b5f6106f46106ef846106a4565b61068a565b9050828152602081018484840111156107105761070f610628565b5b61071b8482856106d4565b509392505050565b5f82601f83011261073757610736610624565b5b81356107478482602086016106e2565b91505092915050565b5f5f6040838503121561076657610765610529565b5b5f83013567ffffffffffffffff8111156107835761078261052d565b5b61078f85828601610723565b92505060206107a085828601610547565b9150509250929050565b5f602082840312156107bf576107be610529565b5b5f82013567ffffffffffffffff8111156107dc576107db61052d565b5b6107e884828501610723565b91505092915050565b5f5ffd5b5f5ffd5b5f5f83601f84011261080e5761080d610624565b5b8235905067ffffffffffffffff81111561082b5761082a6107f1565b5b602083019150836001820283011115610847576108466107f5565b5b9250929050565b5f5f5f6040848603121561086557610864610529565b5b5f84013567ffffffffffffffff8111156108825761088161052d565b5b61088e868287016107f9565b935093505060206108a186828701610547565b9150509250925092565b7f4e487b71000000000000000000000000000000000000000000000000000000005f52602260045260245ffd5b5f60028204905060018216806108ef57607f821691505b602082108103610902576109016108ab565b5b50919050565b5f819050815f5260205f209050919050565b5f6020601f8301049050919050565b5f82821b905092915050565b5f600883026109647fffffffffffffffffffffffffffffffffffffffffffffffffffffffffffffffff82610929565b61096e8683610929565b95508019841693508086168417925050509392505050565b5f819050919050565b5f6109a96109a461099f846104ef565b610986565b6104ef565b9050919050565b5f819050919050565b6109c28361098f565b6109d66109ce826109b0565b848454610935565b825550505050565b5f5f905090565b6109ed6109de565b6109f88184846109b9565b505050565b5b81811015610a1b57610a105f826109e5565b6001810190506109fe565b5050565b601f821115610a6057610a3181610908565b610a3a8461091a565b81016020851015610a49578190505b610a5d610a558561091a565b8301826109fd565b50505b505050565b5f82821c905092915050565b5f610a805f1984600802610a65565b1980831691505092915050565b5f610a988383610a71565b9150826002028217905092915050565b610ab182610586565b67ffffffffffffffff811115610aca57610ac961062c565b5b610ad482546108d8565b610adf828285610a1f565b5f60209050601f831160018114610b10575f8415610afe578287015190505b610b088582610a8d565b865550610b6f565b601f198416610b1e86610908565b5f5b82811015610b4557848901518255600182019150602085019450602081019050610b20565b86831015610b625784890151610b5e601f891682610a71565b8355505b6001600288020188555050505b505050505050565b5f81905092915050565b5f610b8b82610586565b610b958185610b77565b9350610ba58185602086016105a0565b80840191505092915050565b5f610bbc8284610b81565b91508190509291505056fea26469706673582212205efc4f918c4c80345a8d674588a533bc5b17fb29519c4fb97a495f55971295fc64736f6c634300081e0033",
					"opcodes": "PUSH1 0x80 PUSH1 0x40 MSTORE PUSH1 0x40 MLOAD DUP1 PUSH1 0x40 ADD PUSH1 0x40 MSTORE DUP1 PUSH1 0x7 DUP2 MSTORE PUSH1 0x20 ADD PUSH1 0x40 MLOAD DUP1 PUSH1 0x40 ADD PUSH1 0x40 MSTORE DUP1 PUSH1 0x2 DUP2 MSTORE PUSH1 0x20 ADD PUSH32 0x4A4A000000000000000000000000000000000000000000000000000000000000 DUP2 MSTORE POP DUP2 MSTORE POP PUSH1 0x3 PUSH0 DUP3 ADD MLOAD DUP2 PUSH0 ADD SSTORE PUSH1 0x20 DUP3 ADD MLOAD DUP2 PUSH1 0x1 ADD SWAP1 DUP2 PUSH2 0x6E SWAP2 SWAP1 PUSH2 0x32C JUMP JUMPDEST POP POP POP PUSH1 0x40 MLOAD DUP1 PUSH1 0x40 ADD PUSH1 0x40 MSTORE DUP1 PUSH1 0x8 DUP2 MSTORE PUSH1 0x20 ADD PUSH1 0x40 MLOAD DUP1 PUSH1 0x40 ADD PUSH1 0x40 MSTORE DUP1 PUSH1 0x2 DUP2 MSTORE PUSH1 0x20 ADD PUSH32 0x4B4B000000000000000000000000000000000000000000000000000000000000 DUP2 MSTORE POP DUP2 MSTORE POP PUSH1 0x5 PUSH0 DUP3 ADD MLOAD DUP2 PUSH0 ADD SSTORE PUSH1 0x20 DUP3 ADD MLOAD DUP2 PUSH1 0x1 ADD SWAP1 DUP2 PUSH2 0xDB SWAP2 SWAP1 PUSH2 0x32C JUMP JUMPDEST POP POP POP CALLVALUE DUP1 ISZERO PUSH2 0xE9 JUMPI PUSH0 PUSH0 REVERT JUMPDEST POP PUSH2 0x3FB JUMP JUMPDEST PUSH0 DUP2 MLOAD SWAP1 POP SWAP2 SWAP1 POP JUMP JUMPDEST PUSH32 0x4E487B7100000000000000000000000000000000000000000000000000000000 PUSH0 MSTORE PUSH1 0x41 PUSH1 0x4 MSTORE PUSH1 0x24 PUSH0 REVERT JUMPDEST PUSH32 0x4E487B7100000000000000000000000000000000000000000000000000000000 PUSH0 MSTORE PUSH1 0x22 PUSH1 0x4 MSTORE PUSH1 0x24 PUSH0 REVERT JUMPDEST PUSH0 PUSH1 0x2 DUP3 DIV SWAP1 POP PUSH1 0x1 DUP3 AND DUP1 PUSH2 0x16A JUMPI PUSH1 0x7F DUP3 AND SWAP2 POP JUMPDEST PUSH1 0x20 DUP3 LT DUP2 SUB PUSH2 0x17D JUMPI PUSH2 0x17C PUSH2 0x126 JUMP JUMPDEST JUMPDEST POP SWAP2 SWAP1 POP JUMP JUMPDEST PUSH0 DUP2 SWAP1 POP DUP2 PUSH0 MSTORE PUSH1 0x20 PUSH0 KECCAK256 SWAP1 POP SWAP2 SWAP1 POP JUMP JUMPDEST PUSH0 PUSH1 0x20 PUSH1 0x1F DUP4 ADD DIV SWAP1 POP SWAP2 SWAP1 POP JUMP JUMPDEST PUSH0 DUP3 DUP3 SHL SWAP1 POP SWAP3 SWAP2 POP POP JUMP JUMPDEST PUSH0 PUSH1 0x8 DUP4 MUL PUSH2 0x1DF PUSH32 0xFFFFFFFFFFFFFFFFFFFFFFFFFFFFFFFFFFFFFFFFFFFFFFFFFFFFFFFFFFFFFFFF DUP3 PUSH2 0x1A4 JUMP JUMPDEST PUSH2 0x1E9 DUP7 DUP4 PUSH2 0x1A4 JUMP JUMPDEST SWAP6 POP DUP1 NOT DUP5 AND SWAP4 POP DUP1 DUP7 AND DUP5 OR SWAP3 POP POP POP SWAP4 SWAP3 POP POP POP JUMP JUMPDEST PUSH0 DUP2 SWAP1 POP SWAP2 SWAP1 POP JUMP JUMPDEST PUSH0 DUP2 SWAP1 POP SWAP2 SWAP1 POP JUMP JUMPDEST PUSH0 PUSH2 0x22D PUSH2 0x228 PUSH2 0x223 DUP5 PUSH2 0x201 JUMP JUMPDEST PUSH2 0x20A JUMP JUMPDEST PUSH2 0x201 JUMP JUMPDEST SWAP1 POP SWAP2 SWAP1 POP JUMP JUMPDEST PUSH0 DUP2 SWAP1 POP SWAP2 SWAP1 POP JUMP JUMPDEST PUSH2 0x246 DUP4 PUSH2 0x213 JUMP JUMPDEST PUSH2 0x25A PUSH2 0x252 DUP3 PUSH2 0x234 JUMP JUMPDEST DUP5 DUP5 SLOAD PUSH2 0x1B0 JUMP JUMPDEST DUP3 SSTORE POP POP POP POP JUMP JUMPDEST PUSH0 PUSH0 SWAP1 POP SWAP1 JUMP JUMPDEST PUSH2 0x271 PUSH2 0x262 JUMP JUMPDEST PUSH2 0x27C DUP2 DUP5 DUP5 PUSH2 0x23D JUMP JUMPDEST POP POP POP JUMP JUMPDEST JUMPDEST DUP2 DUP2 LT ISZERO PUSH2 0x29F JUMPI PUSH2 0x294 PUSH0 DUP3 PUSH2 0x269 JUMP JUMPDEST PUSH1 0x1 DUP2 ADD SWAP1 POP PUSH2 0x282 JUMP JUMPDEST POP POP JUMP JUMPDEST PUSH1 0x1F DUP3 GT ISZERO PUSH2 0x2E4 JUMPI PUSH2 0x2B5 DUP2 PUSH2 0x183 JUMP JUMPDEST PUSH2 0x2BE DUP5 PUSH2 0x195 JUMP JUMPDEST DUP2 ADD PUSH1 0x20 DUP6 LT ISZERO PUSH2 0x2CD JUMPI DUP2 SWAP1 POP JUMPDEST PUSH2 0x2E1 PUSH2 0x2D9 DUP6 PUSH2 0x195 JUMP JUMPDEST DUP4 ADD DUP3 PUSH2 0x281 JUMP JUMPDEST POP POP JUMPDEST POP POP POP JUMP JUMPDEST PUSH0 DUP3 DUP3 SHR SWAP1 POP SWAP3 SWAP2 POP POP JUMP JUMPDEST PUSH0 PUSH2 0x304 PUSH0 NOT DUP5 PUSH1 0x8 MUL PUSH2 0x2E9 JUMP JUMPDEST NOT DUP1 DUP4 AND SWAP2 POP POP SWAP3 SWAP2 POP POP JUMP JUMPDEST PUSH0 PUSH2 0x31C DUP4 DUP4 PUSH2 0x2F5 JUMP JUMPDEST SWAP2 POP DUP3 PUSH1 0x2 MUL DUP3 OR SWAP1 POP SWAP3 SWAP2 POP POP JUMP JUMPDEST PUSH2 0x335 DUP3 PUSH2 0xEF JUMP JUMPDEST PUSH8 0xFFFFFFFFFFFFFFFF DUP2 GT ISZERO PUSH2 0x34E JUMPI PUSH2 0x34D PUSH2 0xF9 JUMP JUMPDEST JUMPDEST PUSH2 0x358 DUP3 SLOAD PUSH2 0x153 JUMP JUMPDEST PUSH2 0x363 DUP3 DUP3 DUP6 PUSH2 0x2A3 JUMP JUMPDEST PUSH0 PUSH1 0x20 SWAP1 POP PUSH1 0x1F DUP4 GT PUSH1 0x1 DUP2 EQ PUSH2 0x394 JUMPI PUSH0 DUP5 ISZERO PUSH2 0x382 JUMPI DUP3 DUP8 ADD MLOAD SWAP1 POP JUMPDEST PUSH2 0x38C DUP6 DUP3 PUSH2 0x311 JUMP JUMPDEST DUP7 SSTORE POP PUSH2 0x3F3 JUMP JUMPDEST PUSH1 0x1F NOT DUP5 AND PUSH2 0x3A2 DUP7 PUSH2 0x183 JUMP JUMPDEST PUSH0 JUMPDEST DUP3 DUP2 LT ISZERO PUSH2 0x3C9 JUMPI DUP5 DUP10 ADD MLOAD DUP3 SSTORE PUSH1 0x1 DUP3 ADD SWAP2 POP PUSH1 0x20 DUP6 ADD SWAP5 POP PUSH1 0x20 DUP2 ADD SWAP1 POP PUSH2 0x3A4 JUMP JUMPDEST DUP7 DUP4 LT ISZERO PUSH2 0x3E6 JUMPI DUP5 DUP10 ADD MLOAD PUSH2 0x3E2 PUSH1 0x1F DUP10 AND DUP3 PUSH2 0x2F5 JUMP JUMPDEST DUP4 SSTORE POP JUMPDEST PUSH1 0x1 PUSH1 0x2 DUP9 MUL ADD DUP9 SSTORE POP POP POP JUMPDEST POP POP POP POP POP POP JUMP JUMPDEST PUSH2 0xBFD DUP1 PUSH2 0x408 PUSH0 CODECOPY PUSH0 RETURN INVALID PUSH1 0x80 PUSH1 0x40 MSTORE CALLVALUE DUP1 ISZERO PUSH2 0xF JUMPI PUSH0 PUSH0 REVERT JUMPDEST POP PUSH1 0x4 CALLDATASIZE LT PUSH2 0x86 JUMPI PUSH0 CALLDATALOAD PUSH1 0xE0 SHR DUP1 PUSH4 0x825063E3 GT PUSH2 0x59 JUMPI DUP1 PUSH4 0x825063E3 EQ PUSH2 0x111 JUMPI DUP1 PUSH4 0x8BAB8DD5 EQ PUSH2 0x130 JUMPI DUP1 PUSH4 0xC1164E79 EQ PUSH2 0x160 JUMPI DUP1 PUSH4 0xDEC7E544 EQ PUSH2 0x17F JUMPI PUSH2 0x86 JUMP JUMPDEST DUP1 PUSH4 0x2E64CEC1 EQ PUSH2 0x8A JUMPI DUP1 PUSH4 0x2EBCE631 EQ PUSH2 0xA8 JUMPI DUP1 PUSH4 0x6057361D EQ PUSH2 0xD9 JUMPI DUP1 PUSH4 0x6F760F41 EQ PUSH2 0xF5 JUMPI JUMPDEST PUSH0 PUSH0 REVERT JUMPDEST PUSH2 0x92 PUSH2 0x19B JUMP JUMPDEST PUSH1 0x40 MLOAD PUSH2 0x9F SWAP2 SWAP1 PUSH2 0x507 JUMP JUMPDEST PUSH1 0x40 MLOAD DUP1 SWAP2 SUB SWAP1 RETURN JUMPDEST PUSH2 0xC2 PUSH1 0x4 DUP1 CALLDATASIZE SUB DUP2 ADD SWAP1 PUSH2 0xBD SWAP2 SWAP1 PUSH2 0x55B JUMP JUMPDEST PUSH2 0x1A3 JUMP JUMPDEST PUSH1 0x40 MLOAD PUSH2 0xD0 SWAP3 SWAP2 SWAP1 PUSH2 0x5F6 JUMP JUMPDEST PUSH1 0x40 MLOAD DUP1 SWAP2 SUB SWAP1 RETURN JUMPDEST PUSH2 0xF3 PUSH1 0x4 DUP1 CALLDATASIZE SUB DUP2 ADD SWAP1 PUSH2 0xEE SWAP2 SWAP1 PUSH2 0x55B JUMP JUMPDEST PUSH2 0x258 JUMP JUMPDEST STOP JUMPDEST PUSH2 0x10F PUSH1 0x4 DUP1 CALLDATASIZE SUB DUP2 ADD SWAP1 PUSH2 0x10A SWAP2 SWAP1 PUSH2 0x750 JUMP JUMPDEST PUSH2 0x261 JUMP JUMPDEST STOP JUMPDEST PUSH2 0x119 PUSH2 0x2EA JUMP JUMPDEST PUSH1 0x40 MLOAD PUSH2 0x127 SWAP3 SWAP2 SWAP1 PUSH2 0x5F6 JUMP JUMPDEST PUSH1 0x40 MLOAD DUP1 SWAP2 SUB SWAP1 RETURN JUMPDEST PUSH2 0x14A PUSH1 0x4 DUP1 CALLDATASIZE SUB DUP2 ADD SWAP1 PUSH2 0x145 SWAP2 SWAP1 PUSH2 0x7AA JUMP JUMPDEST PUSH2 0x381 JUMP JUMPDEST PUSH1 0x40 MLOAD PUSH2 0x157 SWAP2 SWAP1 PUSH2 0x507 JUMP JUMPDEST PUSH1 0x40 MLOAD DUP1 SWAP2 SUB SWAP1 RETURN JUMPDEST PUSH2 0x168 PUSH2 0x3AE JUMP JUMPDEST PUSH1 0x40 MLOAD PUSH2 0x176 SWAP3 SWAP2 SWAP1 PUSH2 0x5F6 JUMP JUMPDEST PUSH1 0x40 MLOAD DUP1 SWAP2 SUB SWAP1 RETURN JUMPDEST PUSH2 0x199 PUSH1 0x4 DUP1 CALLDATASIZE SUB DUP2 ADD SWAP1 PUSH2 0x194 SWAP2 SWAP1 PUSH2 0x84E JUMP JUMPDEST PUSH2 0x445 JUMP JUMPDEST STOP JUMPDEST PUSH0 PUSH0 SLOAD SWAP1 POP SWAP1 JUMP JUMPDEST PUSH1 0x1 DUP2 DUP2 SLOAD DUP2 LT PUSH2 0x1B2 JUMPI PUSH0 DUP1 REVERT JUMPDEST SWAP1 PUSH0 MSTORE PUSH1 0x20 PUSH0 KECCAK256 SWAP1 PUSH1 0x2 MUL ADD PUSH0 SWAP2 POP SWAP1 POP DUP1 PUSH0 ADD SLOAD SWAP1 DUP1 PUSH1 0x1 ADD DUP1 SLOAD PUSH2 0x1D7 SWAP1 PUSH2 0x8D8 JUMP JUMPDEST DUP1 PUSH1 0x1F ADD PUSH1 0x20 DUP1 SWAP2 DIV MUL PUSH1 0x20 ADD PUSH1 0x40 MLOAD SWAP1 DUP2 ADD PUSH1 0x40 MSTORE DUP1 SWAP3 SWAP2 SWAP1 DUP2 DUP2 MSTORE PUSH1 0x20 ADD DUP3 DUP1 SLOAD PUSH2 0x203 SWAP1 PUSH2 0x8D8 JUMP JUMPDEST DUP1 ISZERO PUSH2 0x24E JUMPI DUP1 PUSH1 0x1F LT PUSH2 0x225 JUMPI PUSH2 0x100 DUP1 DUP4 SLOAD DIV MUL DUP4 MSTORE SWAP2 PUSH1 0x20 ADD SWAP2 PUSH2 0x24E JUMP JUMPDEST DUP3 ADD SWAP2 SWAP1 PUSH0 MSTORE PUSH1 0x20 PUSH0 KECCAK256 SWAP1 JUMPDEST DUP2 SLOAD DUP2 MSTORE SWAP1 PUSH1 0x1 ADD SWAP1 PUSH1 0x20 ADD DUP1 DUP4 GT PUSH2 0x231 JUMPI DUP3 SWAP1 SUB PUSH1 0x1F AND DUP3 ADD SWAP2 JUMPDEST POP POP POP POP POP SWAP1 POP DUP3 JUMP JUMPDEST DUP1 PUSH0 DUP2 SWAP1 SSTORE POP POP JUMP JUMPDEST PUSH0 PUSH1 0x40 MLOAD DUP1 PUSH1 0x40 ADD PUSH1 0x40 MSTORE DUP1 DUP4 DUP2 MSTORE PUSH1 0x20 ADD DUP5 DUP2 MSTORE POP SWAP1 POP PUSH1 0x1 DUP2 SWAP1 DUP1 PUSH1 0x1 DUP2 SLOAD ADD DUP1 DUP3 SSTORE DUP1 SWAP2 POP POP PUSH1 0x1 SWAP1 SUB SWAP1 PUSH0 MSTORE PUSH1 0x20 PUSH0 KECCAK256 SWAP1 PUSH1 0x2 MUL ADD PUSH0 SWAP1 SWAP2 SWAP1 SWAP2 SWAP1 SWAP2 POP PUSH0 DUP3 ADD MLOAD DUP2 PUSH0 ADD SSTORE PUSH1 0x20 DUP3 ADD MLOAD DUP2 PUSH1 0x1 ADD SWAP1 DUP2 PUSH2 0x2BF SWAP2 SWAP1 PUSH2 0xAA8 JUMP JUMPDEST POP POP POP DUP2 PUSH1 0x2 DUP5 PUSH1 0x40 MLOAD PUSH2 0x2D3 SWAP2 SWAP1 PUSH2 0xBB1 JUMP JUMPDEST SWAP1 DUP2 MSTORE PUSH1 0x20 ADD PUSH1 0x40 MLOAD DUP1 SWAP2 SUB SWAP1 KECCAK256 DUP2 SWAP1 SSTORE POP POP POP POP JUMP JUMPDEST PUSH1 0x5 DUP1 PUSH0 ADD SLOAD SWAP1 DUP1 PUSH1 0x1 ADD DUP1 SLOAD PUSH2 0x300 SWAP1 PUSH2 0x8D8 JUMP JUMPDEST DUP1 PUSH1 0x1F ADD PUSH1 0x20 DUP1 SWAP2 DIV MUL PUSH1 0x20 ADD PUSH1 0x40 MLOAD SWAP1 DUP2 ADD PUSH1 0x40 MSTORE DUP1 SWAP3 SWAP2 SWAP1 DUP2 DUP2 MSTORE PUSH1 0x20 ADD DUP3 DUP1 SLOAD PUSH2 0x32C SWAP1 PUSH2 0x8D8 JUMP JUMPDEST DUP1 ISZERO PUSH2 0x377 JUMPI DUP1 PUSH1 0x1F LT PUSH2 0x34E JUMPI PUSH2 0x100 DUP1 DUP4 SLOAD DIV MUL DUP4 MSTORE SWAP2 PUSH1 0x20 ADD SWAP2 PUSH2 0x377 JUMP JUMPDEST DUP3 ADD SWAP2 SWAP1 PUSH0 MSTORE PUSH1 0x20 PUSH0 KECCAK256 SWAP1 JUMPDEST DUP2 SLOAD DUP2 MSTORE SWAP1 PUSH1 0x1 ADD SWAP1 PUSH1 0x20 ADD DUP1 DUP4 GT PUSH2 0x35A JUMPI DUP3 SWAP1 SUB PUSH1 0x1F AND DUP3 ADD SWAP2 JUMPDEST POP POP POP POP POP SWAP1 POP DUP3 JUMP JUMPDEST PUSH1 0x2 DUP2 DUP1 MLOAD PUSH1 0x20 DUP2 ADD DUP3 ADD DUP1 MLOAD DUP5 DUP3 MSTORE PUSH1 0x20 DUP4 ADD PUSH1 0x20 DUP6 ADD KECCAK256 DUP2 DUP4 MSTORE DUP1 SWAP6 POP POP POP POP POP POP PUSH0 SWAP2 POP SWAP1 POP SLOAD DUP2 JUMP JUMPDEST PUSH1 0x3 DUP1 PUSH0 ADD SLOAD SWAP1 DUP1 PUSH1 0x1 ADD DUP1 SLOAD PUSH2 0x3C4 SWAP1 PUSH2 0x8D8 JUMP JUMPDEST DUP1 PUSH1 0x1F ADD PUSH1 0x20 DUP1 SWAP2 DIV MUL PUSH1 0x20 ADD PUSH1 0x40 MLOAD SWAP1 DUP2 ADD PUSH1 0x40 MSTORE DUP1 SWAP3 SWAP2 SWAP1 DUP2 DUP2 MSTORE PUSH1 0x20 ADD DUP3 DUP1 SLOAD PUSH2 0x3F0 SWAP1 PUSH2 0x8D8 JUMP JUMPDEST DUP1 ISZERO PUSH2 0x43B JUMPI DUP1 PUSH1 0x1F LT PUSH2 0x412 JUMPI PUSH2 0x100 DUP1 DUP4 SLOAD DIV MUL DUP4 MSTORE SWAP2 PUSH1 0x20 ADD SWAP2 PUSH2 0x43B JUMP JUMPDEST DUP3 ADD SWAP2 SWAP1 PUSH0 MSTORE PUSH1 0x20 PUSH0 KECCAK256 SWAP1 JUMPDEST DUP2 SLOAD DUP2 MSTORE SWAP1 PUSH1 0x1 ADD SWAP1 PUSH1 0x20 ADD DUP1 DUP4 GT PUSH2 0x41E JUMPI DUP3 SWAP1 SUB PUSH1 0x1F AND DUP3 ADD SWAP2 JUMPDEST POP POP POP POP POP SWAP1 POP DUP3 JUMP JUMPDEST PUSH0 PUSH1 0x40 MLOAD DUP1 PUSH1 0x40 ADD PUSH1 0x40 MSTORE DUP1 DUP4 DUP2 MSTORE PUSH1 0x20 ADD DUP6 DUP6 DUP1 DUP1 PUSH1 0x1F ADD PUSH1 0x20 DUP1 SWAP2 DIV MUL PUSH1 0x20 ADD PUSH1 0x40 MLOAD SWAP1 DUP2 ADD PUSH1 0x40 MSTORE DUP1 SWAP4 SWAP3 SWAP2 SWAP1 DUP2 DUP2 MSTORE PUSH1 0x20 ADD DUP4 DUP4 DUP1 DUP3 DUP5 CALLDATACOPY PUSH0 DUP2 DUP5 ADD MSTORE PUSH1 0x1F NOT PUSH1 0x1F DUP3 ADD AND SWAP1 POP DUP1 DUP4 ADD SWAP3 POP POP POP POP POP POP POP DUP2 MSTORE POP SWAP1 POP PUSH1 0x1 DUP2 SWAP1 DUP1 PUSH1 0x1 DUP2 SLOAD ADD DUP1 DUP3 SSTORE DUP1 SWAP2 POP POP PUSH1 0x1 SWAP1 SUB SWAP1 PUSH0 MSTORE PUSH1 0x20 PUSH0 KECCAK256 SWAP1 PUSH1 0x2 MUL ADD PUSH0 SWAP1 SWAP2 SWAP1 SWAP2 SWAP1 SWAP2 POP PUSH0 DUP3 ADD MLOAD DUP2 PUSH0 ADD SSTORE PUSH1 0x20 DUP3 ADD MLOAD DUP2 PUSH1 0x1 ADD SWAP1 DUP2 PUSH2 0x4E6 SWAP2 SWAP1 PUSH2 0xAA8 JUMP JUMPDEST POP POP POP POP POP POP POP JUMP JUMPDEST PUSH0 DUP2 SWAP1 POP SWAP2 SWAP1 POP JUMP JUMPDEST PUSH2 0x501 DUP2 PUSH2 0x4EF JUMP JUMPDEST DUP3 MSTORE POP POP JUMP JUMPDEST PUSH0 PUSH1 0x20 DUP3 ADD SWAP1 POP PUSH2 0x51A PUSH0 DUP4 ADD DUP5 PUSH2 0x4F8 JUMP JUMPDEST SWAP3 SWAP2 POP POP JUMP JUMPDEST PUSH0 PUSH1 0x40 MLOAD SWAP1 POP SWAP1 JUMP JUMPDEST PUSH0 PUSH0 REVERT JUMPDEST PUSH0 PUSH0 REVERT JUMPDEST PUSH2 0x53A DUP2 PUSH2 0x4EF JUMP JUMPDEST DUP2 EQ PUSH2 0x544 JUMPI PUSH0 PUSH0 REVERT JUMPDEST POP JUMP JUMPDEST PUSH0 DUP2 CALLDATALOAD SWAP1 POP PUSH2 0x555 DUP2 PUSH2 0x531 JUMP JUMPDEST SWAP3 SWAP2 POP POP JUMP JUMPDEST PUSH0 PUSH1 0x20 DUP3 DUP5 SUB SLT ISZERO PUSH2 0x570 JUMPI PUSH2 0x56F PUSH2 0x529 JUMP JUMPDEST JUMPDEST PUSH0 PUSH2 0x57D DUP5 DUP3 DUP6 ADD PUSH2 0x547 JUMP JUMPDEST SWAP2 POP POP SWAP3 SWAP2 POP POP JUMP JUMPDEST PUSH0 DUP2 MLOAD SWAP1 POP SWAP2 SWAP1 POP JUMP JUMPDEST PUSH0 DUP3 DUP3 MSTORE PUSH1 0x20 DUP3 ADD SWAP1 POP SWAP3 SWAP2 POP POP JUMP JUMPDEST DUP3 DUP2 DUP4 MCOPY PUSH0 DUP4 DUP4 ADD MSTORE POP POP POP JUMP JUMPDEST PUSH0 PUSH1 0x1F NOT PUSH1 0x1F DUP4 ADD AND SWAP1 POP SWAP2 SWAP1 POP JUMP JUMPDEST PUSH0 PUSH2 0x5C8 DUP3 PUSH2 0x586 JUMP JUMPDEST PUSH2 0x5D2 DUP2 DUP6 PUSH2 0x590 JUMP JUMPDEST SWAP4 POP PUSH2 0x5E2 DUP2 DUP6 PUSH1 0x20 DUP7 ADD PUSH2 0x5A0 JUMP JUMPDEST PUSH2 0x5EB DUP2 PUSH2 0x5AE JUMP JUMPDEST DUP5 ADD SWAP2 POP POP SWAP3 SWAP2 POP POP JUMP JUMPDEST PUSH0 PUSH1 0x40 DUP3 ADD SWAP1 POP PUSH2 0x609 PUSH0 DUP4 ADD DUP6 PUSH2 0x4F8 JUMP JUMPDEST DUP2 DUP2 SUB PUSH1 0x20 DUP4 ADD MSTORE PUSH2 0x61B DUP2 DUP5 PUSH2 0x5BE JUMP JUMPDEST SWAP1 POP SWAP4 SWAP3 POP POP POP JUMP JUMPDEST PUSH0 PUSH0 REVERT JUMPDEST PUSH0 PUSH0 REVERT JUMPDEST PUSH32 0x4E487B7100000000000000000000000000000000000000000000000000000000 PUSH0 MSTORE PUSH1 0x41 PUSH1 0x4 MSTORE PUSH1 0x24 PUSH0 REVERT JUMPDEST PUSH2 0x662 DUP3 PUSH2 0x5AE JUMP JUMPDEST DUP2 ADD DUP2 DUP2 LT PUSH8 0xFFFFFFFFFFFFFFFF DUP3 GT OR ISZERO PUSH2 0x681 JUMPI PUSH2 0x680 PUSH2 0x62C JUMP JUMPDEST JUMPDEST DUP1 PUSH1 0x40 MSTORE POP POP POP JUMP JUMPDEST PUSH0 PUSH2 0x693 PUSH2 0x520 JUMP JUMPDEST SWAP1 POP PUSH2 0x69F DUP3 DUP3 PUSH2 0x659 JUMP JUMPDEST SWAP2 SWAP1 POP JUMP JUMPDEST PUSH0 PUSH8 0xFFFFFFFFFFFFFFFF DUP3 GT ISZERO PUSH2 0x6BE JUMPI PUSH2 0x6BD PUSH2 0x62C JUMP JUMPDEST JUMPDEST PUSH2 0x6C7 DUP3 PUSH2 0x5AE JUMP JUMPDEST SWAP1 POP PUSH1 0x20 DUP2 ADD SWAP1 POP SWAP2 SWAP1 POP JUMP JUMPDEST DUP3 DUP2 DUP4 CALLDATACOPY PUSH0 DUP4 DUP4 ADD MSTORE POP POP POP JUMP JUMPDEST PUSH0 PUSH2 0x6F4 PUSH2 0x6EF DUP5 PUSH2 0x6A4 JUMP JUMPDEST PUSH2 0x68A JUMP JUMPDEST SWAP1 POP DUP3 DUP2 MSTORE PUSH1 0x20 DUP2 ADD DUP5 DUP5 DUP5 ADD GT ISZERO PUSH2 0x710 JUMPI PUSH2 0x70F PUSH2 0x628 JUMP JUMPDEST JUMPDEST PUSH2 0x71B DUP5 DUP3 DUP6 PUSH2 0x6D4 JUMP JUMPDEST POP SWAP4 SWAP3 POP POP POP JUMP JUMPDEST PUSH0 DUP3 PUSH1 0x1F DUP4 ADD SLT PUSH2 0x737 JUMPI PUSH2 0x736 PUSH2 0x624 JUMP JUMPDEST JUMPDEST DUP2 CALLDATALOAD PUSH2 0x747 DUP5 DUP3 PUSH1 0x20 DUP7 ADD PUSH2 0x6E2 JUMP JUMPDEST SWAP2 POP POP SWAP3 SWAP2 POP POP JUMP JUMPDEST PUSH0 PUSH0 PUSH1 0x40 DUP4 DUP6 SUB SLT ISZERO PUSH2 0x766 JUMPI PUSH2 0x765 PUSH2 0x529 JUMP JUMPDEST JUMPDEST PUSH0 DUP4 ADD CALLDATALOAD PUSH8 0xFFFFFFFFFFFFFFFF DUP2 GT ISZERO PUSH2 0x783 JUMPI PUSH2 0x782 PUSH2 0x52D JUMP JUMPDEST JUMPDEST PUSH2 0x78F DUP6 DUP3 DUP7 ADD PUSH2 0x723 JUMP JUMPDEST SWAP3 POP POP PUSH1 0x20 PUSH2 0x7A0 DUP6 DUP3 DUP7 ADD PUSH2 0x547 JUMP JUMPDEST SWAP2 POP POP SWAP3 POP SWAP3 SWAP1 POP JUMP JUMPDEST PUSH0 PUSH1 0x20 DUP3 DUP5 SUB SLT ISZERO PUSH2 0x7BF JUMPI PUSH2 0x7BE PUSH2 0x529 JUMP JUMPDEST JUMPDEST PUSH0 DUP3 ADD CALLDATALOAD PUSH8 0xFFFFFFFFFFFFFFFF DUP2 GT ISZERO PUSH2 0x7DC JUMPI PUSH2 0x7DB PUSH2 0x52D JUMP JUMPDEST JUMPDEST PUSH2 0x7E8 DUP5 DUP3 DUP6 ADD PUSH2 0x723 JUMP JUMPDEST SWAP2 POP POP SWAP3 SWAP2 POP POP JUMP JUMPDEST PUSH0 PUSH0 REVERT JUMPDEST PUSH0 PUSH0 REVERT JUMPDEST PUSH0 PUSH0 DUP4 PUSH1 0x1F DUP5 ADD SLT PUSH2 0x80E JUMPI PUSH2 0x80D PUSH2 0x624 JUMP JUMPDEST JUMPDEST DUP3 CALLDATALOAD SWAP1 POP PUSH8 0xFFFFFFFFFFFFFFFF DUP2 GT ISZERO PUSH2 0x82B JUMPI PUSH2 0x82A PUSH2 0x7F1 JUMP JUMPDEST JUMPDEST PUSH1 0x20 DUP4 ADD SWAP2 POP DUP4 PUSH1 0x1 DUP3 MUL DUP4 ADD GT ISZERO PUSH2 0x847 JUMPI PUSH2 0x846 PUSH2 0x7F5 JUMP JUMPDEST JUMPDEST SWAP3 POP SWAP3 SWAP1 POP JUMP JUMPDEST PUSH0 PUSH0 PUSH0 PUSH1 0x40 DUP5 DUP7 SUB SLT ISZERO PUSH2 0x865 JUMPI PUSH2 0x864 PUSH2 0x529 JUMP JUMPDEST JUMPDEST PUSH0 DUP5 ADD CALLDATALOAD PUSH8 0xFFFFFFFFFFFFFFFF DUP2 GT ISZERO PUSH2 0x882 JUMPI PUSH2 0x881 PUSH2 0x52D JUMP JUMPDEST JUMPDEST PUSH2 0x88E DUP7 DUP3 DUP8 ADD PUSH2 0x7F9 JUMP JUMPDEST SWAP4 POP SWAP4 POP POP PUSH1 0x20 PUSH2 0x8A1 DUP7 DUP3 DUP8 ADD PUSH2 0x547 JUMP JUMPDEST SWAP2 POP POP SWAP3 POP SWAP3 POP SWAP3 JUMP JUMPDEST PUSH32 0x4E487B7100000000000000000000000000000000000000000000000000000000 PUSH0 MSTORE PUSH1 0x22 PUSH1 0x4 MSTORE PUSH1 0x24 PUSH0 REVERT JUMPDEST PUSH0 PUSH1 0x2 DUP3 DIV SWAP1 POP PUSH1 0x1 DUP3 AND DUP1 PUSH2 0x8EF JUMPI PUSH1 0x7F DUP3 AND SWAP2 POP JUMPDEST PUSH1 0x20 DUP3 LT DUP2 SUB PUSH2 0x902 JUMPI PUSH2 0x901 PUSH2 0x8AB JUMP JUMPDEST JUMPDEST POP SWAP2 SWAP1 POP JUMP JUMPDEST PUSH0 DUP2 SWAP1 POP DUP2 PUSH0 MSTORE PUSH1 0x20 PUSH0 KECCAK256 SWAP1 POP SWAP2 SWAP1 POP JUMP JUMPDEST PUSH0 PUSH1 0x20 PUSH1 0x1F DUP4 ADD DIV SWAP1 POP SWAP2 SWAP1 POP JUMP JUMPDEST PUSH0 DUP3 DUP3 SHL SWAP1 POP SWAP3 SWAP2 POP POP JUMP JUMPDEST PUSH0 PUSH1 0x8 DUP4 MUL PUSH2 0x964 PUSH32 0xFFFFFFFFFFFFFFFFFFFFFFFFFFFFFFFFFFFFFFFFFFFFFFFFFFFFFFFFFFFFFFFF DUP3 PUSH2 0x929 JUMP JUMPDEST PUSH2 0x96E DUP7 DUP4 PUSH2 0x929 JUMP JUMPDEST SWAP6 POP DUP1 NOT DUP5 AND SWAP4 POP DUP1 DUP7 AND DUP5 OR SWAP3 POP POP POP SWAP4 SWAP3 POP POP POP JUMP JUMPDEST PUSH0 DUP2 SWAP1 POP SWAP2 SWAP1 POP JUMP JUMPDEST PUSH0 PUSH2 0x9A9 PUSH2 0x9A4 PUSH2 0x99F DUP5 PUSH2 0x4EF JUMP JUMPDEST PUSH2 0x986 JUMP JUMPDEST PUSH2 0x4EF JUMP JUMPDEST SWAP1 POP SWAP2 SWAP1 POP JUMP JUMPDEST PUSH0 DUP2 SWAP1 POP SWAP2 SWAP1 POP JUMP JUMPDEST PUSH2 0x9C2 DUP4 PUSH2 0x98F JUMP JUMPDEST PUSH2 0x9D6 PUSH2 0x9CE DUP3 PUSH2 0x9B0 JUMP JUMPDEST DUP5 DUP5 SLOAD PUSH2 0x935 JUMP JUMPDEST DUP3 SSTORE POP POP POP POP JUMP JUMPDEST PUSH0 PUSH0 SWAP1 POP SWAP1 JUMP JUMPDEST PUSH2 0x9ED PUSH2 0x9DE JUMP JUMPDEST PUSH2 0x9F8 DUP2 DUP5 DUP5 PUSH2 0x9B9 JUMP JUMPDEST POP POP POP JUMP JUMPDEST JUMPDEST DUP2 DUP2 LT ISZERO PUSH2 0xA1B JUMPI PUSH2 0xA10 PUSH0 DUP3 PUSH2 0x9E5 JUMP JUMPDEST PUSH1 0x1 DUP2 ADD SWAP1 POP PUSH2 0x9FE JUMP JUMPDEST POP POP JUMP JUMPDEST PUSH1 0x1F DUP3 GT ISZERO PUSH2 0xA60 JUMPI PUSH2 0xA31 DUP2 PUSH2 0x908 JUMP JUMPDEST PUSH2 0xA3A DUP5 PUSH2 0x91A JUMP JUMPDEST DUP2 ADD PUSH1 0x20 DUP6 LT ISZERO PUSH2 0xA49 JUMPI DUP2 SWAP1 POP JUMPDEST PUSH2 0xA5D PUSH2 0xA55 DUP6 PUSH2 0x91A JUMP JUMPDEST DUP4 ADD DUP3 PUSH2 0x9FD JUMP JUMPDEST POP POP JUMPDEST POP POP POP JUMP JUMPDEST PUSH0 DUP3 DUP3 SHR SWAP1 POP SWAP3 SWAP2 POP POP JUMP JUMPDEST PUSH0 PUSH2 0xA80 PUSH0 NOT DUP5 PUSH1 0x8 MUL PUSH2 0xA65 JUMP JUMPDEST NOT DUP1 DUP4 AND SWAP2 POP POP SWAP3 SWAP2 POP POP JUMP JUMPDEST PUSH0 PUSH2 0xA98 DUP4 DUP4 PUSH2 0xA71 JUMP JUMPDEST SWAP2 POP DUP3 PUSH1 0x2 MUL DUP3 OR SWAP1 POP SWAP3 SWAP2 POP POP JUMP JUMPDEST PUSH2 0xAB1 DUP3 PUSH2 0x586 JUMP JUMPDEST PUSH8 0xFFFFFFFFFFFFFFFF DUP2 GT ISZERO PUSH2 0xACA JUMPI PUSH2 0xAC9 PUSH2 0x62C JUMP JUMPDEST JUMPDEST PUSH2 0xAD4 DUP3 SLOAD PUSH2 0x8D8 JUMP JUMPDEST PUSH2 0xADF DUP3 DUP3 DUP6 PUSH2 0xA1F JUMP JUMPDEST PUSH0 PUSH1 0x20 SWAP1 POP PUSH1 0x1F DUP4 GT PUSH1 0x1 DUP2 EQ PUSH2 0xB10 JUMPI PUSH0 DUP5 ISZERO PUSH2 0xAFE JUMPI DUP3 DUP8 ADD MLOAD SWAP1 POP JUMPDEST PUSH2 0xB08 DUP6 DUP3 PUSH2 0xA8D JUMP JUMPDEST DUP7 SSTORE POP PUSH2 0xB6F JUMP JUMPDEST PUSH1 0x1F NOT DUP5 AND PUSH2 0xB1E DUP7 PUSH2 0x908 JUMP JUMPDEST PUSH0 JUMPDEST DUP3 DUP2 LT ISZERO PUSH2 0xB45 JUMPI DUP5 DUP10 ADD MLOAD DUP3 SSTORE PUSH1 0x1 DUP3 ADD SWAP2 POP PUSH1 0x20 DUP6 ADD SWAP5 POP PUSH1 0x20 DUP2 ADD SWAP1 POP PUSH2 0xB20 JUMP JUMPDEST DUP7 DUP4 LT ISZERO PUSH2 0xB62 JUMPI DUP5 DUP10 ADD MLOAD PUSH2 0xB5E PUSH1 0x1F DUP10 AND DUP3 PUSH2 0xA71 JUMP JUMPDEST DUP4 SSTORE POP JUMPDEST PUSH1 0x1 PUSH1 0x2 DUP9 MUL ADD DUP9 SSTORE POP POP POP JUMPDEST POP POP POP POP POP POP JUMP JUMPDEST PUSH0 DUP2 SWAP1 POP SWAP3 SWAP2 POP POP JUMP JUMPDEST PUSH0 PUSH2 0xB8B DUP3 PUSH2 0x586 JUMP JUMPDEST PUSH2 0xB95 DUP2 DUP6 PUSH2 0xB77 JUMP JUMPDEST SWAP4 POP PUSH2 0xBA5 DUP2 DUP6 PUSH1 0x20 DUP7 ADD PUSH2 0x5A0 JUMP JUMPDEST DUP1 DUP5 ADD SWAP2 POP POP SWAP3 SWAP2 POP POP JUMP JUMPDEST PUSH0 PUSH2 0xBBC DUP3 DUP5 PUSH2 0xB81 JUMP JUMPDEST SWAP2 POP DUP2 SWAP1 POP SWAP3 SWAP2 POP POP JUMP INVALID LOG2 PUSH5 0x6970667358 0x22 SLT KECCAK256 MCOPY 0xFC 0x4F SWAP2 DUP13 0x4C DUP1 CALLVALUE GAS DUP14 PUSH8 0x4588A533BC5B17FB 0x29 MLOAD SWAP13 0x4F 0xB9 PUSH27 0x495F55971295FC64736F6C634300081E0033000000000000000000 "
				},
				"gasEstimates": {
					"creation": {
						"codeDepositCost": "613800",
						"executionCost": "infinite",
						"totalCost": "infinite"
					},
					"external": {
						"JJ()": "infinite",
						"KK()": "infinite",
						"addPerson(string,uint256)": "infinite",
						"addPerson2(string,uint256)": "infinite",
						"listOfPeople(uint256)": "infinite",
						"nameToFavoriteNumber(string)": "infinite",
						"retrieve()": "2432",
						"store(uint256)": "22559"
					}
				},
				"methodIdentifiers": {
					"JJ()": "c1164e79",
					"KK()": "825063e3",
					"addPerson(string,uint256)": "6f760f41",
					"addPerson2(string,uint256)": "dec7e544",
					"listOfPeople(uint256)": "2ebce631",
					"nameToFavoriteNumber(string)": "8bab8dd5",
					"retrieve()": "2e64cec1",
					"store(uint256)": "6057361d"
				}
			},
			"storageLayout": {
				"storage": [
					{
						"astId": 3,
						"contract": "SimpleStorage.sol:SimpleStorage",
						"label": "favoriteNumber",
						"offset": 0,
						"slot": "0",
						"type": "t_uint256"
					},
					{
						"astId": 25,
						"contract": "SimpleStorage.sol:SimpleStorage",
						"label": "listOfPeople",
						"offset": 0,
						"slot": "1",
						"type": "t_array(t_struct(Person)30_storage)dyn_storage"
					},
					{
						"astId": 34,
						"contract": "SimpleStorage.sol:SimpleStorage",
						"label": "nameToFavoriteNumber",
						"offset": 0,
						"slot": "2",
						"type": "t_mapping(t_string_memory_ptr,t_uint256)"
					},
					{
						"astId": 41,
						"contract": "SimpleStorage.sol:SimpleStorage",
						"label": "JJ",
						"offset": 0,
						"slot": "3",
						"type": "t_struct(Person)30_storage"
					},
					{
						"astId": 48,
						"contract": "SimpleStorage.sol:SimpleStorage",
						"label": "KK",
						"offset": 0,
						"slot": "5",
						"type": "t_struct(Person)30_storage"
					}
				],
				"types": {
					"t_array(t_struct(Person)30_storage)dyn_storage": {
						"base": "t_struct(Person)30_storage",
						"encoding": "dynamic_array",
						"label": "struct SimpleStorage.Person[]",
						"numberOfBytes": "32"
					},
					"t_mapping(t_string_memory_ptr,t_uint256)": {
						"encoding": "mapping",
						"key": "t_string_memory_ptr",
						"label": "mapping(string => uint256)",
						"numberOfBytes": "32",
						"value": "t_uint256"
					},
					"t_string_memory_ptr": {
						"encoding": "bytes",
						"label": "string",
						"numberOfBytes": "32"
					},
					"t_string_storage": {
						"encoding": "bytes",
						"label": "string",
						"numberOfBytes": "32"
					},
					"t_struct(Person)30_storage": {
						"encoding": "inplace",
						"label": "struct SimpleStorage.Person",
						"members": [
							{
								"astId": 27,
								"contract": "SimpleStorage.sol:SimpleStorage",
								"label": "favoriteNumber",
								"offset": 0,
								"slot": "0",
								"type": "t_uint256"
							},
							{
								"astId": 29,
								"contract": "SimpleStorage.sol:SimpleStorage",
								"label": "name",
								"offset": 0,
								"slot": "1",
								"type": "t_string_storage"
							}
						],
						"numberOfBytes": "64"
					},
					"t_uint256": {
						"encoding": "inplace",
						"label": "uint256",
						"numberOfBytes": "32"
					}
				}
			},
			"userdoc": {
				"kind": "user",
				"methods": {},
				"version": 1
			}
		}
	}
}